{
  "_format": "hh-sol-artifact-1",
  "contractName": "QuoterV2",
  "sourceName": "contracts/lens/QuoterV2.sol",
  "abi": [
    {
      "inputs": [],
      "name": "WETH9",
      "outputs": [
        {
          "internalType": "address",
          "name": "",
          "type": "address"
        }
      ],
      "stateMutability": "view",
      "type": "function"
    },
    {
      "inputs": [],
      "name": "factory",
      "outputs": [
        {
          "internalType": "address",
          "name": "",
          "type": "address"
        }
      ],
      "stateMutability": "view",
      "type": "function"
    },
    {
      "inputs": [
        {
          "internalType": "address",
          "name": "_factory",
          "type": "address"
        },
        {
          "internalType": "address",
          "name": "_WETH9",
          "type": "address"
        }
      ],
      "name": "initialize",
      "outputs": [],
      "stateMutability": "nonpayable",
      "type": "function"
    },
    {
      "inputs": [
        {
          "internalType": "bytes",
          "name": "path",
          "type": "bytes"
        },
        {
          "internalType": "uint256",
          "name": "amountIn",
          "type": "uint256"
        }
      ],
      "name": "quoteExactInput",
      "outputs": [
        {
          "internalType": "uint256",
          "name": "amountOut",
          "type": "uint256"
        },
        {
          "internalType": "uint160[]",
          "name": "sqrtPriceX96AfterList",
          "type": "uint160[]"
        },
        {
          "internalType": "uint32[]",
          "name": "initializedTicksCrossedList",
          "type": "uint32[]"
        },
        {
          "internalType": "uint256",
          "name": "gasEstimate",
          "type": "uint256"
        }
      ],
      "stateMutability": "nonpayable",
      "type": "function"
    },
    {
      "inputs": [
        {
          "components": [
            {
              "internalType": "address",
              "name": "tokenIn",
              "type": "address"
            },
            {
              "internalType": "address",
              "name": "tokenOut",
              "type": "address"
            },
            {
              "internalType": "uint256",
              "name": "amountIn",
              "type": "uint256"
            },
            {
              "internalType": "uint24",
              "name": "fee",
              "type": "uint24"
            },
            {
              "internalType": "uint160",
              "name": "sqrtPriceLimitX96",
              "type": "uint160"
            }
          ],
          "internalType": "struct IQuoterV2.QuoteExactInputSingleParams",
          "name": "params",
          "type": "tuple"
        }
      ],
      "name": "quoteExactInputSingle",
      "outputs": [
        {
          "internalType": "uint256",
          "name": "amountOut",
          "type": "uint256"
        },
        {
          "internalType": "uint160",
          "name": "sqrtPriceX96After",
          "type": "uint160"
        },
        {
          "internalType": "uint32",
          "name": "initializedTicksCrossed",
          "type": "uint32"
        },
        {
          "internalType": "uint256",
          "name": "gasEstimate",
          "type": "uint256"
        }
      ],
      "stateMutability": "nonpayable",
      "type": "function"
    },
    {
      "inputs": [
        {
          "internalType": "bytes",
          "name": "path",
          "type": "bytes"
        },
        {
          "internalType": "uint256",
          "name": "amountOut",
          "type": "uint256"
        }
      ],
      "name": "quoteExactOutput",
      "outputs": [
        {
          "internalType": "uint256",
          "name": "amountIn",
          "type": "uint256"
        },
        {
          "internalType": "uint160[]",
          "name": "sqrtPriceX96AfterList",
          "type": "uint160[]"
        },
        {
          "internalType": "uint32[]",
          "name": "initializedTicksCrossedList",
          "type": "uint32[]"
        },
        {
          "internalType": "uint256",
          "name": "gasEstimate",
          "type": "uint256"
        }
      ],
      "stateMutability": "nonpayable",
      "type": "function"
    },
    {
      "inputs": [
        {
          "components": [
            {
              "internalType": "address",
              "name": "tokenIn",
              "type": "address"
            },
            {
              "internalType": "address",
              "name": "tokenOut",
              "type": "address"
            },
            {
              "internalType": "uint256",
              "name": "amount",
              "type": "uint256"
            },
            {
              "internalType": "uint24",
              "name": "fee",
              "type": "uint24"
            },
            {
              "internalType": "uint160",
              "name": "sqrtPriceLimitX96",
              "type": "uint160"
            }
          ],
          "internalType": "struct IQuoterV2.QuoteExactOutputSingleParams",
          "name": "params",
          "type": "tuple"
        }
      ],
      "name": "quoteExactOutputSingle",
      "outputs": [
        {
          "internalType": "uint256",
          "name": "amountIn",
          "type": "uint256"
        },
        {
          "internalType": "uint160",
          "name": "sqrtPriceX96After",
          "type": "uint160"
        },
        {
          "internalType": "uint32",
          "name": "initializedTicksCrossed",
          "type": "uint32"
        },
        {
          "internalType": "uint256",
          "name": "gasEstimate",
          "type": "uint256"
        }
      ],
      "stateMutability": "nonpayable",
      "type": "function"
    },
    {
      "inputs": [
        {
          "internalType": "int256",
          "name": "amount0Delta",
          "type": "int256"
        },
        {
          "internalType": "int256",
          "name": "amount1Delta",
          "type": "int256"
        },
        {
          "internalType": "bytes",
          "name": "path",
          "type": "bytes"
        }
      ],
      "name": "swapCallback",
      "outputs": [],
      "stateMutability": "view",
      "type": "function"
    }
  ],
  "bytecode": "0x608060405234801561001057600080fd5b50611cde806100206000396000f3fe608060405234801561001057600080fd5b50600436106100885760003560e01c8063c45a01551161005b578063c45a015514610106578063c6a5026a1461010e578063cdca175314610121578063fa483e721461013457610088565b80632f80bb1d1461008d578063485cc955146100b95780634aa4a4fc146100ce578063bd21704a146100e3575b600080fd5b6100a061009b36600461183e565b610147565b6040516100b09493929190611b50565b60405180910390f35b6100cc6100c7366004611806565b6102fc565b005b6100d66103aa565b6040516100b09190611ab9565b6100f66100f136600461195c565b6103b9565b6040516100b09493929190611beb565b6100d661058d565b6100f661011c36600461195c565b6105a2565b6100a061012f36600461183e565b610718565b6100cc6101423660046118a4565b6108af565b6000606080600061015786610a1f565b67ffffffffffffffff8111801561016d57600080fd5b50604051908082528060200260200182016040528015610197578160200160208202803683370190505b5092506101a386610a1f565b67ffffffffffffffff811180156101b957600080fd5b506040519080825280602002602001820160405280156101e3578160200160208202803683370190505b50915060005b60008060006101f78a610a30565b9250925092506000806000806102536040518060a00160405280886001600160a01b03168152602001896001600160a01b031681526020018f81526020018762ffffff16815260200160006001600160a01b03168152506103b9565b9350935093509350828b898151811061026857fe5b60200260200101906001600160a01b031690816001600160a01b031681525050818a898151811061029557fe5b63ffffffff90921660209283029190910190910152929b50968201966001909601958b926102c28e610a61565b156102d7576102d08e610a69565b9d506102e7565b8c9b5050505050505050506102f3565b505050505050506101e9565b92959194509250565b600054610100900460ff16806103155750610315610a86565b80610323575060005460ff16155b61035e5760405162461bcd60e51b815260040180806020018281038252602e815260200180611ca4602e913960400191505060405180910390fd5b600054610100900460ff16158015610389576000805460ff1961ff0019909116610100171660011790555b6103938383610a97565b80156103a5576000805461ff00191690555b505050565b6001546001600160a01b031681565b6020810151815160608301516000928392839283926001600160a01b03808216908416109284926103ea9290610b7b565b905086608001516001600160a01b03166000141561040b5760408701516002555b60005a9050816001600160a01b031663128acb08308561042e8c60400151610baa565b6000038c608001516001600160a01b0316600014610450578c60800151610476565b8761046f5773fffd8963efd1fc6a506488495d951d5263988d25610476565b6401000276a45b8d602001518e606001518f6000015160405160200161049793929190611a7e565b6040516020818303038152906040526040518663ffffffff1660e01b81526004016104c6959493929190611acd565b6040805180830381600087803b1580156104df57600080fd5b505af192505050801561050f575060408051601f3d908101601f1916820190925261050c91810190611881565b60015b610580573d80801561053d576040519150601f19603f3d011682016040523d82523d6000602084013e610542565b606091505b505a8203945088608001516001600160a01b0316600014156105645760006002555b61056f818487610bc0565b975097509750975050505050610586565b50505050505b9193509193565b6000546201000090046001600160a01b031681565b6020810151815160608301516000928392839283926001600160a01b03808216908416109284926105d39290610b7b565b905060005a9050816001600160a01b031663128acb0830856105f88c60400151610baa565b60808d01516001600160a01b031615610615578c6080015161063b565b876106345773fffd8963efd1fc6a506488495d951d5263988d2561063b565b6401000276a45b8d600001518e606001518f6020015160405160200161065c93929190611a7e565b6040516020818303038152906040526040518663ffffffff1660e01b815260040161068b959493929190611acd565b6040805180830381600087803b1580156106a457600080fd5b505af19250505080156106d4575060408051601f3d908101601f191682019092526106d191810190611881565b60015b610580573d808015610702576040519150601f19603f3d011682016040523d82523d6000602084013e610707565b606091505b505a8203945061056f818487610bc0565b6000606080600061072886610a1f565b67ffffffffffffffff8111801561073e57600080fd5b50604051908082528060200260200182016040528015610768578160200160208202803683370190505b50925061077486610a1f565b67ffffffffffffffff8111801561078a57600080fd5b506040519080825280602002602001820160405280156107b4578160200160208202803683370190505b50915060005b60008060006107c88a610a30565b9250925092506000806000806108246040518060a00160405280896001600160a01b03168152602001886001600160a01b031681526020018f81526020018762ffffff16815260200160006001600160a01b03168152506105a2565b9350935093509350828b898151811061083957fe5b60200260200101906001600160a01b031690816001600160a01b031681525050818a898151811061086657fe5b63ffffffff90921660209283029190910190910152929b50968201966001909601958b926108938e610a61565b156102d7576108a18e610a69565b9d50505050505050506107ba565b60008313806108be5750600082135b6108c757600080fd5b60008060006108d584610a30565b9250925092506108fc600060029054906101000a90046001600160a01b0316848484610c7a565b50600080600080891361092857856001600160a01b0316856001600160a01b031610888a600003610943565b846001600160a01b0316866001600160a01b03161089896000035b9250925092506000610956878787610b7b565b9050600080826001600160a01b0316633850c7bd6040518163ffffffff1660e01b815260040160e06040518083038186803b15801561099457600080fd5b505afa1580156109a8573d6000803e3d6000fd5b505050506040513d601f19601f820116820180604052508101906109cc919061197e565b50505050509150915085156109f257604051848152826020820152816040820152606081fd5b60025415610a08576002548414610a0857600080fd5b604051858152826020820152816040820152606081fd5b80516017601319909101045b919050565b60008080610a3e8482610c99565b9250610a4b846014610d49565b9050610a58846017610c99565b91509193909250565b516042111590565b8051606090610a8090839060179060161901610df0565b92915050565b6000610a9130610f41565b15905090565b600054610100900460ff1680610ab05750610ab0610a86565b80610abe575060005460ff16155b610af95760405162461bcd60e51b815260040180806020018281038252602e815260200180611ca4602e913960400191505060405180910390fd5b600054610100900460ff16158015610b24576000805460ff1961ff0019909116610100171660011790555b6000805462010000600160b01b031916620100006001600160a01b038681169190910291909117909155600180546001600160a01b03191691841691909117905580156103a5576000805461ff0019169055505050565b60008054610ba2906201000090046001600160a01b0316610b9d868686610f47565b610f9d565b949350505050565b6000600160ff1b8210610bbc57600080fd5b5090565b600080600080600080876001600160a01b0316633850c7bd6040518163ffffffff1660e01b815260040160e06040518083038186803b158015610c0257600080fd5b505afa158015610c16573d6000803e3d6000fd5b505050506040513d601f19601f82011682018060405250810190610c3a919061197e565b50939650610c4f94508d935061108192505050565b91975095509050610c6a6001600160a01b038916838361110e565b9350869250505093509350935093565b6000610c9085610c8b868686610f47565b611697565b95945050505050565b600081826014011015610ce8576040805162461bcd60e51b8152602060048201526012602482015271746f416464726573735f6f766572666c6f7760701b604482015290519081900360640190fd5b8160140183511015610d39576040805162461bcd60e51b8152602060048201526015602482015274746f416464726573735f6f75744f66426f756e647360581b604482015290519081900360640190fd5b500160200151600160601b900490565b600081826003011015610d97576040805162461bcd60e51b8152602060048201526011602482015270746f55696e7432345f6f766572666c6f7760781b604482015290519081900360640190fd5b8160030183511015610de7576040805162461bcd60e51b8152602060048201526014602482015273746f55696e7432345f6f75744f66426f756e647360601b604482015290519081900360640190fd5b50016003015190565b60608182601f011015610e3b576040805162461bcd60e51b815260206004820152600e60248201526d736c6963655f6f766572666c6f7760901b604482015290519081900360640190fd5b828284011015610e83576040805162461bcd60e51b815260206004820152600e60248201526d736c6963655f6f766572666c6f7760901b604482015290519081900360640190fd5b81830184511015610ecf576040805162461bcd60e51b8152602060048201526011602482015270736c6963655f6f75744f66426f756e647360781b604482015290519081900360640190fd5b606082158015610eee5760405191506000825260208201604052610f38565b6040519150601f8416801560200281840101858101878315602002848b0101015b81831015610f27578051835260209283019201610f0f565b5050858452601f01601f1916604052505b50949350505050565b3b151590565b610f4f6116d5565b826001600160a01b0316846001600160a01b03161115610f6d579192915b50604080516060810182526001600160a01b03948516815292909316602083015262ffffff169181019190915290565b600081602001516001600160a01b031682600001516001600160a01b031610610fc557600080fd5b50805160208083015160409384015184516001600160a01b0394851681850152939091168385015262ffffff166060808401919091528351808403820181526080840185528051908301206001600160f81b031960a085015294901b6bffffffffffffffffffffffff191660a183015260b58201939093527fe34f199b19b2b4f47f68442619d555527d244f78a3297ea89325f843f87b8b5460d5808301919091528251808303909101815260f5909101909152805191012090565b600080600083516060146110ed576044845110156110ba5760405162461bcd60e51b81526004016110b190611b26565b60405180910390fd5b600484019350838060200190518101906110d491906118f2565b60405162461bcd60e51b81526004016110b19190611b13565b838060200190518101906111019190611a15565b9250925092509193909250565b60008060008060008060008060088b6001600160a01b031663d0c93a7c6040518163ffffffff1660e01b815260040160206040518083038186803b15801561115557600080fd5b505afa158015611169573d6000803e3d6000fd5b505050506040513d602081101561117f57600080fd5b5051600290810b908c900b8161119157fe5b0560020b901d905060006101008c6001600160a01b031663d0c93a7c6040518163ffffffff1660e01b815260040160206040518083038186803b1580156111d757600080fd5b505afa1580156111eb573d6000803e3d6000fd5b505050506040513d602081101561120157600080fd5b5051600290810b908d900b8161121357fe5b0560020b8161121e57fe5b079050600060088d6001600160a01b031663d0c93a7c6040518163ffffffff1660e01b815260040160206040518083038186803b15801561125e57600080fd5b505afa158015611272573d6000803e3d6000fd5b505050506040513d602081101561128857600080fd5b5051600290810b908d900b8161129a57fe5b0560020b901d905060006101008e6001600160a01b031663d0c93a7c6040518163ffffffff1660e01b815260040160206040518083038186803b1580156112e057600080fd5b505afa1580156112f4573d6000803e3d6000fd5b505050506040513d602081101561130a57600080fd5b5051600290810b908e900b8161131c57fe5b0560020b8161132757fe5b07905060008160ff166001901b8f6001600160a01b0316635339c296856040518263ffffffff1660e01b8152600401808260010b815260200191505060206040518083038186803b15801561137b57600080fd5b505afa15801561138f573d6000803e3d6000fd5b505050506040513d60208110156113a557600080fd5b50511611801561142b57508d6001600160a01b031663d0c93a7c6040518163ffffffff1660e01b815260040160206040518083038186803b1580156113e957600080fd5b505afa1580156113fd573d6000803e3d6000fd5b505050506040513d602081101561141357600080fd5b5051600290810b908d900b8161142557fe5b0760020b155b801561143c57508b60020b8d60020b135b945060008360ff166001901b8f6001600160a01b0316635339c296876040518263ffffffff1660e01b8152600401808260010b815260200191505060206040518083038186803b15801561148f57600080fd5b505afa1580156114a3573d6000803e3d6000fd5b505050506040513d60208110156114b957600080fd5b50511611801561153f57508d6001600160a01b031663d0c93a7c6040518163ffffffff1660e01b815260040160206040518083038186803b1580156114fd57600080fd5b505afa158015611511573d6000803e3d6000fd5b505050506040513d602081101561152757600080fd5b5051600290810b908e900b8161153957fe5b0760020b155b801561155057508b60020b8d60020b125b95508160010b8460010b128061157c57508160010b8460010b14801561157c57508060ff168360ff1611155b156115925783995082975081985080965061159f565b8199508097508398508296505b505060001960ff87161b9150505b8560010b8760010b1361166f578560010b8760010b14156115d45760001960ff858103161c165b6000818c6001600160a01b0316635339c2968a6040518263ffffffff1660e01b8152600401808260010b815260200191505060206040518083038186803b15801561161e57600080fd5b505afa158015611632573d6000803e3d6000fd5b505050506040513d602081101561164857600080fd5b5051169050611656816116ba565b61ffff16989098019750506001909501946000196115ad565b811561167c576001880397505b8215611689576001880397505b505050505050509392505050565b60006116a38383610f9d565b9050336001600160a01b03821614610a8057600080fd5b6000805b8215610a80576000198301909216916001016116be565b604080516060810182526000808252602082018190529181019190915290565b600082601f830112611705578081fd5b813561171861171382611c39565b611c15565b81815284602083860101111561172c578283fd5b816020850160208301379081016020019190915292915050565b8051600281900b8114610a2b57600080fd5b600060a08284031215611769578081fd5b60405160a0810181811067ffffffffffffffff8211171561178657fe5b604052905080823561179781611c8b565b815260208301356117a781611c8b565b602082015260408381013590820152606083013562ffffff811681146117cc57600080fd5b60608201526117dd608084016117e9565b60808201525092915050565b8035610a2b81611c8b565b805161ffff81168114610a2b57600080fd5b60008060408385031215611818578182fd5b823561182381611c8b565b9150602083013561183381611c8b565b809150509250929050565b60008060408385031215611850578182fd5b823567ffffffffffffffff811115611866578283fd5b611872858286016116f5565b95602094909401359450505050565b60008060408385031215611893578182fd5b505080516020909101519092909150565b6000806000606084860312156118b8578081fd5b8335925060208401359150604084013567ffffffffffffffff8111156118dc578182fd5b6118e8868287016116f5565b9150509250925092565b600060208284031215611903578081fd5b815167ffffffffffffffff811115611919578182fd5b8201601f81018413611929578182fd5b805161193761171382611c39565b81815285602083850101111561194b578384fd5b610c90826020830160208601611c5b565b600060a0828403121561196d578081fd5b6119778383611758565b9392505050565b600080600080600080600060e0888a031215611998578485fd5b87516119a381611c8b565b96506119b160208901611746565b95506119bf604089016117f4565b94506119cd606089016117f4565b93506119db608089016117f4565b925060a088015160ff811681146119f0578283fd5b60c08901519092508015158114611a05578182fd5b8091505092959891949750929550565b600080600060608486031215611a29578081fd5b835192506020840151611a3b81611c8b565b9150611a4960408501611746565b90509250925092565b60008151808452611a6a816020860160208601611c5b565b601f01601f19169290920160200192915050565b606093841b6bffffffffffffffffffffffff19908116825260e89390931b6001600160e81b0319166014820152921b166017820152602b0190565b6001600160a01b0391909116815260200190565b6001600160a01b0386811682528515156020830152604082018590528316606082015260a060808201819052600090611b0890830184611a52565b979650505050505050565b6000602082526119776020830184611a52565b60208082526010908201526f2ab732bc3832b1ba32b21032b93937b960811b604082015260600190565b600060808201868352602060808185015281875180845260a0860191508289019350845b81811015611b995784516001600160a01b031683529383019391830191600101611b74565b505084810360408601528651808252908201925081870190845b81811015611bd557825163ffffffff1685529383019391830191600101611bb3565b5050505060609290920192909252949350505050565b9384526001600160a01b0392909216602084015263ffffffff166040830152606082015260800190565b60405181810167ffffffffffffffff81118282101715611c3157fe5b604052919050565b600067ffffffffffffffff821115611c4d57fe5b50601f01601f191660200190565b60005b83811015611c76578181015183820152602001611c5e565b83811115611c85576000848401525b50505050565b6001600160a01b0381168114611ca057600080fd5b5056fe496e697469616c697a61626c653a20636f6e747261637420697320616c726561647920696e697469616c697a6564a164736f6c6343000706000a",
  "linkReferences": {},
  "deployedLinkReferences": {}
}