{
  "_format": "hh-sol-artifact-1",
  "contractName": "NonfungibleTokenPositionDescriptor",
  "sourceName": "contracts/NonfungibleTokenPositionDescriptor.sol",
  "abi": [
    {
      "inputs": [],
      "name": "WETH9",
      "outputs": [
        {
          "internalType": "address",
          "name": "",
          "type": "address"
        }
      ],
      "stateMutability": "view",
      "type": "function"
    },
    {
      "inputs": [
        {
          "internalType": "address",
          "name": "token0",
          "type": "address"
        },
        {
          "internalType": "address",
          "name": "token1",
          "type": "address"
        },
        {
          "internalType": "uint256",
          "name": "chainId",
          "type": "uint256"
        }
      ],
      "name": "flipRatio",
      "outputs": [
        {
          "internalType": "bool",
          "name": "",
          "type": "bool"
        }
      ],
      "stateMutability": "view",
      "type": "function"
    },
    {
      "inputs": [
        {
          "internalType": "address",
          "name": "_WETH9",
          "type": "address"
        },
        {
          "internalType": "bytes32",
          "name": "_nativeCurrencyLabelBytes",
          "type": "bytes32"
        }
      ],
      "name": "initialize",
      "outputs": [],
      "stateMutability": "nonpayable",
      "type": "function"
    },
    {
      "inputs": [],
      "name": "nativeCurrencyLabel",
      "outputs": [
        {
          "internalType": "string",
          "name": "",
          "type": "string"
        }
      ],
      "stateMutability": "view",
      "type": "function"
    },
    {
      "inputs": [],
      "name": "nativeCurrencyLabelBytes",
      "outputs": [
        {
          "internalType": "bytes32",
          "name": "",
          "type": "bytes32"
        }
      ],
      "stateMutability": "view",
      "type": "function"
    },
    {
      "inputs": [
        {
          "internalType": "address",
          "name": "token",
          "type": "address"
        },
        {
          "internalType": "uint256",
          "name": "chainId",
          "type": "uint256"
        }
      ],
      "name": "tokenRatioPriority",
      "outputs": [
        {
          "internalType": "int256",
          "name": "",
          "type": "int256"
        }
      ],
      "stateMutability": "view",
      "type": "function"
    },
    {
      "inputs": [
        {
          "internalType": "contract INonfungiblePositionManager",
          "name": "positionManager",
          "type": "address"
        },
        {
          "internalType": "uint256",
          "name": "tokenId",
          "type": "uint256"
        }
      ],
      "name": "tokenURI",
      "outputs": [
        {
          "internalType": "string",
          "name": "",
          "type": "string"
        }
      ],
      "stateMutability": "view",
      "type": "function"
    }
  ],
  "bytecode": "0x608060405234801561001057600080fd5b50611499806100206000396000f3fe608060405234801561001057600080fd5b506004361061007d5760003560e01c8063a18246e21161005b578063a18246e2146100e0578063b7af3cdc146100e8578063be13f47c146100fd578063e9dc6375146101125761007d565b80634aa4a4fc146100825780637e5af771146100a05780639d7b0ea8146100c0575b600080fd5b61008a610125565b60405161009791906112bd565b60405180910390f35b6100b36100ae366004610fc3565b61013a565b60405161009791906112d1565b6100d36100ce366004611003565b610159565b60405161009791906112dc565b6100d361027f565b6100f0610285565b60405161009791906112e5565b61011061010b366004611003565b610357565b005b6100f0610120366004611003565b610422565b6000546201000090046001600160a01b031681565b60006101468383610159565b6101508584610159565b13949350505050565b600080546001600160a01b038481166201000090920416141561017f5750606319610279565b8160011415610275576001600160a01b03831673a0b86991c6218b36c1d19d4a2e9eb0ce3606eb4814156101b6575061012c610279565b6001600160a01b03831673dac17f958d2ee523a2206206994597c13d831ec714156101e3575060c8610279565b6001600160a01b038316736b175474e89094c44da98b954eedeac495271d0f141561021057506064610279565b6001600160a01b038316738daebade922df735c38c80c7ebd708af50815faa141561023e575060c719610279565b6001600160a01b038316732260fac5e5542a773aa44fbcfedf7c193bc2c599141561026d575061012b19610279565b506000610279565b5060005b92915050565b60015481565b606060005b6020811080156102b4575060015481602081106102a357fe5b1a60f81b6001600160f81b03191615155b156102c15760010161028a565b60008167ffffffffffffffff811180156102da57600080fd5b506040519080825280601f01601f191660200182016040528015610305576020820181803683370190505b50905060005b8281101561035057600154816020811061032157fe5b1a60f81b82828151811061033157fe5b60200101906001600160f81b031916908160001a90535060010161030b565b5091505090565b600054610100900460ff1680610370575061037061090c565b8061037e575060005460ff16155b6103b95760405162461bcd60e51b815260040180806020018281038252602e81526020018061145f602e913960400191505060405180910390fd5b600054610100900460ff161580156103e4576000805460ff1961ff0019909116610100171660011790555b6000805462010000600160b01b031916620100006001600160a01b038616021790556001829055801561041d576000805461ff00191690555b505050565b60606000806000806000876001600160a01b03166399fbab88886040518263ffffffff1660e01b815260040161045891906112dc565b6101806040518083038186803b15801561047157600080fd5b505afa158015610485573d6000803e3d6000fd5b505050506040513d601f19601f820116820180604052508101906104a99190611188565b50505050509650965096509650965050506000610567896001600160a01b031663c45a01556040518163ffffffff1660e01b815260040160206040518083038186803b1580156104f857600080fd5b505afa15801561050c573d6000803e3d6000fd5b505050506040513d601f19601f820116820180604052508101906105309190610fa0565b6040518060600160405280896001600160a01b03168152602001886001600160a01b031681526020018762ffffff1681525061091d565b9050600061057887876100ae610a01565b905060008115610588578761058a565b865b90506000821561059a578761059c565b885b90506000846001600160a01b0316633850c7bd6040518163ffffffff1660e01b815260040160e06040518083038186803b1580156105d957600080fd5b505afa1580156105ed573d6000803e3d6000fd5b505050506040513d601f19601f8201168201806040525081019061061191906110df565b505050505091505073__$cea9be979eee3d87fb124d6cbb244bb0b5$__63c49917d7604051806101c001604052808f8152602001866001600160a01b03168152602001856001600160a01b03168152602001600060029054906101000a90046001600160a01b03166001600160a01b0316876001600160a01b03161461069f5761069a87610a05565b6106a7565b6106a7610285565b81526000546020909101906001600160a01b038781166201000090920416146106d8576106d386610a05565b6106e0565b6106e0610285565b8152602001866001600160a01b031663313ce5676040518163ffffffff1660e01b815260040160206040518083038186803b15801561071e57600080fd5b505afa158015610732573d6000803e3d6000fd5b505050506040513d601f19601f82011682018060405250810190610756919061116e565b60ff168152602001856001600160a01b031663313ce5676040518163ffffffff1660e01b815260040160206040518083038186803b15801561079757600080fd5b505afa1580156107ab573d6000803e3d6000fd5b505050506040513d601f19601f820116820180604052508101906107cf919061116e565b60ff16815260200187151581526020018a60020b81526020018960020b81526020018460020b8152602001886001600160a01b031663d0c93a7c6040518163ffffffff1660e01b815260040160206040518083038186803b15801561083357600080fd5b505afa158015610847573d6000803e3d6000fd5b505050506040513d601f19601f8201168201806040525081019061086b919061102e565b60020b81526020018b62ffffff168152602001886001600160a01b03168152506040518263ffffffff1660e01b81526004016108a791906112f8565b60006040518083038186803b1580156108bf57600080fd5b505af41580156108d3573d6000803e3d6000fd5b505050506040513d6000823e601f3d908101601f191682016040526108fb9190810190611048565b9d9c50505050505050505050505050565b600061091730610a3f565b15905090565b600081602001516001600160a01b031682600001516001600160a01b03161061094557600080fd5b50805160208083015160409384015184516001600160a01b0394851681850152939091168385015262ffffff166060808401919091528351808403820181526080840185528051908301206001600160f81b031960a085015294901b6bffffffffffffffffffffffff191660a183015260b58201939093527fe34f199b19b2b4f47f68442619d555527d244f78a3297ea89325f843f87b8b5460d5808301919091528251808303909101815260f5909101909152805191012090565b4690565b60606000610a1a836395d89b4160e01b610a45565b9050805160001415610a3757610a2f83610c6d565b915050610a3a565b90505b919050565b3b151590565b60408051600481526024810182526020810180516001600160e01b03166001600160e01b031985161781529151815160609360009384936001600160a01b03891693919290918291908083835b60208310610ab15780518252601f199092019160209182019101610a92565b6001836020036101000a038019825116818451168082178552505050505050905001915050600060405180830381855afa9150503d8060008114610b11576040519150601f19603f3d011682016040523d82523d6000602084013e610b16565b606091505b5091509150811580610b2757508051155b15610b45576040518060200160405280600081525092505050610279565b805160201415610b7d576000818060200190516020811015610b6657600080fd5b50519050610b7381610c7a565b9350505050610279565b604081511115610c5557808060200190516020811015610b9c57600080fd5b8101908080516040519392919084640100000000821115610bbc57600080fd5b908301906020820185811115610bd157600080fd5b8251640100000000811182820188101715610beb57600080fd5b82525081516020918201929091019080838360005b83811015610c18578181015183820152602001610c00565b50505050905090810190601f168015610c455780820380516001836020036101000a031916815260200191505b5060405250505092505050610279565b50506040805160208101909152600081529392505050565b6060610a37826006610da2565b604080516020808252818301909252606091600091906020820181803683370190505090506000805b6020811015610d04576000858260208110610cba57fe5b1a60f81b90506001600160f81b0319811615610cfb5780848481518110610cdd57fe5b60200101906001600160f81b031916908160001a9053506001909201915b50600101610ca3565b5060008167ffffffffffffffff81118015610d1e57600080fd5b506040519080825280601f01601f191660200182016040528015610d49576020820181803683370190505b50905060005b82811015610d9957838181518110610d6357fe5b602001015160f81c60f81b828281518110610d7a57fe5b60200101906001600160f81b031916908160001a905350600101610d4f565b50949350505050565b606060028206158015610db55750600082115b8015610dc2575060288211155b610e13576040805162461bcd60e51b815260206004820152601e60248201527f41646472657373537472696e675574696c3a20494e56414c49445f4c454e0000604482015290519081900360640190fd5b60008267ffffffffffffffff81118015610e2c57600080fd5b506040519080825280601f01601f191660200182016040528015610e57576020820181803683370190505b5090506001600160a01b03841660005b60028504811015610efb57600860138290030282901c600f600482901c1660f082168203610e9482610f05565b868560020281518110610ea357fe5b60200101906001600160f81b031916908160001a905350610ec381610f05565b868560020260010181518110610ed557fe5b60200101906001600160f81b031916908160001a9053505060019092019150610e679050565b5090949350505050565b6000600a8260ff161015610f2057506030810160f81b610a3a565b506037810160f81b610a3a565b8051610a3a81611446565b8051600281900b8114610a3a57600080fd5b80516fffffffffffffffffffffffffffffffff81168114610a3a57600080fd5b805161ffff81168114610a3a57600080fd5b805162ffffff81168114610a3a57600080fd5b805160ff81168114610a3a57600080fd5b600060208284031215610fb1578081fd5b8151610fbc81611446565b9392505050565b600080600060608486031215610fd7578182fd5b8335610fe281611446565b92506020840135610ff281611446565b929592945050506040919091013590565b60008060408385031215611015578182fd5b823561102081611446565b946020939093013593505050565b60006020828403121561103f578081fd5b610fbc82610f38565b600060208284031215611059578081fd5b815167ffffffffffffffff80821115611070578283fd5b818401915084601f830112611083578283fd5b81518181111561108f57fe5b604051601f8201601f1916810160200183811182821017156110ad57fe5b6040528181528382016020018710156110c4578485fd5b6110d5826020830160208701611416565b9695505050505050565b600080600080600080600060e0888a0312156110f9578283fd5b875161110481611446565b965061111260208901610f38565b955061112060408901610f6a565b945061112e60608901610f6a565b935061113c60808901610f6a565b925061114a60a08901610f8f565b915060c0880151801515811461115e578182fd5b8091505092959891949750929550565b60006020828403121561117f578081fd5b610fbc82610f8f565b6000806000806000806000806000806000806101808d8f0312156111aa578586fd5b8c516bffffffffffffffffffffffff811681146111c5578687fd5b9b506111d360208e01610f2d565b9a506111e160408e01610f2d565b99506111ef60608e01610f2d565b98506111fd60808e01610f7c565b975061120b60a08e01610f38565b965061121960c08e01610f38565b955061122760e08e01610f4a565b94506101008d015193506101208d015192506112466101408e01610f4a565b91506112556101608e01610f4a565b90509295989b509295989b509295989b565b6001600160a01b03169052565b15159052565b60020b9052565b60008151808452611299816020860160208601611416565b601f01601f19169290920160200192915050565b62ffffff169052565b60ff169052565b6001600160a01b0391909116815260200190565b901515815260200190565b90815260200190565b600060208252610fbc6020830184611281565b6000602082528251602083015260208301516113176040840182611267565b50604083015161132a6060840182611267565b5060608301516101c08060808501526113476101e0850183611281565b91506080850151601f198584030160a08601526113648382611281565b92505060a085015161137960c08601826112b6565b5060c085015161138c60e08601826112b6565b5060e08501516101006113a181870183611274565b86015190506101206113b58682018361127a565b86015190506101406113c98682018361127a565b86015190506101606113dd8682018361127a565b86015190506101806113f18682018361127a565b86015190506101a0611405868201836112ad565b8601519050610efb85830182611267565b60005b83811015611431578181015183820152602001611419565b83811115611440576000848401525b50505050565b6001600160a01b038116811461145b57600080fd5b5056fe496e697469616c697a61626c653a20636f6e747261637420697320616c726561647920696e697469616c697a6564a164736f6c6343000706000a",
  "linkReferences": {
    "contracts/libraries/NFTDescriptor.sol": {
      "NFTDescriptor": [
        {
          "length": 20,
          "start": 1595
        }
      ]
    }
  },
  "deployedLinkReferences": {
    "contracts/libraries/NFTDescriptor.sol": {
      "NFTDescriptor": [
        {
          "length": 20,
          "start": 1563
        }
      ]
    }
  }
}