{
  "_format": "hh-sol-artifact-1",
  "contractName": "NonfungibleTokenPositionDescriptor",
  "sourceName": "contracts/NonfungibleTokenPositionDescriptor.sol",
  "abi": [
    {
      "inputs": [],
      "name": "WETH9",
      "outputs": [
        {
          "internalType": "address",
          "name": "",
          "type": "address"
        }
      ],
      "stateMutability": "view",
      "type": "function"
    },
    {
      "inputs": [
        {
          "internalType": "address",
          "name": "token0",
          "type": "address"
        },
        {
          "internalType": "address",
          "name": "token1",
          "type": "address"
        },
        {
          "internalType": "uint256",
          "name": "chainId",
          "type": "uint256"
        }
      ],
      "name": "flipRatio",
      "outputs": [
        {
          "internalType": "bool",
          "name": "",
          "type": "bool"
        }
      ],
      "stateMutability": "view",
      "type": "function"
    },
    {
      "inputs": [
        {
          "internalType": "address",
          "name": "_WETH9",
          "type": "address"
        },
        {
          "internalType": "bytes32",
          "name": "_nativeCurrencyLabelBytes",
          "type": "bytes32"
        }
      ],
      "name": "initialize",
      "outputs": [],
      "stateMutability": "nonpayable",
      "type": "function"
    },
    {
      "inputs": [],
      "name": "nativeCurrencyLabel",
      "outputs": [
        {
          "internalType": "string",
          "name": "",
          "type": "string"
        }
      ],
      "stateMutability": "view",
      "type": "function"
    },
    {
      "inputs": [],
      "name": "nativeCurrencyLabelBytes",
      "outputs": [
        {
          "internalType": "bytes32",
          "name": "",
          "type": "bytes32"
        }
      ],
      "stateMutability": "view",
      "type": "function"
    },
    {
      "inputs": [
        {
          "internalType": "address",
          "name": "token",
          "type": "address"
        },
        {
          "internalType": "uint256",
          "name": "chainId",
          "type": "uint256"
        }
      ],
      "name": "tokenRatioPriority",
      "outputs": [
        {
          "internalType": "int256",
          "name": "",
          "type": "int256"
        }
      ],
      "stateMutability": "view",
      "type": "function"
    },
    {
      "inputs": [
        {
          "internalType": "contract INonfungiblePositionManager",
          "name": "positionManager",
          "type": "address"
        },
        {
          "internalType": "uint256",
          "name": "tokenId",
          "type": "uint256"
        }
      ],
      "name": "tokenURI",
      "outputs": [
        {
          "internalType": "string",
          "name": "",
          "type": "string"
        }
      ],
      "stateMutability": "view",
      "type": "function"
    }
  ],
  "bytecode": "0x608060405234801561001057600080fd5b5061153d806100206000396000f3fe608060405234801561001057600080fd5b506004361061007d5760003560e01c8063a18246e21161005b578063a18246e2146100e0578063b7af3cdc146100e8578063be13f47c146100fd578063e9dc6375146101125761007d565b80634aa4a4fc146100825780637e5af771146100a05780639d7b0ea8146100c0575b600080fd5b61008a610125565b6040516100979190611361565b60405180910390f35b6100b36100ae366004611067565b61013a565b6040516100979190611375565b6100d36100ce3660046110a7565b610159565b6040516100979190611380565b6100d361027f565b6100f0610285565b6040516100979190611389565b61011061010b3660046110a7565b61036f565b005b6100f06101203660046110a7565b610450565b6000546201000090046001600160a01b031681565b60006101468383610159565b6101508584610159565b13949350505050565b600080546001600160a01b038481166201000090920416141561017f5750606319610279565b8160011415610275576001600160a01b03831673a0b86991c6218b36c1d19d4a2e9eb0ce3606eb4814156101b6575061012c610279565b6001600160a01b03831673dac17f958d2ee523a2206206994597c13d831ec714156101e3575060c8610279565b6001600160a01b038316736b175474e89094c44da98b954eedeac495271d0f141561021057506064610279565b6001600160a01b038316738daebade922df735c38c80c7ebd708af50815faa141561023e575060c719610279565b6001600160a01b038316732260fac5e5542a773aa44fbcfedf7c193bc2c599141561026d575061012b19610279565b506000610279565b5060005b92915050565b60015481565b606060005b6020811080156102cc575060015481602081106102a357fe5b1a60f81b7fff000000000000000000000000000000000000000000000000000000000000001615155b156102d95760010161028a565b60008167ffffffffffffffff811180156102f257600080fd5b506040519080825280601f01601f19166020018201604052801561031d576020820181803683370190505b50905060005b8281101561036857600154816020811061033957fe5b1a60f81b82828151811061034957fe5b60200101906001600160f81b031916908160001a905350600101610323565b5091505090565b600054610100900460ff1680610388575061038861093a565b80610396575060005460ff16155b6103d15760405162461bcd60e51b815260040180806020018281038252602e815260200180611503602e913960400191505060405180910390fd5b600054610100900460ff161580156103fc576000805460ff1961ff0019909116610100171660011790555b600080547fffffffffffffffffffff0000000000000000000000000000000000000000ffff16620100006001600160a01b038616021790556001829055801561044b576000805461ff00191690555b505050565b60606000806000806000876001600160a01b03166399fbab88886040518263ffffffff1660e01b81526004016104869190611380565b6101806040518083038186803b15801561049f57600080fd5b505afa1580156104b3573d6000803e3d6000fd5b505050506040513d601f19601f820116820180604052508101906104d7919061122c565b50505050509650965096509650965050506000610595896001600160a01b031663c45a01556040518163ffffffff1660e01b815260040160206040518083038186803b15801561052657600080fd5b505afa15801561053a573d6000803e3d6000fd5b505050506040513d601f19601f8201168201806040525081019061055e9190611044565b6040518060600160405280896001600160a01b03168152602001886001600160a01b031681526020018762ffffff1681525061094b565b905060006105a687876100ae610a47565b9050600081156105b657876105b8565b865b9050600082156105c857876105ca565b885b90506000846001600160a01b0316633850c7bd6040518163ffffffff1660e01b815260040160e06040518083038186803b15801561060757600080fd5b505afa15801561061b573d6000803e3d6000fd5b505050506040513d601f19601f8201168201806040525081019061063f9190611183565b505050505091505073__$cea9be979eee3d87fb124d6cbb244bb0b5$__63c49917d7604051806101c001604052808f8152602001866001600160a01b03168152602001856001600160a01b03168152602001600060029054906101000a90046001600160a01b03166001600160a01b0316876001600160a01b0316146106cd576106c887610a4b565b6106d5565b6106d5610285565b81526000546020909101906001600160a01b038781166201000090920416146107065761070186610a4b565b61070e565b61070e610285565b8152602001866001600160a01b031663313ce5676040518163ffffffff1660e01b815260040160206040518083038186803b15801561074c57600080fd5b505afa158015610760573d6000803e3d6000fd5b505050506040513d601f19601f820116820180604052508101906107849190611212565b60ff168152602001856001600160a01b031663313ce5676040518163ffffffff1660e01b815260040160206040518083038186803b1580156107c557600080fd5b505afa1580156107d9573d6000803e3d6000fd5b505050506040513d601f19601f820116820180604052508101906107fd9190611212565b60ff16815260200187151581526020018a60020b81526020018960020b81526020018460020b8152602001886001600160a01b031663d0c93a7c6040518163ffffffff1660e01b815260040160206040518083038186803b15801561086157600080fd5b505afa158015610875573d6000803e3d6000fd5b505050506040513d601f19601f8201168201806040525081019061089991906110d2565b60020b81526020018b62ffffff168152602001886001600160a01b03168152506040518263ffffffff1660e01b81526004016108d5919061139c565b60006040518083038186803b1580156108ed57600080fd5b505af4158015610901573d6000803e3d6000fd5b505050506040513d6000823e601f3d908101601f1916820160405261092991908101906110ec565b9d9c50505050505050505050505050565b600061094530610a9e565b15905090565b600081602001516001600160a01b031682600001516001600160a01b03161061097357600080fd5b50805160208083015160409384015184516001600160a01b0394851681850152939091168385015262ffffff166060808401919091528351808403820181526080840185528051908301207fff0000000000000000000000000000000000000000000000000000000000000060a085015294901b6bffffffffffffffffffffffff191660a183015260b58201939093527fe34f199b19b2b4f47f68442619d555527d244f78a3297ea89325f843f87b8b5460d5808301919091528251808303909101815260f5909101909152805191012090565b4690565b60606000610a79837f95d89b4100000000000000000000000000000000000000000000000000000000610aa4565b9050805160001415610a9657610a8e83610cf9565b915050610a99565b90505b919050565b3b151590565b60408051600481526024810182526020810180517bffffffffffffffffffffffffffffffffffffffffffffffffffffffff167fffffffff0000000000000000000000000000000000000000000000000000000085161781529151815160609360009384936001600160a01b03891693919290918291908083835b60208310610b3d5780518252601f199092019160209182019101610b1e565b6001836020036101000a038019825116818451168082178552505050505050905001915050600060405180830381855afa9150503d8060008114610b9d576040519150601f19603f3d011682016040523d82523d6000602084013e610ba2565b606091505b5091509150811580610bb357508051155b15610bd1576040518060200160405280600081525092505050610279565b805160201415610c09576000818060200190516020811015610bf257600080fd5b50519050610bff81610d06565b9350505050610279565b604081511115610ce157808060200190516020811015610c2857600080fd5b8101908080516040519392919084640100000000821115610c4857600080fd5b908301906020820185811115610c5d57600080fd5b8251640100000000811182820188101715610c7757600080fd5b82525081516020918201929091019080838360005b83811015610ca4578181015183820152602001610c8c565b50505050905090810190601f168015610cd15780820380516001836020036101000a031916815260200191505b5060405250505092505050610279565b50506040805160208101909152600081529392505050565b6060610a96826006610e46565b604080516020808252818301909252606091600091906020820181803683370190505090506000805b6020811015610da8576000858260208110610d4657fe5b1a60f81b90507fff00000000000000000000000000000000000000000000000000000000000000811615610d9f5780848481518110610d8157fe5b60200101906001600160f81b031916908160001a9053506001909201915b50600101610d2f565b5060008167ffffffffffffffff81118015610dc257600080fd5b506040519080825280601f01601f191660200182016040528015610ded576020820181803683370190505b50905060005b82811015610e3d57838181518110610e0757fe5b602001015160f81c60f81b828281518110610e1e57fe5b60200101906001600160f81b031916908160001a905350600101610df3565b50949350505050565b606060028206158015610e595750600082115b8015610e66575060288211155b610eb7576040805162461bcd60e51b815260206004820152601e60248201527f41646472657373537472696e675574696c3a20494e56414c49445f4c454e0000604482015290519081900360640190fd5b60008267ffffffffffffffff81118015610ed057600080fd5b506040519080825280601f01601f191660200182016040528015610efb576020820181803683370190505b5090506001600160a01b03841660005b60028504811015610f9f57600860138290030282901c600f600482901c1660f082168203610f3882610fa9565b868560020281518110610f4757fe5b60200101906001600160f81b031916908160001a905350610f6781610fa9565b868560020260010181518110610f7957fe5b60200101906001600160f81b031916908160001a9053505060019092019150610f0b9050565b5090949350505050565b6000600a8260ff161015610fc457506030810160f81b610a99565b506037810160f81b610a99565b8051610a99816114ea565b8051600281900b8114610a9957600080fd5b80516fffffffffffffffffffffffffffffffff81168114610a9957600080fd5b805161ffff81168114610a9957600080fd5b805162ffffff81168114610a9957600080fd5b805160ff81168114610a9957600080fd5b600060208284031215611055578081fd5b8151611060816114ea565b9392505050565b60008060006060848603121561107b578182fd5b8335611086816114ea565b92506020840135611096816114ea565b929592945050506040919091013590565b600080604083850312156110b9578182fd5b82356110c4816114ea565b946020939093013593505050565b6000602082840312156110e3578081fd5b61106082610fdc565b6000602082840312156110fd578081fd5b815167ffffffffffffffff80821115611114578283fd5b818401915084601f830112611127578283fd5b81518181111561113357fe5b604051601f8201601f19168101602001838111828210171561115157fe5b604052818152838201602001871015611168578485fd5b6111798260208301602087016114ba565b9695505050505050565b600080600080600080600060e0888a03121561119d578283fd5b87516111a8816114ea565b96506111b660208901610fdc565b95506111c46040890161100e565b94506111d26060890161100e565b93506111e06080890161100e565b92506111ee60a08901611033565b915060c08801518015158114611202578182fd5b8091505092959891949750929550565b600060208284031215611223578081fd5b61106082611033565b6000806000806000806000806000806000806101808d8f03121561124e578586fd5b8c516bffffffffffffffffffffffff81168114611269578687fd5b9b5061127760208e01610fd1565b9a5061128560408e01610fd1565b995061129360608e01610fd1565b98506112a160808e01611020565b97506112af60a08e01610fdc565b96506112bd60c08e01610fdc565b95506112cb60e08e01610fee565b94506101008d015193506101208d015192506112ea6101408e01610fee565b91506112f96101608e01610fee565b90509295989b509295989b509295989b565b6001600160a01b03169052565b15159052565b60020b9052565b6000815180845261133d8160208601602086016114ba565b601f01601f19169290920160200192915050565b62ffffff169052565b60ff169052565b6001600160a01b0391909116815260200190565b901515815260200190565b90815260200190565b6000602082526110606020830184611325565b6000602082528251602083015260208301516113bb604084018261130b565b5060408301516113ce606084018261130b565b5060608301516101c08060808501526113eb6101e0850183611325565b91506080850151601f198584030160a08601526114088382611325565b92505060a085015161141d60c086018261135a565b5060c085015161143060e086018261135a565b5060e085015161010061144581870183611318565b86015190506101206114598682018361131e565b860151905061014061146d8682018361131e565b86015190506101606114818682018361131e565b86015190506101806114958682018361131e565b86015190506101a06114a986820183611351565b8601519050610f9f8583018261130b565b60005b838110156114d55781810151838201526020016114bd565b838111156114e4576000848401525b50505050565b6001600160a01b03811681146114ff57600080fd5b5056fe496e697469616c697a61626c653a20636f6e747261637420697320616c726561647920696e697469616c697a6564a164736f6c6343000706000a",
  "linkReferences": {
    "contracts/libraries/NFTDescriptor.sol": {
      "NFTDescriptor": [
        {
          "length": 20,
          "start": 1641
        }
      ]
    }
  },
  "deployedLinkReferences": {
    "contracts/libraries/NFTDescriptor.sol": {
      "NFTDescriptor": [
        {
          "length": 20,
          "start": 1609
        }
      ]
    }
  }
}