{
  "_format": "hh-sol-artifact-1",
  "contractName": "QuoterV2",
  "sourceName": "contracts/lens/QuoterV2.sol",
  "abi": [
    {
      "inputs": [],
      "name": "WETH9",
      "outputs": [
        {
          "internalType": "address",
          "name": "",
          "type": "address"
        }
      ],
      "stateMutability": "view",
      "type": "function"
    },
    {
      "inputs": [],
      "name": "factory",
      "outputs": [
        {
          "internalType": "address",
          "name": "",
          "type": "address"
        }
      ],
      "stateMutability": "view",
      "type": "function"
    },
    {
      "inputs": [
        {
          "internalType": "address",
          "name": "_factory",
          "type": "address"
        },
        {
          "internalType": "address",
          "name": "_WETH9",
          "type": "address"
        }
      ],
      "name": "initialize",
      "outputs": [],
      "stateMutability": "nonpayable",
      "type": "function"
    },
    {
      "inputs": [
        {
          "internalType": "bytes",
          "name": "path",
          "type": "bytes"
        },
        {
          "internalType": "uint256",
          "name": "amountIn",
          "type": "uint256"
        }
      ],
      "name": "quoteExactInput",
      "outputs": [
        {
          "internalType": "uint256",
          "name": "amountOut",
          "type": "uint256"
        },
        {
          "internalType": "uint160[]",
          "name": "sqrtPriceX96AfterList",
          "type": "uint160[]"
        },
        {
          "internalType": "uint32[]",
          "name": "initializedTicksCrossedList",
          "type": "uint32[]"
        },
        {
          "internalType": "uint256",
          "name": "gasEstimate",
          "type": "uint256"
        }
      ],
      "stateMutability": "nonpayable",
      "type": "function"
    },
    {
      "inputs": [
        {
          "components": [
            {
              "internalType": "address",
              "name": "tokenIn",
              "type": "address"
            },
            {
              "internalType": "address",
              "name": "tokenOut",
              "type": "address"
            },
            {
              "internalType": "uint256",
              "name": "amountIn",
              "type": "uint256"
            },
            {
              "internalType": "uint24",
              "name": "fee",
              "type": "uint24"
            },
            {
              "internalType": "uint160",
              "name": "sqrtPriceLimitX96",
              "type": "uint160"
            }
          ],
          "internalType": "struct IQuoterV2.QuoteExactInputSingleParams",
          "name": "params",
          "type": "tuple"
        }
      ],
      "name": "quoteExactInputSingle",
      "outputs": [
        {
          "internalType": "uint256",
          "name": "amountOut",
          "type": "uint256"
        },
        {
          "internalType": "uint160",
          "name": "sqrtPriceX96After",
          "type": "uint160"
        },
        {
          "internalType": "uint32",
          "name": "initializedTicksCrossed",
          "type": "uint32"
        },
        {
          "internalType": "uint256",
          "name": "gasEstimate",
          "type": "uint256"
        }
      ],
      "stateMutability": "nonpayable",
      "type": "function"
    },
    {
      "inputs": [
        {
          "internalType": "bytes",
          "name": "path",
          "type": "bytes"
        },
        {
          "internalType": "uint256",
          "name": "amountOut",
          "type": "uint256"
        }
      ],
      "name": "quoteExactOutput",
      "outputs": [
        {
          "internalType": "uint256",
          "name": "amountIn",
          "type": "uint256"
        },
        {
          "internalType": "uint160[]",
          "name": "sqrtPriceX96AfterList",
          "type": "uint160[]"
        },
        {
          "internalType": "uint32[]",
          "name": "initializedTicksCrossedList",
          "type": "uint32[]"
        },
        {
          "internalType": "uint256",
          "name": "gasEstimate",
          "type": "uint256"
        }
      ],
      "stateMutability": "nonpayable",
      "type": "function"
    },
    {
      "inputs": [
        {
          "components": [
            {
              "internalType": "address",
              "name": "tokenIn",
              "type": "address"
            },
            {
              "internalType": "address",
              "name": "tokenOut",
              "type": "address"
            },
            {
              "internalType": "uint256",
              "name": "amount",
              "type": "uint256"
            },
            {
              "internalType": "uint24",
              "name": "fee",
              "type": "uint24"
            },
            {
              "internalType": "uint160",
              "name": "sqrtPriceLimitX96",
              "type": "uint160"
            }
          ],
          "internalType": "struct IQuoterV2.QuoteExactOutputSingleParams",
          "name": "params",
          "type": "tuple"
        }
      ],
      "name": "quoteExactOutputSingle",
      "outputs": [
        {
          "internalType": "uint256",
          "name": "amountIn",
          "type": "uint256"
        },
        {
          "internalType": "uint160",
          "name": "sqrtPriceX96After",
          "type": "uint160"
        },
        {
          "internalType": "uint32",
          "name": "initializedTicksCrossed",
          "type": "uint32"
        },
        {
          "internalType": "uint256",
          "name": "gasEstimate",
          "type": "uint256"
        }
      ],
      "stateMutability": "nonpayable",
      "type": "function"
    },
    {
      "inputs": [
        {
          "internalType": "int256",
          "name": "amount0Delta",
          "type": "int256"
        },
        {
          "internalType": "int256",
          "name": "amount1Delta",
          "type": "int256"
        },
        {
          "internalType": "bytes",
          "name": "path",
          "type": "bytes"
        }
      ],
      "name": "uniswapV3SwapCallback",
      "outputs": [],
      "stateMutability": "view",
      "type": "function"
    }
  ],
  "bytecode": "0x608060405234801561001057600080fd5b50612394806100206000396000f3fe608060405234801561001057600080fd5b50600436106100885760003560e01c8063c45a01551161005b578063c45a015514610106578063c6a5026a1461010e578063cdca175314610121578063fa461e331461013457610088565b80632f80bb1d1461008d578063485cc955146100b95780634aa4a4fc146100ce578063bd21704a146100e3575b600080fd5b6100a061009b366004611e40565b610147565b6040516100b094939291906121c1565b60405180910390f35b6100cc6100c7366004611e08565b61033d565b005b6100d661045d565b6040516100b09190612104565b6100f66100f1366004611f5e565b610479565b6040516100b09493929190612269565b6100d66106ac565b6100f661011c366004611f5e565b6106ce565b6100a061012f366004611e40565b610889565b6100cc610142366004611ea6565b610a61565b6000606080600061015786610c1f565b67ffffffffffffffff8111801561016d57600080fd5b50604051908082528060200260200182016040528015610197578160200160208202803683370190505b5092506101a386610c1f565b67ffffffffffffffff811180156101b957600080fd5b506040519080825280602002602001820160405280156101e3578160200160208202803683370190505b50915060005b60008060006101f78a610c4e565b92509250925060008060008061027a6040518060a001604052808873ffffffffffffffffffffffffffffffffffffffff1681526020018973ffffffffffffffffffffffffffffffffffffffff1681526020018f81526020018762ffffff168152602001600073ffffffffffffffffffffffffffffffffffffffff16815250610479565b9350935093509350828b898151811061028f57fe5b602002602001019073ffffffffffffffffffffffffffffffffffffffff16908173ffffffffffffffffffffffffffffffffffffffff1681525050818a89815181106102d657fe5b63ffffffff90921660209283029190910190910152929b50968201966001909601958b926103038e610c7f565b15610318576103118e610c87565b9d50610328565b8c9b505050505050505050610334565b505050505050506101e9565b92959194509250565b600054610100900460ff16806103565750610356610cc2565b80610364575060005460ff16155b6103b9576040517f08c379a000000000000000000000000000000000000000000000000000000000815260040180806020018281038252602e81526020018061235a602e913960400191505060405180910390fd5b600054610100900460ff1615801561041f57600080547fffffffffffffffffffffffffffffffffffffffffffffffffffffffffffffff007fffffffffffffffffffffffffffffffffffffffffffffffffffffffffffff00ff909116610100171660011790555b6104298383610cd3565b801561045857600080547fffffffffffffffffffffffffffffffffffffffffffffffffffffffffffff00ff1690555b505050565b60015473ffffffffffffffffffffffffffffffffffffffff1681565b60208101518151606083015160009283928392839273ffffffffffffffffffffffffffffffffffffffff808216908416109284926104b79290610e64565b9050866080015173ffffffffffffffffffffffffffffffffffffffff16600014156104e55760408701516002555b60005a90508173ffffffffffffffffffffffffffffffffffffffff1663128acb0830856105158c60400151610ea0565b6000038c6080015173ffffffffffffffffffffffffffffffffffffffff16600014610544578c6080015161056a565b876105635773fffd8963efd1fc6a506488495d951d5263988d2561056a565b6401000276a45b8d602001518e606001518f6000015160405160200161058b9392919061209e565b6040516020818303038152906040526040518663ffffffff1660e01b81526004016105ba959493929190612125565b6040805180830381600087803b1580156105d357600080fd5b505af1925050508015610621575060408051601f3d9081017fffffffffffffffffffffffffffffffffffffffffffffffffffffffffffffffe016820190925261061e91810190611e83565b60015b61069f573d80801561064f576040519150601f19603f3d011682016040523d82523d6000602084013e610654565b606091505b505a82039450886080015173ffffffffffffffffffffffffffffffffffffffff16600014156106835760006002555b61068e818487610ed2565b9750975097509750505050506106a5565b50505050505b9193509193565b60005462010000900473ffffffffffffffffffffffffffffffffffffffff1681565b60208101518151606083015160009283928392839273ffffffffffffffffffffffffffffffffffffffff8082169084161092849261070c9290610e64565b905060005a90508173ffffffffffffffffffffffffffffffffffffffff1663128acb08308561073e8c60400151610ea0565b60808d015173ffffffffffffffffffffffffffffffffffffffff1615610768578c6080015161078e565b876107875773fffd8963efd1fc6a506488495d951d5263988d2561078e565b6401000276a45b8d600001518e606001518f602001516040516020016107af9392919061209e565b6040516020818303038152906040526040518663ffffffff1660e01b81526004016107de959493929190612125565b6040805180830381600087803b1580156107f757600080fd5b505af1925050508015610845575060408051601f3d9081017fffffffffffffffffffffffffffffffffffffffffffffffffffffffffffffffe016820190925261084291810190611e83565b60015b61069f573d808015610873576040519150601f19603f3d011682016040523d82523d6000602084013e610878565b606091505b505a8203945061068e818487610ed2565b6000606080600061089986610c1f565b67ffffffffffffffff811180156108af57600080fd5b506040519080825280602002602001820160405280156108d9578160200160208202803683370190505b5092506108e586610c1f565b67ffffffffffffffff811180156108fb57600080fd5b50604051908082528060200260200182016040528015610925578160200160208202803683370190505b50915060005b60008060006109398a610c4e565b9250925092506000806000806109bc6040518060a001604052808973ffffffffffffffffffffffffffffffffffffffff1681526020018873ffffffffffffffffffffffffffffffffffffffff1681526020018f81526020018762ffffff168152602001600073ffffffffffffffffffffffffffffffffffffffff168152506106ce565b9350935093509350828b89815181106109d157fe5b602002602001019073ffffffffffffffffffffffffffffffffffffffff16908173ffffffffffffffffffffffffffffffffffffffff1681525050818a8981518110610a1857fe5b63ffffffff90921660209283029190910190910152929b50968201966001909601958b92610a458e610c7f565b1561031857610a538e610c87565b9d505050505050505061092b565b6000831380610a705750600082135b610a7957600080fd5b6000806000610a8784610c4e565b925092509250610abb600060029054906101000a900473ffffffffffffffffffffffffffffffffffffffff16848484610fa6565b506000806000808913610b01578573ffffffffffffffffffffffffffffffffffffffff168573ffffffffffffffffffffffffffffffffffffffff1610888a600003610b36565b8473ffffffffffffffffffffffffffffffffffffffff168673ffffffffffffffffffffffffffffffffffffffff161089896000035b9250925092506000610b49878787610e64565b90506000808273ffffffffffffffffffffffffffffffffffffffff16633850c7bd6040518163ffffffff1660e01b815260040160e06040518083038186803b158015610b9457600080fd5b505afa158015610ba8573d6000803e3d6000fd5b505050506040513d601f19601f82011682018060405250810190610bcc9190611f80565b5050505050915091508515610bf257604051848152826020820152816040820152606081fd5b60025415610c08576002548414610c0857600080fd5b604051858152826020820152816040820152606081fd5b805160177fffffffffffffffffffffffffffffffffffffffffffffffffffffffffffffffec909101045b919050565b60008080610c5c8482610fc5565b9250610c698460146110c5565b9050610c76846017610fc5565b91509193909250565b516042111590565b8051606090610cbc9083906017907fffffffffffffffffffffffffffffffffffffffffffffffffffffffffffffffe9016111b5565b92915050565b6000610ccd3061139c565b15905090565b600054610100900460ff1680610cec5750610cec610cc2565b80610cfa575060005460ff16155b610d4f576040517f08c379a000000000000000000000000000000000000000000000000000000000815260040180806020018281038252602e81526020018061235a602e913960400191505060405180910390fd5b600054610100900460ff16158015610db557600080547fffffffffffffffffffffffffffffffffffffffffffffffffffffffffffffff007fffffffffffffffffffffffffffffffffffffffffffffffffffffffffffff00ff909116610100171660011790555b600080547fffffffffffffffffffff0000000000000000000000000000000000000000ffff166201000073ffffffffffffffffffffffffffffffffffffffff8681169190910291909117909155600180547fffffffffffffffffffffffff000000000000000000000000000000000000000016918416919091179055801561045857600080547fffffffffffffffffffffffffffffffffffffffffffffffffffffffffffff00ff169055505050565b60008054610e989062010000900473ffffffffffffffffffffffffffffffffffffffff16610e938686866113a2565b61141f565b949350505050565b60007f80000000000000000000000000000000000000000000000000000000000000008210610ece57600080fd5b5090565b6000806000806000808773ffffffffffffffffffffffffffffffffffffffff16633850c7bd6040518163ffffffff1660e01b815260040160e06040518083038186803b158015610f2157600080fd5b505afa158015610f35573d6000803e3d6000fd5b505050506040513d601f19601f82011682018060405250810190610f599190611f80565b50939650610f6e94508d935061155592505050565b91975095509050610f9673ffffffffffffffffffffffffffffffffffffffff89168383611616565b9350869250505093509350935093565b6000610fbc85610fb78686866113a2565b611c6e565b95945050505050565b60008182601401101561103957604080517f08c379a000000000000000000000000000000000000000000000000000000000815260206004820152601260248201527f746f416464726573735f6f766572666c6f770000000000000000000000000000604482015290519081900360640190fd5b81601401835110156110ac57604080517f08c379a000000000000000000000000000000000000000000000000000000000815260206004820152601560248201527f746f416464726573735f6f75744f66426f756e64730000000000000000000000604482015290519081900360640190fd5b5001602001516c01000000000000000000000000900490565b60008182600301101561113957604080517f08c379a000000000000000000000000000000000000000000000000000000000815260206004820152601160248201527f746f55696e7432345f6f766572666c6f77000000000000000000000000000000604482015290519081900360640190fd5b81600301835110156111ac57604080517f08c379a000000000000000000000000000000000000000000000000000000000815260206004820152601460248201527f746f55696e7432345f6f75744f66426f756e6473000000000000000000000000604482015290519081900360640190fd5b50016003015190565b60608182601f01101561122957604080517f08c379a000000000000000000000000000000000000000000000000000000000815260206004820152600e60248201527f736c6963655f6f766572666c6f77000000000000000000000000000000000000604482015290519081900360640190fd5b82828401101561129a57604080517f08c379a000000000000000000000000000000000000000000000000000000000815260206004820152600e60248201527f736c6963655f6f766572666c6f77000000000000000000000000000000000000604482015290519081900360640190fd5b8183018451101561130c57604080517f08c379a000000000000000000000000000000000000000000000000000000000815260206004820152601160248201527f736c6963655f6f75744f66426f756e6473000000000000000000000000000000604482015290519081900360640190fd5b60608215801561132b5760405191506000825260208201604052611393565b6040519150601f8416801560200281840101858101878315602002848b0101015b8183101561136457805183526020928301920161134c565b5050858452601f017fffffffffffffffffffffffffffffffffffffffffffffffffffffffffffffffe016604052505b50949350505050565b3b151590565b6113aa611cd7565b8273ffffffffffffffffffffffffffffffffffffffff168473ffffffffffffffffffffffffffffffffffffffff1611156113e2579192915b506040805160608101825273ffffffffffffffffffffffffffffffffffffffff948516815292909316602083015262ffffff169181019190915290565b6000816020015173ffffffffffffffffffffffffffffffffffffffff16826000015173ffffffffffffffffffffffffffffffffffffffff161061146157600080fd5b508051602080830151604093840151845173ffffffffffffffffffffffffffffffffffffffff94851681850152939091168385015262ffffff166060808401919091528351808403820181526080840185528051908301207fff0000000000000000000000000000000000000000000000000000000000000060a085015294901b7fffffffffffffffffffffffffffffffffffffffff0000000000000000000000001660a183015260b58201939093527fe34f199b19b2b4f47f68442619d555527d244f78a3297ea89325f843f87b8b5460d5808301919091528251808303909101815260f5909101909152805191012090565b600080600083516060146115f5576044845110156115a8576040517f08c379a000000000000000000000000000000000000000000000000000000000815260040161159f9061218a565b60405180910390fd5b600484019350838060200190518101906115c29190611ef4565b6040517f08c379a000000000000000000000000000000000000000000000000000000000815260040161159f9190612177565b838060200190518101906116099190612017565b9250925092509193909250565b60008060008060008060008060088b73ffffffffffffffffffffffffffffffffffffffff1663d0c93a7c6040518163ffffffff1660e01b815260040160206040518083038186803b15801561166a57600080fd5b505afa15801561167e573d6000803e3d6000fd5b505050506040513d602081101561169457600080fd5b5051600290810b908c900b816116a657fe5b0560020b901d905060006101008c73ffffffffffffffffffffffffffffffffffffffff1663d0c93a7c6040518163ffffffff1660e01b815260040160206040518083038186803b1580156116f957600080fd5b505afa15801561170d573d6000803e3d6000fd5b505050506040513d602081101561172357600080fd5b5051600290810b908d900b8161173557fe5b0560020b8161174057fe5b079050600060088d73ffffffffffffffffffffffffffffffffffffffff1663d0c93a7c6040518163ffffffff1660e01b815260040160206040518083038186803b15801561178d57600080fd5b505afa1580156117a1573d6000803e3d6000fd5b505050506040513d60208110156117b757600080fd5b5051600290810b908d900b816117c957fe5b0560020b901d905060006101008e73ffffffffffffffffffffffffffffffffffffffff1663d0c93a7c6040518163ffffffff1660e01b815260040160206040518083038186803b15801561181c57600080fd5b505afa158015611830573d6000803e3d6000fd5b505050506040513d602081101561184657600080fd5b5051600290810b908e900b8161185857fe5b0560020b8161186357fe5b07905060008160ff166001901b8f73ffffffffffffffffffffffffffffffffffffffff16635339c296856040518263ffffffff1660e01b8152600401808260010b815260200191505060206040518083038186803b1580156118c457600080fd5b505afa1580156118d8573d6000803e3d6000fd5b505050506040513d60208110156118ee57600080fd5b50511611801561198157508d73ffffffffffffffffffffffffffffffffffffffff1663d0c93a7c6040518163ffffffff1660e01b815260040160206040518083038186803b15801561193f57600080fd5b505afa158015611953573d6000803e3d6000fd5b505050506040513d602081101561196957600080fd5b5051600290810b908d900b8161197b57fe5b0760020b155b801561199257508b60020b8d60020b135b945060008360ff166001901b8f73ffffffffffffffffffffffffffffffffffffffff16635339c296876040518263ffffffff1660e01b8152600401808260010b815260200191505060206040518083038186803b1580156119f257600080fd5b505afa158015611a06573d6000803e3d6000fd5b505050506040513d6020811015611a1c57600080fd5b505116118015611aaf57508d73ffffffffffffffffffffffffffffffffffffffff1663d0c93a7c6040518163ffffffff1660e01b815260040160206040518083038186803b158015611a6d57600080fd5b505afa158015611a81573d6000803e3d6000fd5b505050506040513d6020811015611a9757600080fd5b5051600290810b908e900b81611aa957fe5b0760020b155b8015611ac057508b60020b8d60020b125b95508160010b8460010b1280611aec57508160010b8460010b148015611aec57508060ff168360ff1611155b15611b0257839950829750819850809650611b0f565b8199508097508398508296505b50507fffffffffffffffffffffffffffffffffffffffffffffffffffffffffffffffff60ff87161b9150505b8560010b8760010b13611c46578560010b8760010b1415611b80577fffffffffffffffffffffffffffffffffffffffffffffffffffffffffffffffff60ff858103161c165b6000818c73ffffffffffffffffffffffffffffffffffffffff16635339c2968a6040518263ffffffff1660e01b8152600401808260010b815260200191505060206040518083038186803b158015611bd757600080fd5b505afa158015611beb573d6000803e3d6000fd5b505050506040513d6020811015611c0157600080fd5b5051169050611c0f81611c9e565b61ffff16989098019750506001909501947fffffffffffffffffffffffffffffffffffffffffffffffffffffffffffffffff611b3b565b8115611c53576001880397505b8215611c60576001880397505b505050505050509392505050565b6000611c7a838361141f565b90503373ffffffffffffffffffffffffffffffffffffffff821614610cbc57600080fd5b6000805b8215610cbc577fffffffffffffffffffffffffffffffffffffffffffffffffffffffffffffffff830190921691600101611ca2565b604080516060810182526000808252602082018190529181019190915290565b600082601f830112611d07578081fd5b8135611d1a611d15826122c4565b6122a0565b818152846020838601011115611d2e578283fd5b816020850160208301379081016020019190915292915050565b8051600281900b8114610c4957600080fd5b600060a08284031215611d6b578081fd5b60405160a0810181811067ffffffffffffffff82111715611d8857fe5b6040529050808235611d9981612334565b81526020830135611da981612334565b602082015260408381013590820152606083013562ffffff81168114611dce57600080fd5b6060820152611ddf60808401611deb565b60808201525092915050565b8035610c4981612334565b805161ffff81168114610c4957600080fd5b60008060408385031215611e1a578182fd5b8235611e2581612334565b91506020830135611e3581612334565b809150509250929050565b60008060408385031215611e52578182fd5b823567ffffffffffffffff811115611e68578283fd5b611e7485828601611cf7565b95602094909401359450505050565b60008060408385031215611e95578182fd5b505080516020909101519092909150565b600080600060608486031215611eba578081fd5b8335925060208401359150604084013567ffffffffffffffff811115611ede578182fd5b611eea86828701611cf7565b9150509250925092565b600060208284031215611f05578081fd5b815167ffffffffffffffff811115611f1b578182fd5b8201601f81018413611f2b578182fd5b8051611f39611d15826122c4565b818152856020838501011115611f4d578384fd5b610fbc826020830160208601612304565b600060a08284031215611f6f578081fd5b611f798383611d5a565b9392505050565b600080600080600080600060e0888a031215611f9a578485fd5b8751611fa581612334565b9650611fb360208901611d48565b9550611fc160408901611df6565b9450611fcf60608901611df6565b9350611fdd60808901611df6565b925060a088015160ff81168114611ff2578283fd5b60c08901519092508015158114612007578182fd5b8091505092959891949750929550565b60008060006060848603121561202b578081fd5b83519250602084015161203d81612334565b915061204b60408501611d48565b90509250925092565b6000815180845261206c816020860160208601612304565b601f017fffffffffffffffffffffffffffffffffffffffffffffffffffffffffffffffe0169290920160200192915050565b606093841b7fffffffffffffffffffffffffffffffffffffffff000000000000000000000000908116825260e89390931b7fffffff0000000000000000000000000000000000000000000000000000000000166014820152921b166017820152602b0190565b73ffffffffffffffffffffffffffffffffffffffff91909116815260200190565b600073ffffffffffffffffffffffffffffffffffffffff8088168352861515602084015285604084015280851660608401525060a0608083015261216c60a0830184612054565b979650505050505050565b600060208252611f796020830184612054565b60208082526010908201527f556e6578706563746564206572726f7200000000000000000000000000000000604082015260600190565b600060808201868352602060808185015281875180845260a0860191508289019350845b8181101561221757845173ffffffffffffffffffffffffffffffffffffffff16835293830193918301916001016121e5565b505084810360408601528651808252908201925081870190845b8181101561225357825163ffffffff1685529383019391830191600101612231565b5050505060609290920192909252949350505050565b93845273ffffffffffffffffffffffffffffffffffffffff92909216602084015263ffffffff166040830152606082015260800190565b60405181810167ffffffffffffffff811182821017156122bc57fe5b604052919050565b600067ffffffffffffffff8211156122d857fe5b50601f017fffffffffffffffffffffffffffffffffffffffffffffffffffffffffffffffe01660200190565b60005b8381101561231f578181015183820152602001612307565b8381111561232e576000848401525b50505050565b73ffffffffffffffffffffffffffffffffffffffff8116811461235657600080fd5b5056fe496e697469616c697a61626c653a20636f6e747261637420697320616c726561647920696e697469616c697a6564a164736f6c6343000706000a",
  "linkReferences": {},
  "deployedLinkReferences": {}
}