{
  "_format": "hh-sol-artifact-1",
  "contractName": "Staker",
  "sourceName": "contracts/Staker.sol",
  "abi": [
    {
      "anonymous": false,
      "inputs": [
        {
          "indexed": true,
          "internalType": "uint256",
          "name": "tokenId",
          "type": "uint256"
        },
        {
          "indexed": true,
          "internalType": "address",
          "name": "oldOwner",
          "type": "address"
        },
        {
          "indexed": true,
          "internalType": "address",
          "name": "newOwner",
          "type": "address"
        }
      ],
      "name": "DepositTransferred",
      "type": "event"
    },
    {
      "anonymous": false,
      "inputs": [
        {
          "indexed": true,
          "internalType": "contract IERC20Minimal",
          "name": "rewardToken",
          "type": "address"
        },
        {
          "indexed": true,
          "internalType": "contract IPool",
          "name": "pool",
          "type": "address"
        },
        {
          "indexed": false,
          "internalType": "uint256",
          "name": "startTime",
          "type": "uint256"
        },
        {
          "indexed": false,
          "internalType": "uint256",
          "name": "endTime",
          "type": "uint256"
        },
        {
          "indexed": false,
          "internalType": "address",
          "name": "refundee",
          "type": "address"
        },
        {
          "indexed": false,
          "internalType": "uint256",
          "name": "reward",
          "type": "uint256"
        }
      ],
      "name": "IncentiveCreated",
      "type": "event"
    },
    {
      "anonymous": false,
      "inputs": [
        {
          "indexed": true,
          "internalType": "bytes32",
          "name": "incentiveId",
          "type": "bytes32"
        },
        {
          "indexed": false,
          "internalType": "uint256",
          "name": "refund",
          "type": "uint256"
        }
      ],
      "name": "IncentiveEnded",
      "type": "event"
    },
    {
      "anonymous": false,
      "inputs": [
        {
          "indexed": true,
          "internalType": "address",
          "name": "to",
          "type": "address"
        },
        {
          "indexed": false,
          "internalType": "uint256",
          "name": "reward",
          "type": "uint256"
        }
      ],
      "name": "RewardClaimed",
      "type": "event"
    },
    {
      "anonymous": false,
      "inputs": [
        {
          "indexed": true,
          "internalType": "uint256",
          "name": "tokenId",
          "type": "uint256"
        },
        {
          "indexed": true,
          "internalType": "bytes32",
          "name": "incentiveId",
          "type": "bytes32"
        },
        {
          "indexed": false,
          "internalType": "uint128",
          "name": "liquidity",
          "type": "uint128"
        }
      ],
      "name": "TokenStaked",
      "type": "event"
    },
    {
      "anonymous": false,
      "inputs": [
        {
          "indexed": true,
          "internalType": "uint256",
          "name": "tokenId",
          "type": "uint256"
        },
        {
          "indexed": true,
          "internalType": "bytes32",
          "name": "incentiveId",
          "type": "bytes32"
        }
      ],
      "name": "TokenUnstaked",
      "type": "event"
    },
    {
      "inputs": [
        {
          "internalType": "contract IERC20Minimal",
          "name": "rewardToken",
          "type": "address"
        },
        {
          "internalType": "address",
          "name": "to",
          "type": "address"
        },
        {
          "internalType": "uint256",
          "name": "amountRequested",
          "type": "uint256"
        }
      ],
      "name": "claimReward",
      "outputs": [
        {
          "internalType": "uint256",
          "name": "reward",
          "type": "uint256"
        }
      ],
      "stateMutability": "nonpayable",
      "type": "function"
    },
    {
      "inputs": [
        {
          "components": [
            {
              "internalType": "contract IERC20Minimal",
              "name": "rewardToken",
              "type": "address"
            },
            {
              "internalType": "contract IPool",
              "name": "pool",
              "type": "address"
            },
            {
              "internalType": "uint256",
              "name": "startTime",
              "type": "uint256"
            },
            {
              "internalType": "uint256",
              "name": "endTime",
              "type": "uint256"
            },
            {
              "internalType": "address",
              "name": "refundee",
              "type": "address"
            }
          ],
          "internalType": "struct IStaker.IncentiveKey",
          "name": "key",
          "type": "tuple"
        },
        {
          "internalType": "uint256",
          "name": "reward",
          "type": "uint256"
        }
      ],
      "name": "createIncentive",
      "outputs": [],
      "stateMutability": "nonpayable",
      "type": "function"
    },
    {
      "inputs": [
        {
          "internalType": "uint256",
          "name": "",
          "type": "uint256"
        }
      ],
      "name": "deposits",
      "outputs": [
        {
          "internalType": "address",
          "name": "owner",
          "type": "address"
        },
        {
          "internalType": "uint48",
          "name": "numberOfStakes",
          "type": "uint48"
        },
        {
          "internalType": "int24",
          "name": "tickLower",
          "type": "int24"
        },
        {
          "internalType": "int24",
          "name": "tickUpper",
          "type": "int24"
        }
      ],
      "stateMutability": "view",
      "type": "function"
    },
    {
      "inputs": [
        {
          "components": [
            {
              "internalType": "contract IERC20Minimal",
              "name": "rewardToken",
              "type": "address"
            },
            {
              "internalType": "contract IPool",
              "name": "pool",
              "type": "address"
            },
            {
              "internalType": "uint256",
              "name": "startTime",
              "type": "uint256"
            },
            {
              "internalType": "uint256",
              "name": "endTime",
              "type": "uint256"
            },
            {
              "internalType": "address",
              "name": "refundee",
              "type": "address"
            }
          ],
          "internalType": "struct IStaker.IncentiveKey",
          "name": "key",
          "type": "tuple"
        }
      ],
      "name": "endIncentive",
      "outputs": [
        {
          "internalType": "uint256",
          "name": "refund",
          "type": "uint256"
        }
      ],
      "stateMutability": "nonpayable",
      "type": "function"
    },
    {
      "inputs": [],
      "name": "factory",
      "outputs": [
        {
          "internalType": "contract IFactory",
          "name": "",
          "type": "address"
        }
      ],
      "stateMutability": "view",
      "type": "function"
    },
    {
      "inputs": [
        {
          "components": [
            {
              "internalType": "contract IERC20Minimal",
              "name": "rewardToken",
              "type": "address"
            },
            {
              "internalType": "contract IPool",
              "name": "pool",
              "type": "address"
            },
            {
              "internalType": "uint256",
              "name": "startTime",
              "type": "uint256"
            },
            {
              "internalType": "uint256",
              "name": "endTime",
              "type": "uint256"
            },
            {
              "internalType": "address",
              "name": "refundee",
              "type": "address"
            }
          ],
          "internalType": "struct IStaker.IncentiveKey",
          "name": "key",
          "type": "tuple"
        },
        {
          "internalType": "uint256",
          "name": "tokenId",
          "type": "uint256"
        }
      ],
      "name": "getRewardInfo",
      "outputs": [
        {
          "internalType": "uint256",
          "name": "reward",
          "type": "uint256"
        },
        {
          "internalType": "uint160",
          "name": "secondsInsideX128",
          "type": "uint160"
        }
      ],
      "stateMutability": "view",
      "type": "function"
    },
    {
      "inputs": [
        {
          "internalType": "bytes32",
          "name": "",
          "type": "bytes32"
        }
      ],
      "name": "incentives",
      "outputs": [
        {
          "internalType": "uint256",
          "name": "totalRewardUnclaimed",
          "type": "uint256"
        },
        {
          "internalType": "uint160",
          "name": "totalSecondsClaimedX128",
          "type": "uint160"
        },
        {
          "internalType": "uint96",
          "name": "numberOfStakes",
          "type": "uint96"
        }
      ],
      "stateMutability": "view",
      "type": "function"
    },
    {
      "inputs": [
        {
          "internalType": "contract IFactory",
          "name": "_factory",
          "type": "address"
        },
        {
          "internalType": "contract INonfungiblePositionManager",
          "name": "_nonfungiblePositionManager",
          "type": "address"
        },
        {
          "internalType": "uint256",
          "name": "_maxIncentiveStartLeadTime",
          "type": "uint256"
        },
        {
          "internalType": "uint256",
          "name": "_maxIncentiveDuration",
          "type": "uint256"
        }
      ],
      "name": "initialize",
      "outputs": [],
      "stateMutability": "nonpayable",
      "type": "function"
    },
    {
      "inputs": [],
      "name": "maxIncentiveDuration",
      "outputs": [
        {
          "internalType": "uint256",
          "name": "",
          "type": "uint256"
        }
      ],
      "stateMutability": "view",
      "type": "function"
    },
    {
      "inputs": [],
      "name": "maxIncentiveStartLeadTime",
      "outputs": [
        {
          "internalType": "uint256",
          "name": "",
          "type": "uint256"
        }
      ],
      "stateMutability": "view",
      "type": "function"
    },
    {
      "inputs": [
        {
          "internalType": "bytes[]",
          "name": "data",
          "type": "bytes[]"
        }
      ],
      "name": "multicall",
      "outputs": [
        {
          "internalType": "bytes[]",
          "name": "results",
          "type": "bytes[]"
        }
      ],
      "stateMutability": "payable",
      "type": "function"
    },
    {
      "inputs": [],
      "name": "nonfungiblePositionManager",
      "outputs": [
        {
          "internalType": "contract INonfungiblePositionManager",
          "name": "",
          "type": "address"
        }
      ],
      "stateMutability": "view",
      "type": "function"
    },
    {
      "inputs": [
        {
          "internalType": "address",
          "name": "",
          "type": "address"
        },
        {
          "internalType": "address",
          "name": "from",
          "type": "address"
        },
        {
          "internalType": "uint256",
          "name": "tokenId",
          "type": "uint256"
        },
        {
          "internalType": "bytes",
          "name": "data",
          "type": "bytes"
        }
      ],
      "name": "onERC721Received",
      "outputs": [
        {
          "internalType": "bytes4",
          "name": "",
          "type": "bytes4"
        }
      ],
      "stateMutability": "nonpayable",
      "type": "function"
    },
    {
      "inputs": [
        {
          "internalType": "contract IERC20Minimal",
          "name": "",
          "type": "address"
        },
        {
          "internalType": "address",
          "name": "",
          "type": "address"
        }
      ],
      "name": "rewards",
      "outputs": [
        {
          "internalType": "uint256",
          "name": "",
          "type": "uint256"
        }
      ],
      "stateMutability": "view",
      "type": "function"
    },
    {
      "inputs": [
        {
          "components": [
            {
              "internalType": "contract IERC20Minimal",
              "name": "rewardToken",
              "type": "address"
            },
            {
              "internalType": "contract IPool",
              "name": "pool",
              "type": "address"
            },
            {
              "internalType": "uint256",
              "name": "startTime",
              "type": "uint256"
            },
            {
              "internalType": "uint256",
              "name": "endTime",
              "type": "uint256"
            },
            {
              "internalType": "address",
              "name": "refundee",
              "type": "address"
            }
          ],
          "internalType": "struct IStaker.IncentiveKey",
          "name": "key",
          "type": "tuple"
        },
        {
          "internalType": "uint256",
          "name": "tokenId",
          "type": "uint256"
        }
      ],
      "name": "stakeToken",
      "outputs": [],
      "stateMutability": "nonpayable",
      "type": "function"
    },
    {
      "inputs": [
        {
          "internalType": "uint256",
          "name": "tokenId",
          "type": "uint256"
        },
        {
          "internalType": "bytes32",
          "name": "incentiveId",
          "type": "bytes32"
        }
      ],
      "name": "stakes",
      "outputs": [
        {
          "internalType": "uint160",
          "name": "secondsPerLiquidityInsideInitialX128",
          "type": "uint160"
        },
        {
          "internalType": "uint128",
          "name": "liquidity",
          "type": "uint128"
        }
      ],
      "stateMutability": "view",
      "type": "function"
    },
    {
      "inputs": [
        {
          "internalType": "uint256",
          "name": "tokenId",
          "type": "uint256"
        },
        {
          "internalType": "address",
          "name": "to",
          "type": "address"
        }
      ],
      "name": "transferDeposit",
      "outputs": [],
      "stateMutability": "nonpayable",
      "type": "function"
    },
    {
      "inputs": [
        {
          "components": [
            {
              "internalType": "contract IERC20Minimal",
              "name": "rewardToken",
              "type": "address"
            },
            {
              "internalType": "contract IPool",
              "name": "pool",
              "type": "address"
            },
            {
              "internalType": "uint256",
              "name": "startTime",
              "type": "uint256"
            },
            {
              "internalType": "uint256",
              "name": "endTime",
              "type": "uint256"
            },
            {
              "internalType": "address",
              "name": "refundee",
              "type": "address"
            }
          ],
          "internalType": "struct IStaker.IncentiveKey",
          "name": "key",
          "type": "tuple"
        },
        {
          "internalType": "uint256",
          "name": "tokenId",
          "type": "uint256"
        }
      ],
      "name": "unstakeToken",
      "outputs": [],
      "stateMutability": "nonpayable",
      "type": "function"
    },
    {
      "inputs": [
        {
          "internalType": "uint256",
          "name": "tokenId",
          "type": "uint256"
        },
        {
          "internalType": "address",
          "name": "to",
          "type": "address"
        },
        {
          "internalType": "bytes",
          "name": "data",
          "type": "bytes"
        }
      ],
      "name": "withdrawToken",
      "outputs": [],
      "stateMutability": "nonpayable",
      "type": "function"
    }
  ],
  "bytecode": "0x608060405234801561001057600080fd5b50613b51806100206000396000f3fe6080604052600436106101445760003560e01c8063b02c43d0116100c0578063d953186e11610074578063eb990c5911610059578063eb990c591461038a578063f2d2909b146103aa578063f549ab42146103ca57610144565b8063d953186e1461033c578063e70b9e271461036a57610144565b8063b5ada6e4116100a5578063b5ada6e4146102d9578063c36c1ea5146102f9578063c45a01551461032757610144565b8063b02c43d014610287578063b44a2722146102b757610144565b80633c423f0b116101175780635cc5e3d9116100fc5780635cc5e3d9146102185780636077779514610238578063ac9650d81461026757610144565b80633c423f0b146101e35780633dc0714b1461020357610144565b806301b7544014610149578063150b7a021461017457806326bfee04146101a15780632f2d783d146101c3575b600080fd5b34801561015557600080fd5b5061015e6103ea565b60405161016b9190613915565b60405180910390f35b34801561018057600080fd5b5061019461018f36600461283c565b6103f0565b60405161016b9190612ef6565b3480156101ad57600080fd5b506101c16101bc366004612bde565b61071b565b005b3480156101cf57600080fd5b5061015e6101de366004612a43565b610849565b3480156101ef57600080fd5b506101c16101fe366004612c02565b610927565b34801561020f57600080fd5b5061015e610b9e565b34801561022457600080fd5b506101c1610233366004612bb4565b610ba4565b34801561024457600080fd5b506102586102533660046129f3565b610d99565b60405161016b93929190613942565b61027a6102753660046128d6565b610df0565b60405161016b9190612e78565b34801561029357600080fd5b506102a76102a23660046129f3565b610f4a565b60405161016b9493929190612e37565b3480156102c357600080fd5b506102cc610fdc565b60405161016b9190612f23565b3480156102e557600080fd5b5061015e6102f4366004612b99565b610ff8565b34801561030557600080fd5b50610319610314366004612c94565b611146565b60405161016b9291906138dd565b34801561033357600080fd5b506102cc6111cb565b34801561034857600080fd5b5061035c610357366004612bb4565b6111ed565b60405161016b92919061391e565b34801561037657600080fd5b5061015e610385366004612a0b565b611415565b34801561039657600080fd5b506101c16103a5366004612a83565b611432565b3480156103b657600080fd5b506101c16103c5366004612bb4565b6114b4565b3480156103d657600080fd5b506101c16103e5366004612bb4565b61151f565b60025481565b60015460009073ffffffffffffffffffffffffffffffffffffffff16331461044d576040517f08c379a000000000000000000000000000000000000000000000000000000000815260040161044490613391565b60405180910390fd5b6001546040517f99fbab88000000000000000000000000000000000000000000000000000000008152600091829173ffffffffffffffffffffffffffffffffffffffff909116906399fbab88906104a8908990600401613915565b6101806040518083038186803b1580156104c157600080fd5b505afa1580156104d5573d6000803e3d6000fd5b505050506040513d601f19601f820116820180604052508101906104f99190612cb5565b505050505096509650505050505060405180608001604052808873ffffffffffffffffffffffffffffffffffffffff168152602001600065ffffffffffff1681526020018360020b81526020018260020b8152506005600088815260200190815260200160002060008201518160000160006101000a81548173ffffffffffffffffffffffffffffffffffffffff021916908373ffffffffffffffffffffffffffffffffffffffff16021790555060208201518160000160146101000a81548165ffffffffffff021916908365ffffffffffff160217905550604082015181600001601a6101000a81548162ffffff021916908360020b62ffffff160217905550606082015181600001601d6101000a81548162ffffff021916908360020b62ffffff1602179055509050508673ffffffffffffffffffffffffffffffffffffffff16600073ffffffffffffffffffffffffffffffffffffffff16877fcdfc765b85e1048bee3c6a0f9d1c91fc7c4631f5fe5745a55fc6843db5c3260f60405160405180910390a483156106ee5760a08414156106aa576106a561069f85870187612b99565b87611969565b6106ee565b60006106b885870187612945565b905060005b81518110156106eb576106e38282815181106106d557fe5b602002602001015189611969565b6001016106bd565b50505b507f150b7a0200000000000000000000000000000000000000000000000000000000979650505050505050565b73ffffffffffffffffffffffffffffffffffffffff8116610768576040517f08c379a000000000000000000000000000000000000000000000000000000000815260040161044490613162565b60008281526005602052604090205473ffffffffffffffffffffffffffffffffffffffff163381146107c6576040517f08c379a000000000000000000000000000000000000000000000000000000000815260040161044490613642565b60008381526005602052604080822080547fffffffffffffffffffffffff00000000000000000000000000000000000000001673ffffffffffffffffffffffffffffffffffffffff868116918217909255915191929084169186917fcdfc765b85e1048bee3c6a0f9d1c91fc7c4631f5fe5745a55fc6843db5c3260f91a4505050565b73ffffffffffffffffffffffffffffffffffffffff83166000908152600760209081526040808320338452909152902054811580159061088857508082105b156108905750805b73ffffffffffffffffffffffffffffffffffffffff841660009081526007602090815260408083203384529091529020805482900390556108d2848483611ebe565b8273ffffffffffffffffffffffffffffffffffffffff167f106f923f993c2149d49b4255ff723acafa1f2d94393f561d3eda32ae348f7241826040516109189190613915565b60405180910390a29392505050565b73ffffffffffffffffffffffffffffffffffffffff8216301415610977576040517f08c379a000000000000000000000000000000000000000000000000000000000815260040161044490613588565b6000838152600560209081526040918290208251608081018452905473ffffffffffffffffffffffffffffffffffffffff8116825265ffffffffffff740100000000000000000000000000000000000000008204169282018390527a0100000000000000000000000000000000000000000000000000008104600290810b810b810b948301949094527d0100000000000000000000000000000000000000000000000000000000009004830b830b90920b606083015215610a64576040517f08c379a00000000000000000000000000000000000000000000000000000000081526004016104449061352b565b805173ffffffffffffffffffffffffffffffffffffffff163314610ab4576040517f08c379a0000000000000000000000000000000000000000000000000000000008152600401610444906131bf565b6000848152600560205260408082208290558251905173ffffffffffffffffffffffffffffffffffffffff9091169086907fcdfc765b85e1048bee3c6a0f9d1c91fc7c4631f5fe5745a55fc6843db5c3260f908490a46001546040517fb88d4fde00000000000000000000000000000000000000000000000000000000815273ffffffffffffffffffffffffffffffffffffffff9091169063b88d4fde90610b66903090879089908890600401612dee565b600060405180830381600087803b158015610b8057600080fd5b505af1158015610b94573d6000803e3d6000fd5b5050505050505050565b60035481565b60008111610bde576040517f08c379a00000000000000000000000000000000000000000000000000000000081526004016104449061321c565b8160400151421115610c1c576040517f08c379a0000000000000000000000000000000000000000000000000000000008152600401610444906132d6565b600254428360400151031115610c5e576040517f08c379a000000000000000000000000000000000000000000000000000000000815260040161044490613279565b8160600151826040015110610c9f576040517f08c379a00000000000000000000000000000000000000000000000000000000081526004016104449061344b565b60035482604001518360600151031115610ce5576040517f08c379a00000000000000000000000000000000000000000000000000000000081526004016104449061369f565b6000610cf083611f42565b60008181526004602052604090208054840190558351909150610d1590333085611f73565b826020015173ffffffffffffffffffffffffffffffffffffffff16836000015173ffffffffffffffffffffffffffffffffffffffff167fa876344e28d4b5191ad03bc0d43f740e3695827ab0faccac739930b915ef8b0285604001518660600151876080015187604051610d8c949392919061397c565b60405180910390a3505050565b6004602052600090815260409020805460019091015473ffffffffffffffffffffffffffffffffffffffff8116907401000000000000000000000000000000000000000090046bffffffffffffffffffffffff1683565b60608167ffffffffffffffff81118015610e0957600080fd5b50604051908082528060200260200182016040528015610e3d57816020015b6060815260200190600190039081610e285790505b50905060005b82811015610f435760008030868685818110610e5b57fe5b9050602002810190610e6d91906139ad565b604051610e7b929190612dde565b600060405180830381855af49150503d8060008114610eb6576040519150601f19603f3d011682016040523d82523d6000602084013e610ebb565b606091505b509150915081610f2157604481511015610ed457600080fd5b60048101905080806020019051810190610eee9190612b21565b6040517f08c379a00000000000000000000000000000000000000000000000000000000081526004016104449190612f58565b80848481518110610f2e57fe5b60209081029190910101525050600101610e43565b5092915050565b60056020526000908152604090205473ffffffffffffffffffffffffffffffffffffffff81169065ffffffffffff74010000000000000000000000000000000000000000820416907a0100000000000000000000000000000000000000000000000000008104600290810b917d0100000000000000000000000000000000000000000000000000000000009004900b84565b60015473ffffffffffffffffffffffffffffffffffffffff1681565b60008160600151421015611038576040517f08c379a000000000000000000000000000000000000000000000000000000000815260040161044490613105565b600061104383611f42565b6000818152600460205260409020805493509091508261108f576040517f08c379a0000000000000000000000000000000000000000000000000000000008152600401610444906136fc565b60018101547401000000000000000000000000000000000000000090046bffffffffffffffffffffffff16156110f1576040517f08c379a0000000000000000000000000000000000000000000000000000000008152600401610444906134a8565b6000815583516080850151611107919085611ebe565b817f65124e6175aa9904f40735e87e2a37c76e87a609b855287bb4d1aba8257d9763846040516111379190613915565b60405180910390a25050919050565b60008281526006602090815260408083208484529091529020805473ffffffffffffffffffffffffffffffffffffffff8116916bffffffffffffffffffffffff740100000000000000000000000000000000000000009092048216918214156111c35760018101546fffffffffffffffffffffffffffffffff1691505b509250929050565b60005462010000900473ffffffffffffffffffffffffffffffffffffffff1681565b60008060006111fb85611f42565b905060008061120a8684611146565b915091506000816fffffffffffffffffffffffffffffffff161161125a576040517f08c379a000000000000000000000000000000000000000000000000000000000815260040161044490613813565b60008681526005602090815260408083208151608081018352905473ffffffffffffffffffffffffffffffffffffffff80821683527401000000000000000000000000000000000000000080830465ffffffffffff16848701527a0100000000000000000000000000000000000000000000000000008304600290810b810b810b8587019081527d010000000000000000000000000000000000000000000000000000000000909404810b810b900b60608086019182528b89526004808952878a20885192830189528054835260010154808616838b0152939093046bffffffffffffffffffffffff1681880152968f01519351905195517fa38807f2000000000000000000000000000000000000000000000000000000008152949795939092169363a38807f2936113909392909101612f44565b60606040518083038186803b1580156113a857600080fd5b505afa1580156113bc573d6000803e3d6000fd5b505050506040513d601f19601f820116820180604052508101906113e09190612ac8565b50915050611404826000015183602001518c604001518d60600151888a8742611ff9565b909b909a5098505050505050505050565b600760209081526000928352604080842090915290825290205481565b600080547fffffffffffffffffffff0000000000000000000000000000000000000000ffff166201000073ffffffffffffffffffffffffffffffffffffffff96871602179055600180547fffffffffffffffffffffffff0000000000000000000000000000000000000000169390941692909217909255600291909155600355565b60008181526005602052604090205473ffffffffffffffffffffffffffffffffffffffff163314611511576040517f08c379a000000000000000000000000000000000000000000000000000000000815260040161044490612f6b565b61151b8282611969565b5050565b6000818152600560209081526040918290208251608081018452905473ffffffffffffffffffffffffffffffffffffffff8116825265ffffffffffff74010000000000000000000000000000000000000000820416928201929092527a0100000000000000000000000000000000000000000000000000008204600290810b810b810b938201939093527d010000000000000000000000000000000000000000000000000000000000909104820b820b90910b60608083019190915283015142101561163557805173ffffffffffffffffffffffffffffffffffffffff163314611635576040517f08c379a000000000000000000000000000000000000000000000000000000000815260040161044490613082565b600061164084611f42565b905060008061164f8584611146565b91509150806fffffffffffffffffffffffffffffffff16600014156116a0576040517f08c379a0000000000000000000000000000000000000000000000000000000008152600401610444906137b6565b60008381526004602081815260408084208985526005835281852080547fffffffffffffffffffffffffffffffffffffffffffffffffffffffffffffffff65ffffffffffff740100000000000000000000000000000000000000008084048216830190911681027fffffffffffff000000000000ffffffffffffffffffffffffffffffffffffffff909316929092179092556001830180546bffffffffffffffffffffffff838204811690940190931690910273ffffffffffffffffffffffffffffffffffffffff928316179055928b01518983015160608b015193517fa38807f2000000000000000000000000000000000000000000000000000000008152929695919094169363a38807f2936117bc939192909101612f44565b60606040518083038186803b1580156117d457600080fd5b505afa1580156117e8573d6000803e3d6000fd5b505050506040513d601f19601f8201168201806040525081019061180c9190612ac8565b508354600185015460408c015160608d015193955060009450849361184d939273ffffffffffffffffffffffffffffffffffffffff169190898b8942611ff9565b6001860180547fffffffffffffffffffffffff0000000000000000000000000000000000000000811673ffffffffffffffffffffffffffffffffffffffff9182168401821617909155865483900387558c51811660009081526007602090815260408083208e5190941683529281528282208054860190558d8252600681528282208c8352905290812090815591935091506bffffffffffffffffffffffff6fffffffffffffffffffffffffffffffff87161061192f576001810180547fffffffffffffffffffffffffffffffff000000000000000000000000000000001690555b60405188908b907fe1ba67e807ae0efa0a9549f9520ddc15c27f0a4dae2bc045e800ca66a940778f90600090a35050505050505050505050565b81604001514210156119a7576040517f08c379a000000000000000000000000000000000000000000000000000000000815260040161044490613334565b816060015142106119e4576040517f08c379a0000000000000000000000000000000000000000000000000000000008152600401610444906133ee565b60006119ef83611f42565b600081815260046020526040902054909150611a37576040517f08c379a0000000000000000000000000000000000000000000000000000000008152600401610444906135e5565b60008281526006602090815260408083208484529091529020547401000000000000000000000000000000000000000090046bffffffffffffffffffffffff1615611aae576040517f08c379a000000000000000000000000000000000000000000000000000000000815260040161044490612fc8565b60008054600154829182918291611ae59173ffffffffffffffffffffffffffffffffffffffff62010000909204821691168861207b565b9350935093509350866020015173ffffffffffffffffffffffffffffffffffffffff168473ffffffffffffffffffffffffffffffffffffffff1614611b56576040517f08c379a000000000000000000000000000000000000000000000000000000000815260040161044490613025565b6000816fffffffffffffffffffffffffffffffff1611611ba2576040517f08c379a000000000000000000000000000000000000000000000000000000000815260040161044490613759565b60008681526005602090815260408083208054600165ffffffffffff740100000000000000000000000000000000000000008084048216830190911681027fffffffffffff000000000000ffffffffffffffffffffffffffffffffffffffff90931692909217909255898552600493849052828520820180546bffffffffffffffffffffffff838204811690940190931690910273ffffffffffffffffffffffffffffffffffffffff92831617905590517fa38807f20000000000000000000000000000000000000000000000000000000081529087169163a38807f291611c8e918891889101612f44565b60606040518083038186803b158015611ca657600080fd5b505afa158015611cba573d6000803e3d6000fd5b505050506040513d601f19601f82011682018060405250810190611cde9190612ac8565b509150506bffffffffffffffffffffffff6fffffffffffffffffffffffffffffffff831610611df7576040805160608101825273ffffffffffffffffffffffffffffffffffffffff80841682526bffffffffffffffffffffffff60208084018281526fffffffffffffffffffffffffffffffff80891686880190815260008f8152600685528881208f82529094529690922094518554915190931674010000000000000000000000000000000000000000029284167fffffffffffffffffffffffff000000000000000000000000000000000000000090911617909216178255915160019091018054919092167fffffffffffffffffffffffffffffffff00000000000000000000000000000000909116179055611e7b565b6000878152600660209081526040808320898452909152902080547fffffffffffffffffffffffff00000000000000000000000000000000000000001673ffffffffffffffffffffffffffffffffffffffff8381169190911716740100000000000000000000000000000000000000006bffffffffffffffffffffffff8516021790555b85877f3fe90ccd0a34e28f2b4b7a1e8323415ed9dd595f4eec5dfd461d18c2df336dbd84604051611eac91906138c0565b60405180910390a35050505050505050565b611edd8373ffffffffffffffffffffffffffffffffffffffff16612184565b611f32576040517f08c379a000000000000000000000000000000000000000000000000000000000815260040180806020018281038252603a815260200180613acd603a913960400191505060405180910390fd5b611f3d83838361218a565b505050565b600081604051602001611f559190613870565b6040516020818303038152906040528051906020012090505b919050565b611f928473ffffffffffffffffffffffffffffffffffffffff16612184565b611fe7576040517f08c379a000000000000000000000000000000000000000000000000000000000815260040180806020018281038252603e815260200180613b07603e913960400191505060405180910390fd5b611ff384848484612366565b50505050565b6000808783101561200657fe5b508383036fffffffffffffffffffffffffffffffff861602600073ffffffffffffffffffffffffffffffffffffffff8a1660808a6120448b8861254b565b03901b03905061206b8b8373ffffffffffffffffffffffffffffffffffffffff1683612564565b9250509850989650505050505050565b60008060008060008060008873ffffffffffffffffffffffffffffffffffffffff166399fbab88896040518263ffffffff1660e01b8152600401808281526020019150506101806040518083038186803b1580156120d857600080fd5b505afa1580156120ec573d6000803e3d6000fd5b505050506040513d61018081101561210357600080fd5b50604080820151606080840151608085015160a086015160c087015160e0909701518651948501875273ffffffffffffffffffffffffffffffffffffffff80871686528416602086015262ffffff8316968501969096529b50949950929750909550909350909150612176908b90612631565b965050505093509350935093565b3b151590565b6040805173ffffffffffffffffffffffffffffffffffffffff8481166024830152604480830185905283518084039091018152606490920183526020820180517bffffffffffffffffffffffffffffffffffffffffffffffffffffffff167fa9059cbb000000000000000000000000000000000000000000000000000000001781529251825160009485949389169392918291908083835b6020831061225f57805182527fffffffffffffffffffffffffffffffffffffffffffffffffffffffffffffffe09092019160209182019101612222565b6001836020036101000a0380198251168184511680821785525050505050509050019150506000604051808303816000865af19150503d80600081146122c1576040519150601f19603f3d011682016040523d82523d6000602084013e6122c6565b606091505b50915091508180156122f45750805115806122f457508080602001905160208110156122f157600080fd5b50515b61235f57604080517f08c379a000000000000000000000000000000000000000000000000000000000815260206004820152600260248201527f5354000000000000000000000000000000000000000000000000000000000000604482015290519081900360640190fd5b5050505050565b6040805173ffffffffffffffffffffffffffffffffffffffff85811660248301528481166044830152606480830185905283518084039091018152608490920183526020820180517bffffffffffffffffffffffffffffffffffffffffffffffffffffffff167f23b872dd00000000000000000000000000000000000000000000000000000000178152925182516000948594938a169392918291908083835b6020831061244357805182527fffffffffffffffffffffffffffffffffffffffffffffffffffffffffffffffe09092019160209182019101612406565b6001836020036101000a0380198251168184511680821785525050505050509050019150506000604051808303816000865af19150503d80600081146124a5576040519150601f19603f3d011682016040523d82523d6000602084013e6124aa565b606091505b50915091508180156124d85750805115806124d857508080602001905160208110156124d557600080fd5b50515b61254357604080517f08c379a000000000000000000000000000000000000000000000000000000000815260206004820152600360248201527f5354460000000000000000000000000000000000000000000000000000000000604482015290519081900360640190fd5b505050505050565b60008183101561255b578161255d565b825b9392505050565b600080807fffffffffffffffffffffffffffffffffffffffffffffffffffffffffffffffff858709868602925082811090839003039050806125b857600084116125ad57600080fd5b50829004905061255d565b8084116125c457600080fd5b6000848688096000868103871696879004966002600389028118808a02820302808a02820302808a02820302808a02820302808a02820302808a02909103029181900381900460010186841190950394909402919094039290920491909117919091029150509392505050565b6000816020015173ffffffffffffffffffffffffffffffffffffffff16826000015173ffffffffffffffffffffffffffffffffffffffff161061267357600080fd5b508051602080830151604093840151845173ffffffffffffffffffffffffffffffffffffffff94851681850152939091168385015262ffffff166060808401919091528351808403820181526080840185528051908301207fff0000000000000000000000000000000000000000000000000000000000000060a085015294901b7fffffffffffffffffffffffffffffffffffffffff0000000000000000000000001660a183015260b58201939093527fe34f199b19b2b4f47f68442619d555527d244f78a3297ea89325f843f87b8b5460d5808301919091528251808303909101815260f5909101909152805191012090565b8051611f6e81613aa7565b8051600281900b8114611f6e57600080fd5b600060a08284031215612795578081fd5b60405160a0810181811067ffffffffffffffff821117156127b257fe5b60405290508082356127c381613aa7565b815260208301356127d381613aa7565b80602083015250604083013560408201526060830135606082015260808301356127fc81613aa7565b6080919091015292915050565b80516fffffffffffffffffffffffffffffffff81168114611f6e57600080fd5b805162ffffff81168114611f6e57600080fd5b600080600080600060808688031215612853578081fd5b853561285e81613aa7565b9450602086013561286e81613aa7565b935060408601359250606086013567ffffffffffffffff80821115612891578283fd5b818801915088601f8301126128a4578283fd5b8135818111156128b2578384fd5b8960208285010111156128c3578384fd5b9699959850939650602001949392505050565b600080602083850312156128e8578182fd5b823567ffffffffffffffff808211156128ff578384fd5b818501915085601f830112612912578384fd5b813581811115612920578485fd5b8660208083028501011115612933578485fd5b60209290920196919550909350505050565b60006020808385031215612957578182fd5b823567ffffffffffffffff8082111561296e578384fd5b818501915085601f830112612981578384fd5b81358181111561298d57fe5b61299a8485830201613a17565b818152848101925083850160a0808402860187018a10156129b9578788fd5b8795505b838610156129e5576129cf8a83612784565b85526001959095019493860193908101906129bd565b509098975050505050505050565b600060208284031215612a04578081fd5b5035919050565b60008060408385031215612a1d578182fd5b8235612a2881613aa7565b91506020830135612a3881613aa7565b809150509250929050565b600080600060608486031215612a57578081fd5b8335612a6281613aa7565b92506020840135612a7281613aa7565b929592945050506040919091013590565b60008060008060808587031215612a98578182fd5b8435612aa381613aa7565b93506020850135612ab381613aa7565b93969395505050506040820135916060013590565b600080600060608486031215612adc578081fd5b83518060060b8114612aec578182fd5b6020850151909350612afd81613aa7565b604085015190925063ffffffff81168114612b16578182fd5b809150509250925092565b600060208284031215612b32578081fd5b815167ffffffffffffffff811115612b48578182fd5b8201601f81018413612b58578182fd5b8051612b6b612b6682613a3b565b613a17565b818152856020838501011115612b7f578384fd5b612b90826020830160208601613a7b565b95945050505050565b600060a08284031215612baa578081fd5b61255d8383612784565b60008060c08385031215612bc6578182fd5b612bd08484612784565b9460a0939093013593505050565b60008060408385031215612bf0578182fd5b823591506020830135612a3881613aa7565b600080600060608486031215612c16578081fd5b833592506020840135612c2881613aa7565b9150604084013567ffffffffffffffff811115612c43578182fd5b8401601f81018613612c53578182fd5b8035612c61612b6682613a3b565b818152876020838501011115612c75578384fd5b8160208401602083013783602083830101528093505050509250925092565b60008060408385031215612ca6578182fd5b50508035926020909101359150565b6000806000806000806000806000806000806101808d8f031215612cd757898afd5b8c516bffffffffffffffffffffffff81168114612cf2578a8bfd5b9b50612d0060208e01612767565b9a50612d0e60408e01612767565b9950612d1c60608e01612767565b9850612d2a60808e01612829565b9750612d3860a08e01612772565b9650612d4660c08e01612772565b9550612d5460e08e01612809565b94506101008d015193506101208d01519250612d736101408e01612809565b9150612d826101608e01612809565b90509295989b509295989b509295989b565b60008151808452612dac816020860160208601613a7b565b601f017fffffffffffffffffffffffffffffffffffffffffffffffffffffffffffffffe0169290920160200192915050565b6000828483379101908152919050565b600073ffffffffffffffffffffffffffffffffffffffff808716835280861660208401525083604083015260806060830152612e2d6080830184612d94565b9695505050505050565b73ffffffffffffffffffffffffffffffffffffffff94909416845265ffffffffffff929092166020840152600290810b60408401520b606082015260800190565b6000602080830181845280855180835260408601915060408482028701019250838701855b82811015612ee9577fffffffffffffffffffffffffffffffffffffffffffffffffffffffffffffffc0888603018452612ed7858351612d94565b94509285019290850190600101612e9d565b5092979650505050505050565b7fffffffff0000000000000000000000000000000000000000000000000000000091909116815260200190565b73ffffffffffffffffffffffffffffffffffffffff91909116815260200190565b600292830b8152910b602082015260400190565b60006020825261255d6020830184612d94565b6020808252602e908201527f5374616b65723a3a7374616b65546f6b656e3a206f6e6c79206f776e6572206360408201527f616e207374616b6520746f6b656e000000000000000000000000000000000000606082015260800190565b60208082526028908201527f5374616b65723a3a7374616b65546f6b656e3a20746f6b656e20616c7265616460408201527f79207374616b6564000000000000000000000000000000000000000000000000606082015260800190565b60208082526038908201527f5374616b65723a3a7374616b65546f6b656e3a20746f6b656e20706f6f6c206960408201527f73206e6f742074686520696e63656e7469766520706f6f6c0000000000000000606082015260800190565b6020808252604d908201527f5374616b65723a3a756e7374616b65546f6b656e3a206f6e6c79206f776e657260408201527f2063616e20776974686472617720746f6b656e206265666f726520696e63656e60608201527f7469766520656e642074696d6500000000000000000000000000000000000000608082015260a00190565b6020808252603a908201527f5374616b65723a3a656e64496e63656e746976653a2063616e6e6f7420656e6460408201527f20696e63656e74697665206265666f726520656e642074696d65000000000000606082015260800190565b60208082526033908201527f5374616b65723a3a7472616e736665724465706f7369743a20696e76616c696460408201527f207472616e7366657220726563697069656e7400000000000000000000000000606082015260800190565b60208082526034908201527f5374616b65723a3a7769746864726177546f6b656e3a206f6e6c79206f776e6560408201527f722063616e20776974686472617720746f6b656e000000000000000000000000606082015260800190565b60208082526030908201527f5374616b65723a3a637265617465496e63656e746976653a207265776172642060408201527f6d75737420626520706f73697469766500000000000000000000000000000000606082015260800190565b60208082526037908201527f5374616b65723a3a637265617465496e63656e746976653a207374617274207460408201527f696d6520746f6f2066617220696e746f20667574757265000000000000000000606082015260800190565b602080825260409082018190527f5374616b65723a3a637265617465496e63656e746976653a2073746172742074908201527f696d65206d757374206265206e6f77206f7220696e2074686520667574757265606082015260800190565b60208082526029908201527f5374616b65723a3a7374616b65546f6b656e3a20696e63656e74697665206e6f60408201527f7420737461727465640000000000000000000000000000000000000000000000606082015260800190565b60208082526023908201527f5374616b65723a3a6f6e45524337323152656365697665643a206e6f7420612060408201527f6e66740000000000000000000000000000000000000000000000000000000000606082015260800190565b60208082526023908201527f5374616b65723a3a7374616b65546f6b656e3a20696e63656e7469766520656e60408201527f6465640000000000000000000000000000000000000000000000000000000000606082015260800190565b6020808252603b908201527f5374616b65723a3a637265617465496e63656e746976653a207374617274207460408201527f696d65206d757374206265206265666f726520656e642074696d650000000000606082015260800190565b60208082526044908201527f5374616b65723a3a656e64496e63656e746976653a2063616e6e6f7420656e6460408201527f20696e63656e74697665207768696c65206465706f736974732061726520737460608201527f616b656400000000000000000000000000000000000000000000000000000000608082015260a00190565b60208082526039908201527f5374616b65723a3a7769746864726177546f6b656e3a2063616e6e6f7420776960408201527f74686472617720746f6b656e207768696c65207374616b656400000000000000606082015260800190565b60208082526030908201527f5374616b65723a3a7769746864726177546f6b656e3a2063616e6e6f7420776960408201527f74686472617720746f207374616b657200000000000000000000000000000000606082015260800190565b6020808252602a908201527f5374616b65723a3a7374616b65546f6b656e3a206e6f6e2d6578697374656e7460408201527f20696e63656e7469766500000000000000000000000000000000000000000000606082015260800190565b6020808252603c908201527f5374616b65723a3a7472616e736665724465706f7369743a2063616e206f6e6c60408201527f792062652063616c6c6564206279206465706f736974206f776e657200000000606082015260800190565b60208082526037908201527f5374616b65723a3a637265617465496e63656e746976653a20696e63656e746960408201527f7665206475726174696f6e20697320746f6f206c6f6e67000000000000000000606082015260800190565b60208082526029908201527f5374616b65723a3a656e64496e63656e746976653a206e6f20726566756e642060408201527f617661696c61626c650000000000000000000000000000000000000000000000606082015260800190565b60208082526037908201527f5374616b65723a3a7374616b65546f6b656e3a2063616e6e6f74207374616b6560408201527f20746f6b656e20776974682030206c6971756964697479000000000000000000606082015260800190565b6020808252602a908201527f5374616b65723a3a756e7374616b65546f6b656e3a207374616b6520646f657360408201527f206e6f7420657869737400000000000000000000000000000000000000000000606082015260800190565b6020808252602b908201527f5374616b65723a3a676574526577617264496e666f3a207374616b6520646f6560408201527f73206e6f74206578697374000000000000000000000000000000000000000000606082015260800190565b815173ffffffffffffffffffffffffffffffffffffffff90811682526020808401518216908301526040808401519083015260608084015190830152608092830151169181019190915260a00190565b6fffffffffffffffffffffffffffffffff91909116815260200190565b73ffffffffffffffffffffffffffffffffffffffff9290921682526fffffffffffffffffffffffffffffffff16602082015260400190565b90815260200190565b91825273ffffffffffffffffffffffffffffffffffffffff16602082015260400190565b92835273ffffffffffffffffffffffffffffffffffffffff9190911660208301526bffffffffffffffffffffffff16604082015260600190565b938452602084019290925273ffffffffffffffffffffffffffffffffffffffff166040830152606082015260800190565b60008083357fffffffffffffffffffffffffffffffffffffffffffffffffffffffffffffffe18436030181126139e1578283fd5b83018035915067ffffffffffffffff8211156139fb578283fd5b602001915036819003821315613a1057600080fd5b9250929050565b60405181810167ffffffffffffffff81118282101715613a3357fe5b604052919050565b600067ffffffffffffffff821115613a4f57fe5b50601f017fffffffffffffffffffffffffffffffffffffffffffffffffffffffffffffffe01660200190565b60005b83811015613a96578181015183820152602001613a7e565b83811115611ff35750506000910152565b73ffffffffffffffffffffffffffffffffffffffff81168114613ac957600080fd5b5056fe5472616e7366657248656c706572457874656e6465643a3a736166655472616e736665723a2063616c6c20746f206e6f6e2d636f6e74726163745472616e7366657248656c706572457874656e6465643a3a736166655472616e7366657246726f6d3a2063616c6c20746f206e6f6e2d636f6e7472616374a164736f6c6343000706000a",
  "linkReferences": {},
  "deployedLinkReferences": {}
}