{
  "_format": "hh-sol-artifact-1",
  "contractName": "SwapRouter",
  "sourceName": "contracts/SwapRouter.sol",
  "abi": [
    {
      "inputs": [],
      "name": "WETH9",
      "outputs": [
        {
          "internalType": "address",
          "name": "",
          "type": "address"
        }
      ],
      "stateMutability": "view",
      "type": "function"
    },
    {
      "inputs": [
        {
          "components": [
            {
              "internalType": "bytes",
              "name": "path",
              "type": "bytes"
            },
            {
              "internalType": "address",
              "name": "recipient",
              "type": "address"
            },
            {
              "internalType": "uint256",
              "name": "deadline",
              "type": "uint256"
            },
            {
              "internalType": "uint256",
              "name": "amountIn",
              "type": "uint256"
            },
            {
              "internalType": "uint256",
              "name": "amountOutMinimum",
              "type": "uint256"
            }
          ],
          "internalType": "struct ISwapRouter.ExactInputParams",
          "name": "params",
          "type": "tuple"
        }
      ],
      "name": "exactInput",
      "outputs": [
        {
          "internalType": "uint256",
          "name": "amountOut",
          "type": "uint256"
        }
      ],
      "stateMutability": "payable",
      "type": "function"
    },
    {
      "inputs": [
        {
          "components": [
            {
              "internalType": "address",
              "name": "tokenIn",
              "type": "address"
            },
            {
              "internalType": "address",
              "name": "tokenOut",
              "type": "address"
            },
            {
              "internalType": "uint24",
              "name": "fee",
              "type": "uint24"
            },
            {
              "internalType": "address",
              "name": "recipient",
              "type": "address"
            },
            {
              "internalType": "uint256",
              "name": "deadline",
              "type": "uint256"
            },
            {
              "internalType": "uint256",
              "name": "amountIn",
              "type": "uint256"
            },
            {
              "internalType": "uint256",
              "name": "amountOutMinimum",
              "type": "uint256"
            },
            {
              "internalType": "uint160",
              "name": "sqrtPriceLimitX96",
              "type": "uint160"
            }
          ],
          "internalType": "struct ISwapRouter.ExactInputSingleParams",
          "name": "params",
          "type": "tuple"
        }
      ],
      "name": "exactInputSingle",
      "outputs": [
        {
          "internalType": "uint256",
          "name": "amountOut",
          "type": "uint256"
        }
      ],
      "stateMutability": "payable",
      "type": "function"
    },
    {
      "inputs": [
        {
          "components": [
            {
              "internalType": "bytes",
              "name": "path",
              "type": "bytes"
            },
            {
              "internalType": "address",
              "name": "recipient",
              "type": "address"
            },
            {
              "internalType": "uint256",
              "name": "deadline",
              "type": "uint256"
            },
            {
              "internalType": "uint256",
              "name": "amountOut",
              "type": "uint256"
            },
            {
              "internalType": "uint256",
              "name": "amountInMaximum",
              "type": "uint256"
            }
          ],
          "internalType": "struct ISwapRouter.ExactOutputParams",
          "name": "params",
          "type": "tuple"
        }
      ],
      "name": "exactOutput",
      "outputs": [
        {
          "internalType": "uint256",
          "name": "amountIn",
          "type": "uint256"
        }
      ],
      "stateMutability": "payable",
      "type": "function"
    },
    {
      "inputs": [
        {
          "components": [
            {
              "internalType": "address",
              "name": "tokenIn",
              "type": "address"
            },
            {
              "internalType": "address",
              "name": "tokenOut",
              "type": "address"
            },
            {
              "internalType": "uint24",
              "name": "fee",
              "type": "uint24"
            },
            {
              "internalType": "address",
              "name": "recipient",
              "type": "address"
            },
            {
              "internalType": "uint256",
              "name": "deadline",
              "type": "uint256"
            },
            {
              "internalType": "uint256",
              "name": "amountOut",
              "type": "uint256"
            },
            {
              "internalType": "uint256",
              "name": "amountInMaximum",
              "type": "uint256"
            },
            {
              "internalType": "uint160",
              "name": "sqrtPriceLimitX96",
              "type": "uint160"
            }
          ],
          "internalType": "struct ISwapRouter.ExactOutputSingleParams",
          "name": "params",
          "type": "tuple"
        }
      ],
      "name": "exactOutputSingle",
      "outputs": [
        {
          "internalType": "uint256",
          "name": "amountIn",
          "type": "uint256"
        }
      ],
      "stateMutability": "payable",
      "type": "function"
    },
    {
      "inputs": [],
      "name": "factory",
      "outputs": [
        {
          "internalType": "address",
          "name": "",
          "type": "address"
        }
      ],
      "stateMutability": "view",
      "type": "function"
    },
    {
      "inputs": [
        {
          "internalType": "address",
          "name": "_factory",
          "type": "address"
        },
        {
          "internalType": "address",
          "name": "_WETH9",
          "type": "address"
        }
      ],
      "name": "initialize",
      "outputs": [],
      "stateMutability": "nonpayable",
      "type": "function"
    },
    {
      "inputs": [
        {
          "internalType": "bytes[]",
          "name": "data",
          "type": "bytes[]"
        }
      ],
      "name": "multicall",
      "outputs": [
        {
          "internalType": "bytes[]",
          "name": "results",
          "type": "bytes[]"
        }
      ],
      "stateMutability": "payable",
      "type": "function"
    },
    {
      "inputs": [],
      "name": "refundETH",
      "outputs": [],
      "stateMutability": "payable",
      "type": "function"
    },
    {
      "inputs": [
        {
          "internalType": "address",
          "name": "token",
          "type": "address"
        },
        {
          "internalType": "uint256",
          "name": "value",
          "type": "uint256"
        },
        {
          "internalType": "uint256",
          "name": "deadline",
          "type": "uint256"
        },
        {
          "internalType": "uint8",
          "name": "v",
          "type": "uint8"
        },
        {
          "internalType": "bytes32",
          "name": "r",
          "type": "bytes32"
        },
        {
          "internalType": "bytes32",
          "name": "s",
          "type": "bytes32"
        }
      ],
      "name": "selfPermit",
      "outputs": [],
      "stateMutability": "payable",
      "type": "function"
    },
    {
      "inputs": [
        {
          "internalType": "address",
          "name": "token",
          "type": "address"
        },
        {
          "internalType": "uint256",
          "name": "nonce",
          "type": "uint256"
        },
        {
          "internalType": "uint256",
          "name": "expiry",
          "type": "uint256"
        },
        {
          "internalType": "uint8",
          "name": "v",
          "type": "uint8"
        },
        {
          "internalType": "bytes32",
          "name": "r",
          "type": "bytes32"
        },
        {
          "internalType": "bytes32",
          "name": "s",
          "type": "bytes32"
        }
      ],
      "name": "selfPermitAllowed",
      "outputs": [],
      "stateMutability": "payable",
      "type": "function"
    },
    {
      "inputs": [
        {
          "internalType": "address",
          "name": "token",
          "type": "address"
        },
        {
          "internalType": "uint256",
          "name": "nonce",
          "type": "uint256"
        },
        {
          "internalType": "uint256",
          "name": "expiry",
          "type": "uint256"
        },
        {
          "internalType": "uint8",
          "name": "v",
          "type": "uint8"
        },
        {
          "internalType": "bytes32",
          "name": "r",
          "type": "bytes32"
        },
        {
          "internalType": "bytes32",
          "name": "s",
          "type": "bytes32"
        }
      ],
      "name": "selfPermitAllowedIfNecessary",
      "outputs": [],
      "stateMutability": "payable",
      "type": "function"
    },
    {
      "inputs": [
        {
          "internalType": "address",
          "name": "token",
          "type": "address"
        },
        {
          "internalType": "uint256",
          "name": "value",
          "type": "uint256"
        },
        {
          "internalType": "uint256",
          "name": "deadline",
          "type": "uint256"
        },
        {
          "internalType": "uint8",
          "name": "v",
          "type": "uint8"
        },
        {
          "internalType": "bytes32",
          "name": "r",
          "type": "bytes32"
        },
        {
          "internalType": "bytes32",
          "name": "s",
          "type": "bytes32"
        }
      ],
      "name": "selfPermitIfNecessary",
      "outputs": [],
      "stateMutability": "payable",
      "type": "function"
    },
    {
      "inputs": [
        {
          "internalType": "int256",
          "name": "amount0Delta",
          "type": "int256"
        },
        {
          "internalType": "int256",
          "name": "amount1Delta",
          "type": "int256"
        },
        {
          "internalType": "bytes",
          "name": "_data",
          "type": "bytes"
        }
      ],
      "name": "swapCallback",
      "outputs": [],
      "stateMutability": "nonpayable",
      "type": "function"
    },
    {
      "inputs": [
        {
          "internalType": "address",
          "name": "token",
          "type": "address"
        },
        {
          "internalType": "uint256",
          "name": "amountMinimum",
          "type": "uint256"
        },
        {
          "internalType": "address",
          "name": "recipient",
          "type": "address"
        }
      ],
      "name": "sweepToken",
      "outputs": [],
      "stateMutability": "payable",
      "type": "function"
    },
    {
      "inputs": [
        {
          "internalType": "address",
          "name": "token",
          "type": "address"
        },
        {
          "internalType": "uint256",
          "name": "amountMinimum",
          "type": "uint256"
        },
        {
          "internalType": "address",
          "name": "recipient",
          "type": "address"
        },
        {
          "internalType": "uint256",
          "name": "feeBips",
          "type": "uint256"
        },
        {
          "internalType": "address",
          "name": "feeRecipient",
          "type": "address"
        }
      ],
      "name": "sweepTokenWithFee",
      "outputs": [],
      "stateMutability": "payable",
      "type": "function"
    },
    {
      "inputs": [
        {
          "internalType": "uint256",
          "name": "amountMinimum",
          "type": "uint256"
        },
        {
          "internalType": "address",
          "name": "recipient",
          "type": "address"
        }
      ],
      "name": "unwrapWETH9",
      "outputs": [],
      "stateMutability": "payable",
      "type": "function"
    },
    {
      "inputs": [
        {
          "internalType": "uint256",
          "name": "amountMinimum",
          "type": "uint256"
        },
        {
          "internalType": "address",
          "name": "recipient",
          "type": "address"
        },
        {
          "internalType": "uint256",
          "name": "feeBips",
          "type": "uint256"
        },
        {
          "internalType": "address",
          "name": "feeRecipient",
          "type": "address"
        }
      ],
      "name": "unwrapWETH9WithFee",
      "outputs": [],
      "stateMutability": "payable",
      "type": "function"
    },
    {
      "stateMutability": "payable",
      "type": "receive"
    }
  ],
  "bytecode": "0x608060405234801561001057600080fd5b50612752806100206000396000f3fe60806040526004361061010d5760003560e01c8063c04b8d5911610095578063df2ab5bb11610064578063df2ab5bb14610291578063e0e189a0146102a4578063f28c0498146102b7578063f3995c67146102ca578063fa483e72146102dd5761015f565b8063c04b8d5914610243578063c2e3140a14610256578063c45a015514610269578063db3e21981461027e5761015f565b806349404b7c116100dc57806349404b7c146101c85780634aa4a4fc146101db5780639b2c0a37146101fd578063a4a78f0c14610210578063ac9650d8146102235761015f565b806312210e8a14610164578063414bf3891461016c5780634659a49414610195578063485cc955146101a85761015f565b3661015f576001546001600160a01b0316331461015d576040805162461bcd60e51b81526020600482015260096024820152684e6f7420574554483960b81b604482015290519081900360640190fd5b005b600080fd5b61015d6102fd565b61017f61017a3660046122ea565b61030f565b60405161018c9190612638565b60405180910390f35b61015d6101a3366004612068565b610436565b3480156101b457600080fd5b5061015d6101c3366004611f91565b6104d0565b61015d6101d63660046123f1565b610584565b3480156101e757600080fd5b506101f06106bc565b60405161018c91906124d5565b61015d61020b366004612415565b6106cb565b61015d61021e366004612068565b61085a565b6102366102313660046120c8565b6108eb565b60405161018c919061252f565b61017f61025136600461223f565b610a2b565b61015d610264366004612068565b610b3f565b34801561027557600080fd5b506101f0610bce565b61017f61028c3660046122ea565b610be3565b61015d61029f366004611fc9565b610d0a565b61015d6102b236600461200a565b610de8565b61017f6102c5366004612306565b610f0f565b61015d6102d8366004612068565b611005565b3480156102e957600080fd5b5061015d6102f836600461215a565b611077565b471561030d5761030d334761117f565b565b600081608001358061031f61126e565b1115610368576040805162461bcd60e51b8152602060048201526013602482015272151c985b9cd858dd1a5bdb881d1bdbc81bdb19606a1b604482015290519081900360640190fd5b61040160a08401356103806080860160608701611f6e565b610391610100870160e08801611f6e565b60408051808201909152806103a960208a018a611f6e565b6103b960608b0160408c016123ce565b6103c960408c0160208d01611f6e565b6040516020016103db9392919061248a565b6040516020818303038152906040528152602001336001600160a01b0316815250611272565b91508260c001358210156104305760405162461bcd60e51b8152600401610427906125ce565b60405180910390fd5b50919050565b604080516323f2ebc360e21b815233600482015230602482015260448101879052606481018690526001608482015260ff851660a482015260c4810184905260e4810183905290516001600160a01b03881691638fcbaf0c9161010480830192600092919082900301818387803b1580156104b057600080fd5b505af11580156104c4573d6000803e3d6000fd5b50505050505050505050565b600054610100900460ff16806104e957506104e96113c4565b806104f7575060005460ff16155b6105325760405162461bcd60e51b815260040180806020018281038252602e815260200180612718602e913960400191505060405180910390fd5b600054610100900460ff1615801561055d576000805460ff1961ff0019909116610100171660011790555b60001960025561056d83836113d5565b801561057f576000805461ff00191690555b505050565b600154604080516370a0823160e01b815230600482015290516000926001600160a01b0316916370a08231916024808301926020929190829003018186803b1580156105cf57600080fd5b505afa1580156105e3573d6000803e3d6000fd5b505050506040513d60208110156105f957600080fd5b5051905082811015610647576040805162461bcd60e51b8152602060048201526012602482015271496e73756666696369656e7420574554483960701b604482015290519081900360640190fd5b801561057f5760015460408051632e1a7d4d60e01b81526004810184905290516001600160a01b0390921691632e1a7d4d9160248082019260009290919082900301818387803b15801561069a57600080fd5b505af11580156106ae573d6000803e3d6000fd5b5050505061057f828261117f565b6001546001600160a01b031681565b6000821180156106dc575060648211155b6106e557600080fd5b600154604080516370a0823160e01b815230600482015290516000926001600160a01b0316916370a08231916024808301926020929190829003018186803b15801561073057600080fd5b505afa158015610744573d6000803e3d6000fd5b505050506040513d602081101561075a57600080fd5b50519050848110156107a8576040805162461bcd60e51b8152602060048201526012602482015271496e73756666696369656e7420574554483960701b604482015290519081900360640190fd5b80156108535760015460408051632e1a7d4d60e01b81526004810184905290516001600160a01b0390921691632e1a7d4d9160248082019260009290919082900301818387803b1580156107fb57600080fd5b505af115801561080f573d6000803e3d6000fd5b50505050600061271061082b85846114b990919063ffffffff16565b8161083257fe5b049050801561084557610845838261117f565b6108518582840361117f565b505b5050505050565b60408051636eb1769f60e11b81523360048201523060248201529051600019916001600160a01b0389169163dd62ed3e91604480820192602092909190829003018186803b1580156108ab57600080fd5b505afa1580156108bf573d6000803e3d6000fd5b505050506040513d60208110156108d557600080fd5b5051101561085157610851868686868686610436565b60608167ffffffffffffffff8111801561090457600080fd5b5060405190808252806020026020018201604052801561093857816020015b60608152602001906001900390816109235790505b50905060005b82811015610a24576000803086868581811061095657fe5b90506020028101906109689190612641565b6040516109769291906124c5565b600060405180830381855af49150503d80600081146109b1576040519150601f19603f3d011682016040523d82523d6000602084013e6109b6565b606091505b509150915081610a02576044815110156109cf57600080fd5b600481019050808060200190518101906109e991906121d5565b60405162461bcd60e51b8152600401610427919061258f565b80848481518110610a0f57fe5b6020908102919091010152505060010161093e565b5092915050565b6000816040015180610a3b61126e565b1115610a84576040805162461bcd60e51b8152602060048201526013602482015272151c985b9cd858dd1a5bdb881d1bdbc81bdb19606a1b604482015290519081900360640190fd5b335b6000610a9585600001516114e3565b9050610ae1856060015182610aae578660200151610ab0565b305b60006040518060400160405280610aca8b600001516114ef565b8152602001876001600160a01b0316815250611272565b60608601528015610b01578451309250610afa906114fe565b8552610b0e565b8460600151935050610b14565b50610a86565b8360800151831015610b385760405162461bcd60e51b8152600401610427906125ce565b5050919050565b60408051636eb1769f60e11b8152336004820152306024820152905186916001600160a01b0389169163dd62ed3e91604480820192602092909190829003018186803b158015610b8e57600080fd5b505afa158015610ba2573d6000803e3d6000fd5b505050506040513d6020811015610bb857600080fd5b5051101561085157610851868686868686611005565b6000546201000090046001600160a01b031681565b6000816080013580610bf361126e565b1115610c3c576040805162461bcd60e51b8152602060048201526013602482015272151c985b9cd858dd1a5bdb881d1bdbc81bdb19606a1b604482015290519081900360640190fd5b610cd860a0840135610c546080860160608701611f6e565b610c65610100870160e08801611f6e565b6040518060400160405280886020016020810190610c839190611f6e565b610c9360608b0160408c016123ce565b610ca060208c018c611f6e565b604051602001610cb29392919061248a565b6040516020818303038152906040528152602001336001600160a01b0316815250611515565b91508260c00135821115610cfe5760405162461bcd60e51b8152600401610427906125a2565b50600019600255919050565b6000836001600160a01b03166370a08231306040518263ffffffff1660e01b815260040180826001600160a01b0316815260200191505060206040518083038186803b158015610d5957600080fd5b505afa158015610d6d573d6000803e3d6000fd5b505050506040513d6020811015610d8357600080fd5b5051905082811015610dd1576040805162461bcd60e51b815260206004820152601260248201527124b739bab33334b1b4b2b73a103a37b5b2b760711b604482015290519081900360640190fd5b8015610de257610de2848383611690565b50505050565b600082118015610df9575060648211155b610e0257600080fd5b6000856001600160a01b03166370a08231306040518263ffffffff1660e01b815260040180826001600160a01b0316815260200191505060206040518083038186803b158015610e5157600080fd5b505afa158015610e65573d6000803e3d6000fd5b505050506040513d6020811015610e7b57600080fd5b5051905084811015610ec9576040805162461bcd60e51b815260206004820152601260248201527124b739bab33334b1b4b2b73a103a37b5b2b760711b604482015290519081900360640190fd5b8015610851576000612710610ede83866114b9565b81610ee557fe5b0490508015610ef957610ef9878483611690565b610f068786838503611690565b50505050505050565b6000816040013580610f1f61126e565b1115610f68576040805162461bcd60e51b8152602060048201526013602482015272151c985b9cd858dd1a5bdb881d1bdbc81bdb19606a1b604482015290519081900360640190fd5b610fdb6060840135610f806040860160208701611f6e565b6040805180820190915260009080610f988980612641565b8080601f01602080910402602001604051908101604052809392919081815260200183838082843760009201919091525050509082525033602090910152611515565b5060025491508260800135821115610cfe5760405162461bcd60e51b8152600401610427906125a2565b6040805163d505accf60e01b8152336004820152306024820152604481018790526064810186905260ff8516608482015260a4810184905260c4810183905290516001600160a01b0388169163d505accf9160e480830192600092919082900301818387803b1580156104b057600080fd5b60008413806110865750600083135b61108f57600080fd5b600061109d8284018461233e565b905060008060006110b184600001516117d7565b9250925092506110d8600060029054906101000a90046001600160a01b0316848484611808565b5060008060008a136110ff57846001600160a01b0316846001600160a01b03161089611116565b836001600160a01b0316856001600160a01b0316108a5b915091508115611135576111308587602001513384611827565b6104c4565b8551611140906114e3565b15611165578551611150906114fe565b865261115f8133600089611515565b506104c4565b806002819055508394506104c48587602001513384611827565b604080516000808252602082019092526001600160a01b0384169083906040518082805190602001908083835b602083106111cb5780518252601f1990920191602091820191016111ac565b6001836020036101000a03801982511681845116808217855250505050505090500191505060006040518083038185875af1925050503d806000811461122d576040519150601f19603f3d011682016040523d82523d6000602084013e611232565b606091505b505090508061057f576040805162461bcd60e51b815260206004820152600360248201526253544560e81b604482015290519081900360640190fd5b4290565b60006001600160a01b038416611286573093505b600080600061129885600001516117d7565b919450925090506001600160a01b03808316908416106000806112bc868686611965565b6001600160a01b031663128acb088b856112d58f611994565b6001600160a01b038e16156112ea578d611310565b876113095773fffd8963efd1fc6a506488495d951d5263988d25611310565b6401000276a45b8d60405160200161132191906125fb565b6040516020818303038152906040526040518663ffffffff1660e01b81526004016113509594939291906124e9565b6040805180830381600087803b15801561136957600080fd5b505af115801561137d573d6000803e3d6000fd5b505050506040513d601f19601f820116820180604052508101906113a19190612137565b91509150826113b057816113b2565b805b6000039b9a5050505050505050505050565b60006113cf306119aa565b15905090565b600054610100900460ff16806113ee57506113ee6113c4565b806113fc575060005460ff16155b6114375760405162461bcd60e51b815260040180806020018281038252602e815260200180612718602e913960400191505060405180910390fd5b600054610100900460ff16158015611462576000805460ff1961ff0019909116610100171660011790555b6000805462010000600160b01b031916620100006001600160a01b038681169190910291909117909155600180546001600160a01b031916918416919091179055801561057f576000805461ff0019169055505050565b60008215806114d4575050818102818382816114d157fe5b04145b6114dd57600080fd5b92915050565b8051604211155b919050565b60606114dd826000602b6119b0565b80516060906114dd908390601790601619016119b0565b60006001600160a01b038416611529573093505b600080600061153b85600001516117d7565b919450925090506001600160a01b038084169083161060008061155f858786611965565b6001600160a01b031663128acb088b856115788f611994565b6000036001600160a01b038e1615611590578d6115b6565b876115af5773fffd8963efd1fc6a506488495d951d5263988d256115b6565b6401000276a45b8d6040516020016115c791906125fb565b6040516020818303038152906040526040518663ffffffff1660e01b81526004016115f69594939291906124e9565b6040805180830381600087803b15801561160f57600080fd5b505af1158015611623573d6000803e3d6000fd5b505050506040513d601f19601f820116820180604052508101906116479190612137565b9150915060008361165c578183600003611662565b82826000035b90985090506001600160a01b038a16611681578b811461168157600080fd5b50505050505050949350505050565b604080516001600160a01b038481166024830152604480830185905283518084039091018152606490920183526020820180516001600160e01b031663a9059cbb60e01b1781529251825160009485949389169392918291908083835b6020831061170c5780518252601f1990920191602091820191016116ed565b6001836020036101000a0380198251168184511680821785525050505050509050019150506000604051808303816000865af19150503d806000811461176e576040519150601f19603f3d011682016040523d82523d6000602084013e611773565b606091505b50915091508180156117a15750805115806117a1575080806020019051602081101561179e57600080fd5b50515b610853576040805162461bcd60e51b815260206004820152600260248201526114d560f21b604482015290519081900360640190fd5b600080806117e58482611b01565b92506117f2846014611bb1565b90506117ff846017611b01565b91509193909250565b600061181e85611819868686611c58565b611cae565b95945050505050565b6001546001600160a01b0385811691161480156118445750804710155b1561193857600160009054906101000a90046001600160a01b03166001600160a01b031663d0e30db0826040518263ffffffff1660e01b81526004016000604051808303818588803b15801561189957600080fd5b505af11580156118ad573d6000803e3d6000fd5b50506001546040805163a9059cbb60e01b81526001600160a01b03888116600483015260248201889052915191909216945063a9059cbb9350604480830193506020928290030181600087803b15801561190657600080fd5b505af115801561191a573d6000803e3d6000fd5b505050506040513d602081101561193057600080fd5b50610de29050565b6001600160a01b03831630141561195957611954848383611690565b610de2565b610de284848484611cd1565b6000805461198c906201000090046001600160a01b0316611987868686611c58565b611e21565b949350505050565b6000600160ff1b82106119a657600080fd5b5090565b3b151590565b60608182601f0110156119fb576040805162461bcd60e51b815260206004820152600e60248201526d736c6963655f6f766572666c6f7760901b604482015290519081900360640190fd5b828284011015611a43576040805162461bcd60e51b815260206004820152600e60248201526d736c6963655f6f766572666c6f7760901b604482015290519081900360640190fd5b81830184511015611a8f576040805162461bcd60e51b8152602060048201526011602482015270736c6963655f6f75744f66426f756e647360781b604482015290519081900360640190fd5b606082158015611aae5760405191506000825260208201604052611af8565b6040519150601f8416801560200281840101858101878315602002848b0101015b81831015611ae7578051835260209283019201611acf565b5050858452601f01601f1916604052505b50949350505050565b600081826014011015611b50576040805162461bcd60e51b8152602060048201526012602482015271746f416464726573735f6f766572666c6f7760701b604482015290519081900360640190fd5b8160140183511015611ba1576040805162461bcd60e51b8152602060048201526015602482015274746f416464726573735f6f75744f66426f756e647360581b604482015290519081900360640190fd5b500160200151600160601b900490565b600081826003011015611bff576040805162461bcd60e51b8152602060048201526011602482015270746f55696e7432345f6f766572666c6f7760781b604482015290519081900360640190fd5b8160030183511015611c4f576040805162461bcd60e51b8152602060048201526014602482015273746f55696e7432345f6f75744f66426f756e647360601b604482015290519081900360640190fd5b50016003015190565b611c60611ee0565b826001600160a01b0316846001600160a01b03161115611c7e579192915b50604080516060810182526001600160a01b03948516815292909316602083015262ffffff169181019190915290565b6000611cba8383611e21565b9050336001600160a01b038216146114dd57600080fd5b604080516001600160a01b0385811660248301528481166044830152606480830185905283518084039091018152608490920183526020820180516001600160e01b03166323b872dd60e01b178152925182516000948594938a169392918291908083835b60208310611d555780518252601f199092019160209182019101611d36565b6001836020036101000a0380198251168184511680821785525050505050509050019150506000604051808303816000865af19150503d8060008114611db7576040519150601f19603f3d011682016040523d82523d6000602084013e611dbc565b606091505b5091509150818015611dea575080511580611dea5750808060200190516020811015611de757600080fd5b50515b610851576040805162461bcd60e51b815260206004820152600360248201526229aa2360e91b604482015290519081900360640190fd5b600081602001516001600160a01b031682600001516001600160a01b031610611e4957600080fd5b81516020808401516040808601518151630b4c774160e11b81526001600160a01b039586166004820152928516602484015262ffffff1660448301525192861692631698ee8292606480840193919291829003018186803b158015611ead57600080fd5b505afa158015611ec1573d6000803e3d6000fd5b505050506040513d6020811015611ed757600080fd5b50519392505050565b604080516060810182526000808252602082018190529181019190915290565b80356114ea816126ff565b600082601f830112611f1b578081fd5b8135611f2e611f29826126b1565b61268d565b818152846020838601011115611f42578283fd5b816020850160208301379081016020019190915292915050565b60006101008284031215610430578081fd5b600060208284031215611f7f578081fd5b8135611f8a816126ff565b9392505050565b60008060408385031215611fa3578081fd5b8235611fae816126ff565b91506020830135611fbe816126ff565b809150509250929050565b600080600060608486031215611fdd578081fd5b8335611fe8816126ff565b9250602084013591506040840135611fff816126ff565b809150509250925092565b600080600080600060a08688031215612021578081fd5b853561202c816126ff565b9450602086013593506040860135612043816126ff565b925060608601359150608086013561205a816126ff565b809150509295509295909350565b60008060008060008060c08789031215612080578081fd5b863561208b816126ff565b95506020870135945060408701359350606087013560ff811681146120ae578182fd5b9598949750929560808101359460a0909101359350915050565b600080602083850312156120da578182fd5b823567ffffffffffffffff808211156120f1578384fd5b818501915085601f830112612104578384fd5b813581811115612112578485fd5b8660208083028501011115612125578485fd5b60209290920196919550909350505050565b60008060408385031215612149578182fd5b505080516020909101519092909150565b6000806000806060858703121561216f578182fd5b8435935060208501359250604085013567ffffffffffffffff80821115612194578384fd5b818701915087601f8301126121a7578384fd5b8135818111156121b5578485fd5b8860208285010111156121c6578485fd5b95989497505060200194505050565b6000602082840312156121e6578081fd5b815167ffffffffffffffff8111156121fc578182fd5b8201601f8101841361220c578182fd5b805161221a611f29826126b1565b81815285602083850101111561222e578384fd5b61181e8260208301602086016126d3565b600060208284031215612250578081fd5b813567ffffffffffffffff80821115612267578283fd5b9083019060a0828603121561227a578283fd5b60405160a08101818110838211171561228f57fe5b6040528235828111156122a0578485fd5b6122ac87828601611f0b565b8252506122bb60208401611f00565b602082015260408301356040820152606083013560608201526080830135608082015280935050505092915050565b600061010082840312156122fc578081fd5b611f8a8383611f5c565b600060208284031215612317578081fd5b813567ffffffffffffffff81111561232d578182fd5b820160a08185031215611f8a578182fd5b60006020828403121561234f578081fd5b813567ffffffffffffffff80821115612366578283fd5b9083019060408286031215612379578283fd5b60405160408101818110838211171561238e57fe5b60405282358281111561239f578485fd5b6123ab87828601611f0b565b825250602083013592506123be836126ff565b6020810192909252509392505050565b6000602082840312156123df578081fd5b813562ffffff81168114611f8a578182fd5b60008060408385031215612403578182fd5b823591506020830135611fbe816126ff565b6000806000806080858703121561242a578182fd5b84359350602085013561243c816126ff565b9250604085013591506060850135612453816126ff565b939692955090935050565b600081518084526124768160208601602086016126d3565b601f01601f19169290920160200192915050565b606093841b6bffffffffffffffffffffffff19908116825260e89390931b6001600160e81b0319166014820152921b166017820152602b0190565b6000828483379101908152919050565b6001600160a01b0391909116815260200190565b6001600160a01b0386811682528515156020830152604082018590528316606082015260a0608082018190526000906125249083018461245e565b979650505050505050565b6000602080830181845280855180835260408601915060408482028701019250838701855b8281101561258257603f1988860301845261257085835161245e565b94509285019290850190600101612554565b5092979650505050505050565b600060208252611f8a602083018461245e565b602080825260129082015271151bdbc81b5d58da081c995c5d595cdd195960721b604082015260600190565b602080825260139082015272151bdbc81b1a5d1d1b19481c9958d95a5d9959606a1b604082015260600190565b600060208252825160406020840152612617606084018261245e565b602094909401516001600160a01b0316604093909301929092525090919050565b90815260200190565b6000808335601e19843603018112612657578283fd5b83018035915067ffffffffffffffff821115612671578283fd5b60200191503681900382131561268657600080fd5b9250929050565b60405181810167ffffffffffffffff811182821017156126a957fe5b604052919050565b600067ffffffffffffffff8211156126c557fe5b50601f01601f191660200190565b60005b838110156126ee5781810151838201526020016126d6565b83811115610de25750506000910152565b6001600160a01b038116811461271457600080fd5b5056fe496e697469616c697a61626c653a20636f6e747261637420697320616c726561647920696e697469616c697a6564a164736f6c6343000706000a",
  "linkReferences": {},
  "deployedLinkReferences": {}
}