{
  "_format": "hh-sol-artifact-1",
  "contractName": "SwapRouter",
  "sourceName": "contracts/SwapRouter.sol",
  "abi": [
    {
      "inputs": [],
      "name": "WETH9",
      "outputs": [
        {
          "internalType": "address",
          "name": "",
          "type": "address"
        }
      ],
      "stateMutability": "view",
      "type": "function"
    },
    {
      "inputs": [
        {
          "components": [
            {
              "internalType": "bytes",
              "name": "path",
              "type": "bytes"
            },
            {
              "internalType": "address",
              "name": "recipient",
              "type": "address"
            },
            {
              "internalType": "uint256",
              "name": "deadline",
              "type": "uint256"
            },
            {
              "internalType": "uint256",
              "name": "amountIn",
              "type": "uint256"
            },
            {
              "internalType": "uint256",
              "name": "amountOutMinimum",
              "type": "uint256"
            }
          ],
          "internalType": "struct ISwapRouter.ExactInputParams",
          "name": "params",
          "type": "tuple"
        }
      ],
      "name": "exactInput",
      "outputs": [
        {
          "internalType": "uint256",
          "name": "amountOut",
          "type": "uint256"
        }
      ],
      "stateMutability": "payable",
      "type": "function"
    },
    {
      "inputs": [
        {
          "components": [
            {
              "internalType": "address",
              "name": "tokenIn",
              "type": "address"
            },
            {
              "internalType": "address",
              "name": "tokenOut",
              "type": "address"
            },
            {
              "internalType": "uint24",
              "name": "fee",
              "type": "uint24"
            },
            {
              "internalType": "address",
              "name": "recipient",
              "type": "address"
            },
            {
              "internalType": "uint256",
              "name": "deadline",
              "type": "uint256"
            },
            {
              "internalType": "uint256",
              "name": "amountIn",
              "type": "uint256"
            },
            {
              "internalType": "uint256",
              "name": "amountOutMinimum",
              "type": "uint256"
            },
            {
              "internalType": "uint160",
              "name": "sqrtPriceLimitX96",
              "type": "uint160"
            }
          ],
          "internalType": "struct ISwapRouter.ExactInputSingleParams",
          "name": "params",
          "type": "tuple"
        }
      ],
      "name": "exactInputSingle",
      "outputs": [
        {
          "internalType": "uint256",
          "name": "amountOut",
          "type": "uint256"
        }
      ],
      "stateMutability": "payable",
      "type": "function"
    },
    {
      "inputs": [
        {
          "components": [
            {
              "internalType": "bytes",
              "name": "path",
              "type": "bytes"
            },
            {
              "internalType": "address",
              "name": "recipient",
              "type": "address"
            },
            {
              "internalType": "uint256",
              "name": "deadline",
              "type": "uint256"
            },
            {
              "internalType": "uint256",
              "name": "amountOut",
              "type": "uint256"
            },
            {
              "internalType": "uint256",
              "name": "amountInMaximum",
              "type": "uint256"
            }
          ],
          "internalType": "struct ISwapRouter.ExactOutputParams",
          "name": "params",
          "type": "tuple"
        }
      ],
      "name": "exactOutput",
      "outputs": [
        {
          "internalType": "uint256",
          "name": "amountIn",
          "type": "uint256"
        }
      ],
      "stateMutability": "payable",
      "type": "function"
    },
    {
      "inputs": [
        {
          "components": [
            {
              "internalType": "address",
              "name": "tokenIn",
              "type": "address"
            },
            {
              "internalType": "address",
              "name": "tokenOut",
              "type": "address"
            },
            {
              "internalType": "uint24",
              "name": "fee",
              "type": "uint24"
            },
            {
              "internalType": "address",
              "name": "recipient",
              "type": "address"
            },
            {
              "internalType": "uint256",
              "name": "deadline",
              "type": "uint256"
            },
            {
              "internalType": "uint256",
              "name": "amountOut",
              "type": "uint256"
            },
            {
              "internalType": "uint256",
              "name": "amountInMaximum",
              "type": "uint256"
            },
            {
              "internalType": "uint160",
              "name": "sqrtPriceLimitX96",
              "type": "uint160"
            }
          ],
          "internalType": "struct ISwapRouter.ExactOutputSingleParams",
          "name": "params",
          "type": "tuple"
        }
      ],
      "name": "exactOutputSingle",
      "outputs": [
        {
          "internalType": "uint256",
          "name": "amountIn",
          "type": "uint256"
        }
      ],
      "stateMutability": "payable",
      "type": "function"
    },
    {
      "inputs": [],
      "name": "factory",
      "outputs": [
        {
          "internalType": "address",
          "name": "",
          "type": "address"
        }
      ],
      "stateMutability": "view",
      "type": "function"
    },
    {
      "inputs": [
        {
          "internalType": "address",
          "name": "_factory",
          "type": "address"
        },
        {
          "internalType": "address",
          "name": "_WETH9",
          "type": "address"
        }
      ],
      "name": "initialize",
      "outputs": [],
      "stateMutability": "nonpayable",
      "type": "function"
    },
    {
      "inputs": [
        {
          "internalType": "bytes[]",
          "name": "data",
          "type": "bytes[]"
        }
      ],
      "name": "multicall",
      "outputs": [
        {
          "internalType": "bytes[]",
          "name": "results",
          "type": "bytes[]"
        }
      ],
      "stateMutability": "payable",
      "type": "function"
    },
    {
      "inputs": [],
      "name": "refundETH",
      "outputs": [],
      "stateMutability": "payable",
      "type": "function"
    },
    {
      "inputs": [
        {
          "internalType": "address",
          "name": "token",
          "type": "address"
        },
        {
          "internalType": "uint256",
          "name": "value",
          "type": "uint256"
        },
        {
          "internalType": "uint256",
          "name": "deadline",
          "type": "uint256"
        },
        {
          "internalType": "uint8",
          "name": "v",
          "type": "uint8"
        },
        {
          "internalType": "bytes32",
          "name": "r",
          "type": "bytes32"
        },
        {
          "internalType": "bytes32",
          "name": "s",
          "type": "bytes32"
        }
      ],
      "name": "selfPermit",
      "outputs": [],
      "stateMutability": "payable",
      "type": "function"
    },
    {
      "inputs": [
        {
          "internalType": "address",
          "name": "token",
          "type": "address"
        },
        {
          "internalType": "uint256",
          "name": "nonce",
          "type": "uint256"
        },
        {
          "internalType": "uint256",
          "name": "expiry",
          "type": "uint256"
        },
        {
          "internalType": "uint8",
          "name": "v",
          "type": "uint8"
        },
        {
          "internalType": "bytes32",
          "name": "r",
          "type": "bytes32"
        },
        {
          "internalType": "bytes32",
          "name": "s",
          "type": "bytes32"
        }
      ],
      "name": "selfPermitAllowed",
      "outputs": [],
      "stateMutability": "payable",
      "type": "function"
    },
    {
      "inputs": [
        {
          "internalType": "address",
          "name": "token",
          "type": "address"
        },
        {
          "internalType": "uint256",
          "name": "nonce",
          "type": "uint256"
        },
        {
          "internalType": "uint256",
          "name": "expiry",
          "type": "uint256"
        },
        {
          "internalType": "uint8",
          "name": "v",
          "type": "uint8"
        },
        {
          "internalType": "bytes32",
          "name": "r",
          "type": "bytes32"
        },
        {
          "internalType": "bytes32",
          "name": "s",
          "type": "bytes32"
        }
      ],
      "name": "selfPermitAllowedIfNecessary",
      "outputs": [],
      "stateMutability": "payable",
      "type": "function"
    },
    {
      "inputs": [
        {
          "internalType": "address",
          "name": "token",
          "type": "address"
        },
        {
          "internalType": "uint256",
          "name": "value",
          "type": "uint256"
        },
        {
          "internalType": "uint256",
          "name": "deadline",
          "type": "uint256"
        },
        {
          "internalType": "uint8",
          "name": "v",
          "type": "uint8"
        },
        {
          "internalType": "bytes32",
          "name": "r",
          "type": "bytes32"
        },
        {
          "internalType": "bytes32",
          "name": "s",
          "type": "bytes32"
        }
      ],
      "name": "selfPermitIfNecessary",
      "outputs": [],
      "stateMutability": "payable",
      "type": "function"
    },
    {
      "inputs": [
        {
          "internalType": "address",
          "name": "token",
          "type": "address"
        },
        {
          "internalType": "uint256",
          "name": "amountMinimum",
          "type": "uint256"
        },
        {
          "internalType": "address",
          "name": "recipient",
          "type": "address"
        }
      ],
      "name": "sweepToken",
      "outputs": [],
      "stateMutability": "payable",
      "type": "function"
    },
    {
      "inputs": [
        {
          "internalType": "address",
          "name": "token",
          "type": "address"
        },
        {
          "internalType": "uint256",
          "name": "amountMinimum",
          "type": "uint256"
        },
        {
          "internalType": "address",
          "name": "recipient",
          "type": "address"
        },
        {
          "internalType": "uint256",
          "name": "feeBips",
          "type": "uint256"
        },
        {
          "internalType": "address",
          "name": "feeRecipient",
          "type": "address"
        }
      ],
      "name": "sweepTokenWithFee",
      "outputs": [],
      "stateMutability": "payable",
      "type": "function"
    },
    {
      "inputs": [
        {
          "internalType": "int256",
          "name": "amount0Delta",
          "type": "int256"
        },
        {
          "internalType": "int256",
          "name": "amount1Delta",
          "type": "int256"
        },
        {
          "internalType": "bytes",
          "name": "_data",
          "type": "bytes"
        }
      ],
      "name": "uniswapV3SwapCallback",
      "outputs": [],
      "stateMutability": "nonpayable",
      "type": "function"
    },
    {
      "inputs": [
        {
          "internalType": "uint256",
          "name": "amountMinimum",
          "type": "uint256"
        },
        {
          "internalType": "address",
          "name": "recipient",
          "type": "address"
        }
      ],
      "name": "unwrapWETH9",
      "outputs": [],
      "stateMutability": "payable",
      "type": "function"
    },
    {
      "inputs": [
        {
          "internalType": "uint256",
          "name": "amountMinimum",
          "type": "uint256"
        },
        {
          "internalType": "address",
          "name": "recipient",
          "type": "address"
        },
        {
          "internalType": "uint256",
          "name": "feeBips",
          "type": "uint256"
        },
        {
          "internalType": "address",
          "name": "feeRecipient",
          "type": "address"
        }
      ],
      "name": "unwrapWETH9WithFee",
      "outputs": [],
      "stateMutability": "payable",
      "type": "function"
    },
    {
      "stateMutability": "payable",
      "type": "receive"
    }
  ],
  "bytecode": "0x608060405260001960025534801561001657600080fd5b506131e1806100266000396000f3fe60806040526004361061012d5760003560e01c8063c04b8d59116100a5578063df2ab5bb11610074578063f28c049811610059578063f28c049814610312578063f3995c6714610325578063fa461e3314610338576101ba565b8063df2ab5bb146102ec578063e0e189a0146102ff576101ba565b8063c04b8d591461029e578063c2e3140a146102b1578063c45a0155146102c4578063db3e2198146102d9576101ba565b806349404b7c116100fc5780639b2c0a37116100e15780639b2c0a3714610258578063a4a78f0c1461026b578063ac9650d81461027e576101ba565b806349404b7c146102235780634aa4a4fc14610236576101ba565b806312210e8a146101bf578063414bf389146101c75780634659a494146101f0578063485cc95514610203576101ba565b366101ba5760015473ffffffffffffffffffffffffffffffffffffffff1633146101b857604080517f08c379a000000000000000000000000000000000000000000000000000000000815260206004820152600960248201527f4e6f742057455448390000000000000000000000000000000000000000000000604482015290519081900360640190fd5b005b600080fd5b6101b8610358565b6101da6101d5366004612c90565b61036a565b6040516101e7919061307e565b60405180910390f35b6101b86101fe366004612a0e565b6104dc565b34801561020f57600080fd5b506101b861021e366004612937565b61059c565b6101b8610231366004612d97565b6106bc565b34801561024257600080fd5b5061024b610865565b6040516101e79190612ec4565b6101b8610266366004612dbb565b610881565b6101b8610279366004612a0e565b610a81565b61029161028c366004612a6e565b610b56565b6040516101e79190612f37565b6101da6102ac366004612be5565b610cb0565b6101b86102bf366004612a0e565b610e0f565b3480156102d057600080fd5b5061024b610ec4565b6101da6102e7366004612c90565b610ee6565b6101b86102fa36600461296f565b611076565b6101b861030d3660046129b0565b611193565b6101da610320366004612cac565b6112f9565b6101b8610333366004612a0e565b61142d565b34801561034457600080fd5b506101b8610353366004612b00565b6114c5565b471561036857610368334761160e565b565b600081608001358061037a61175c565b11156103e757604080517f08c379a000000000000000000000000000000000000000000000000000000000815260206004820152601360248201527f5472616e73616374696f6e20746f6f206f6c6400000000000000000000000000604482015290519081900360640190fd5b61048d60a08401356103ff6080860160608701612914565b610410610100870160e08801612914565b604080518082019091528061042860208a018a612914565b61043860608b0160408c01612d74565b61044860408c0160208d01612914565b60405160200161045a93929190612e4e565b60405160208183030381529060405281526020013373ffffffffffffffffffffffffffffffffffffffff16815250611760565b91508260c001358210156104d6576040517f08c379a00000000000000000000000000000000000000000000000000000000081526004016104cd90612fff565b60405180910390fd5b50919050565b604080517f8fcbaf0c00000000000000000000000000000000000000000000000000000000815233600482015230602482015260448101879052606481018690526001608482015260ff851660a482015260c4810184905260e48101839052905173ffffffffffffffffffffffffffffffffffffffff881691638fcbaf0c9161010480830192600092919082900301818387803b15801561057c57600080fd5b505af1158015610590573d6000803e3d6000fd5b50505050505050505050565b600054610100900460ff16806105b557506105b56118e6565b806105c3575060005460ff16155b610618576040517f08c379a000000000000000000000000000000000000000000000000000000000815260040180806020018281038252602e8152602001806131a7602e913960400191505060405180910390fd5b600054610100900460ff1615801561067e57600080547fffffffffffffffffffffffffffffffffffffffffffffffffffffffffffffff007fffffffffffffffffffffffffffffffffffffffffffffffffffffffffffff00ff909116610100171660011790555b61068883836118f7565b80156106b757600080547fffffffffffffffffffffffffffffffffffffffffffffffffffffffffffff00ff1690555b505050565b600154604080517f70a08231000000000000000000000000000000000000000000000000000000008152306004820152905160009273ffffffffffffffffffffffffffffffffffffffff16916370a08231916024808301926020929190829003018186803b15801561072d57600080fd5b505afa158015610741573d6000803e3d6000fd5b505050506040513d602081101561075757600080fd5b50519050828110156107ca57604080517f08c379a000000000000000000000000000000000000000000000000000000000815260206004820152601260248201527f496e73756666696369656e742057455448390000000000000000000000000000604482015290519081900360640190fd5b80156106b757600154604080517f2e1a7d4d00000000000000000000000000000000000000000000000000000000815260048101849052905173ffffffffffffffffffffffffffffffffffffffff90921691632e1a7d4d9160248082019260009290919082900301818387803b15801561084357600080fd5b505af1158015610857573d6000803e3d6000fd5b505050506106b7828261160e565b60015473ffffffffffffffffffffffffffffffffffffffff1681565b600082118015610892575060648211155b61089b57600080fd5b600154604080517f70a08231000000000000000000000000000000000000000000000000000000008152306004820152905160009273ffffffffffffffffffffffffffffffffffffffff16916370a08231916024808301926020929190829003018186803b15801561090c57600080fd5b505afa158015610920573d6000803e3d6000fd5b505050506040513d602081101561093657600080fd5b50519050848110156109a957604080517f08c379a000000000000000000000000000000000000000000000000000000000815260206004820152601260248201527f496e73756666696369656e742057455448390000000000000000000000000000604482015290519081900360640190fd5b8015610a7a57600154604080517f2e1a7d4d00000000000000000000000000000000000000000000000000000000815260048101849052905173ffffffffffffffffffffffffffffffffffffffff90921691632e1a7d4d9160248082019260009290919082900301818387803b158015610a2257600080fd5b505af1158015610a36573d6000803e3d6000fd5b505050506000612710610a528584611a8890919063ffffffff16565b81610a5957fe5b0490508015610a6c57610a6c838261160e565b610a788582840361160e565b505b5050505050565b604080517fdd62ed3e00000000000000000000000000000000000000000000000000000000815233600482015230602482015290517fffffffffffffffffffffffffffffffffffffffffffffffffffffffffffffffff9173ffffffffffffffffffffffffffffffffffffffff89169163dd62ed3e91604480820192602092909190829003018186803b158015610b1657600080fd5b505afa158015610b2a573d6000803e3d6000fd5b505050506040513d6020811015610b4057600080fd5b50511015610a7857610a788686868686866104dc565b60608167ffffffffffffffff81118015610b6f57600080fd5b50604051908082528060200260200182016040528015610ba357816020015b6060815260200190600190039081610b8e5790505b50905060005b82811015610ca95760008030868685818110610bc157fe5b9050602002810190610bd39190613087565b604051610be1929190612eb4565b600060405180830381855af49150503d8060008114610c1c576040519150601f19603f3d011682016040523d82523d6000602084013e610c21565b606091505b509150915081610c8757604481511015610c3a57600080fd5b60048101905080806020019051810190610c549190612b7b565b6040517f08c379a00000000000000000000000000000000000000000000000000000000081526004016104cd9190612fb5565b80848481518110610c9457fe5b60209081029190910101525050600101610ba9565b5092915050565b6000816040015180610cc061175c565b1115610d2d57604080517f08c379a000000000000000000000000000000000000000000000000000000000815260206004820152601360248201527f5472616e73616374696f6e20746f6f206f6c6400000000000000000000000000604482015290519081900360640190fd5b335b6000610d3e8560000151611ab2565b9050610d97856060015182610d57578660200151610d59565b305b60006040518060400160405280610d738b60000151611abe565b81526020018773ffffffffffffffffffffffffffffffffffffffff16815250611760565b60608601528015610db7578451309250610db090611acd565b8552610dc4565b8460600151935050610dca565b50610d2f565b8360800151831015610e08576040517f08c379a00000000000000000000000000000000000000000000000000000000081526004016104cd90612fff565b5050919050565b604080517fdd62ed3e0000000000000000000000000000000000000000000000000000000081523360048201523060248201529051869173ffffffffffffffffffffffffffffffffffffffff89169163dd62ed3e91604480820192602092909190829003018186803b158015610e8457600080fd5b505afa158015610e98573d6000803e3d6000fd5b505050506040513d6020811015610eae57600080fd5b50511015610a7857610a7886868686868661142d565b60005462010000900473ffffffffffffffffffffffffffffffffffffffff1681565b6000816080013580610ef661175c565b1115610f6357604080517f08c379a000000000000000000000000000000000000000000000000000000000815260206004820152601360248201527f5472616e73616374696f6e20746f6f206f6c6400000000000000000000000000604482015290519081900360640190fd5b61100c60a0840135610f7b6080860160608701612914565b610f8c610100870160e08801612914565b6040518060400160405280886020016020810190610faa9190612914565b610fba60608b0160408c01612d74565b610fc760208c018c612914565b604051602001610fd993929190612e4e565b60405160208183030381529060405281526020013373ffffffffffffffffffffffffffffffffffffffff16815250611b02565b91508260c0013582111561104c576040517f08c379a00000000000000000000000000000000000000000000000000000000081526004016104cd90612fc8565b507fffffffffffffffffffffffffffffffffffffffffffffffffffffffffffffffff600255919050565b60008373ffffffffffffffffffffffffffffffffffffffff166370a08231306040518263ffffffff1660e01b8152600401808273ffffffffffffffffffffffffffffffffffffffff16815260200191505060206040518083038186803b1580156110df57600080fd5b505afa1580156110f3573d6000803e3d6000fd5b505050506040513d602081101561110957600080fd5b505190508281101561117c57604080517f08c379a000000000000000000000000000000000000000000000000000000000815260206004820152601260248201527f496e73756666696369656e7420746f6b656e0000000000000000000000000000604482015290519081900360640190fd5b801561118d5761118d848383611cbe565b50505050565b6000821180156111a4575060648211155b6111ad57600080fd5b60008573ffffffffffffffffffffffffffffffffffffffff166370a08231306040518263ffffffff1660e01b8152600401808273ffffffffffffffffffffffffffffffffffffffff16815260200191505060206040518083038186803b15801561121657600080fd5b505afa15801561122a573d6000803e3d6000fd5b505050506040513d602081101561124057600080fd5b50519050848110156112b357604080517f08c379a000000000000000000000000000000000000000000000000000000000815260206004820152601260248201527f496e73756666696369656e7420746f6b656e0000000000000000000000000000604482015290519081900360640190fd5b8015610a785760006127106112c88386611a88565b816112cf57fe5b04905080156112e3576112e3878483611cbe565b6112f08786838503611cbe565b50505050505050565b600081604001358061130961175c565b111561137657604080517f08c379a000000000000000000000000000000000000000000000000000000000815260206004820152601360248201527f5472616e73616374696f6e20746f6f206f6c6400000000000000000000000000604482015290519081900360640190fd5b6113e9606084013561138e6040860160208701612914565b60408051808201909152600090806113a68980613087565b8080601f01602080910402602001604051908101604052809392919081815260200183838082843760009201919091525050509082525033602090910152611b02565b506002549150826080013582111561104c576040517f08c379a00000000000000000000000000000000000000000000000000000000081526004016104cd90612fc8565b604080517fd505accf000000000000000000000000000000000000000000000000000000008152336004820152306024820152604481018790526064810186905260ff8516608482015260a4810184905260c48101839052905173ffffffffffffffffffffffffffffffffffffffff88169163d505accf9160e480830192600092919082900301818387803b15801561057c57600080fd5b60008413806114d45750600083135b6114dd57600080fd5b60006114eb82840184612ce4565b905060008060006114ff8460000151611e93565b925092509250611533600060029054906101000a900473ffffffffffffffffffffffffffffffffffffffff16848484611ec4565b5060008060008a13611574578473ffffffffffffffffffffffffffffffffffffffff168473ffffffffffffffffffffffffffffffffffffffff1610896115a5565b8373ffffffffffffffffffffffffffffffffffffffff168573ffffffffffffffffffffffffffffffffffffffff16108a5b9150915081156115c4576115bf8587602001513384611ee3565b610590565b85516115cf90611ab2565b156115f45785516115df90611acd565b86526115ee8133600089611b02565b50610590565b806002819055508394506105908587602001513384611ee3565b6040805160008082526020820190925273ffffffffffffffffffffffffffffffffffffffff84169083906040518082805190602001908083835b6020831061168557805182527fffffffffffffffffffffffffffffffffffffffffffffffffffffffffffffffe09092019160209182019101611648565b6001836020036101000a03801982511681845116808217855250505050505090500191505060006040518083038185875af1925050503d80600081146116e7576040519150601f19603f3d011682016040523d82523d6000602084013e6116ec565b606091505b50509050806106b757604080517f08c379a000000000000000000000000000000000000000000000000000000000815260206004820152600360248201527f5354450000000000000000000000000000000000000000000000000000000000604482015290519081900360640190fd5b4290565b600073ffffffffffffffffffffffffffffffffffffffff8416611781573093505b60008060006117938560000151611e93565b9194509250905073ffffffffffffffffffffffffffffffffffffffff808316908416106000806117c486868661207b565b73ffffffffffffffffffffffffffffffffffffffff1663128acb088b856117ea8f6120b7565b73ffffffffffffffffffffffffffffffffffffffff8e161561180c578d611832565b8761182b5773fffd8963efd1fc6a506488495d951d5263988d25611832565b6401000276a45b8d6040516020016118439190613036565b6040516020818303038152906040526040518663ffffffff1660e01b8152600401611872959493929190612ee5565b6040805180830381600087803b15801561188b57600080fd5b505af115801561189f573d6000803e3d6000fd5b505050506040513d601f19601f820116820180604052508101906118c39190612add565b91509150826118d257816118d4565b805b6000039b9a5050505050505050505050565b60006118f1306120e9565b15905090565b600054610100900460ff168061191057506119106118e6565b8061191e575060005460ff16155b611973576040517f08c379a000000000000000000000000000000000000000000000000000000000815260040180806020018281038252602e8152602001806131a7602e913960400191505060405180910390fd5b600054610100900460ff161580156119d957600080547fffffffffffffffffffffffffffffffffffffffffffffffffffffffffffffff007fffffffffffffffffffffffffffffffffffffffffffffffffffffffffffff00ff909116610100171660011790555b600080547fffffffffffffffffffff0000000000000000000000000000000000000000ffff166201000073ffffffffffffffffffffffffffffffffffffffff8681169190910291909117909155600180547fffffffffffffffffffffffff00000000000000000000000000000000000000001691841691909117905580156106b757600080547fffffffffffffffffffffffffffffffffffffffffffffffffffffffffffff00ff169055505050565b6000821580611aa357505081810281838281611aa057fe5b04145b611aac57600080fd5b92915050565b8051604211155b919050565b6060611aac826000602b6120ef565b8051606090611aac9083906017907fffffffffffffffffffffffffffffffffffffffffffffffffffffffffffffffe9016120ef565b600073ffffffffffffffffffffffffffffffffffffffff8416611b23573093505b6000806000611b358560000151611e93565b9194509250905073ffffffffffffffffffffffffffffffffffffffff80841690831610600080611b6685878661207b565b73ffffffffffffffffffffffffffffffffffffffff1663128acb088b85611b8c8f6120b7565b60000373ffffffffffffffffffffffffffffffffffffffff8e1615611bb1578d611bd7565b87611bd05773fffd8963efd1fc6a506488495d951d5263988d25611bd7565b6401000276a45b8d604051602001611be89190613036565b6040516020818303038152906040526040518663ffffffff1660e01b8152600401611c17959493929190612ee5565b6040805180830381600087803b158015611c3057600080fd5b505af1158015611c44573d6000803e3d6000fd5b505050506040513d601f19601f82011682018060405250810190611c689190612add565b91509150600083611c7d578183600003611c83565b82826000035b909850905073ffffffffffffffffffffffffffffffffffffffff8a16611caf578b8114611caf57600080fd5b50505050505050949350505050565b6040805173ffffffffffffffffffffffffffffffffffffffff8481166024830152604480830185905283518084039091018152606490920183526020820180517bffffffffffffffffffffffffffffffffffffffffffffffffffffffff167fa9059cbb000000000000000000000000000000000000000000000000000000001781529251825160009485949389169392918291908083835b60208310611d9357805182527fffffffffffffffffffffffffffffffffffffffffffffffffffffffffffffffe09092019160209182019101611d56565b6001836020036101000a0380198251168184511680821785525050505050509050019150506000604051808303816000865af19150503d8060008114611df5576040519150601f19603f3d011682016040523d82523d6000602084013e611dfa565b606091505b5091509150818015611e28575080511580611e285750808060200190516020811015611e2557600080fd5b50515b610a7a57604080517f08c379a000000000000000000000000000000000000000000000000000000000815260206004820152600260248201527f5354000000000000000000000000000000000000000000000000000000000000604482015290519081900360640190fd5b60008080611ea184826122d6565b9250611eae8460146123d6565b9050611ebb8460176122d6565b91509193909250565b6000611eda85611ed58686866124c6565b612543565b95945050505050565b60015473ffffffffffffffffffffffffffffffffffffffff8581169116148015611f0d5750804710155b1561204157600160009054906101000a900473ffffffffffffffffffffffffffffffffffffffff1673ffffffffffffffffffffffffffffffffffffffff1663d0e30db0826040518263ffffffff1660e01b81526004016000604051808303818588803b158015611f7c57600080fd5b505af1158015611f90573d6000803e3d6000fd5b5050600154604080517fa9059cbb00000000000000000000000000000000000000000000000000000000815273ffffffffffffffffffffffffffffffffffffffff888116600483015260248201889052915191909216945063a9059cbb9350604480830193506020928290030181600087803b15801561200f57600080fd5b505af1158015612023573d6000803e3d6000fd5b505050506040513d602081101561203957600080fd5b5061118d9050565b73ffffffffffffffffffffffffffffffffffffffff831630141561206f5761206a848383611cbe565b61118d565b61118d84848484612573565b600080546120af9062010000900473ffffffffffffffffffffffffffffffffffffffff166120aa8686866124c6565b612750565b949350505050565b60007f800000000000000000000000000000000000000000000000000000000000000082106120e557600080fd5b5090565b3b151590565b60608182601f01101561216357604080517f08c379a000000000000000000000000000000000000000000000000000000000815260206004820152600e60248201527f736c6963655f6f766572666c6f77000000000000000000000000000000000000604482015290519081900360640190fd5b8282840110156121d457604080517f08c379a000000000000000000000000000000000000000000000000000000000815260206004820152600e60248201527f736c6963655f6f766572666c6f77000000000000000000000000000000000000604482015290519081900360640190fd5b8183018451101561224657604080517f08c379a000000000000000000000000000000000000000000000000000000000815260206004820152601160248201527f736c6963655f6f75744f66426f756e6473000000000000000000000000000000604482015290519081900360640190fd5b60608215801561226557604051915060008252602082016040526122cd565b6040519150601f8416801560200281840101858101878315602002848b0101015b8183101561229e578051835260209283019201612286565b5050858452601f017fffffffffffffffffffffffffffffffffffffffffffffffffffffffffffffffe016604052505b50949350505050565b60008182601401101561234a57604080517f08c379a000000000000000000000000000000000000000000000000000000000815260206004820152601260248201527f746f416464726573735f6f766572666c6f770000000000000000000000000000604482015290519081900360640190fd5b81601401835110156123bd57604080517f08c379a000000000000000000000000000000000000000000000000000000000815260206004820152601560248201527f746f416464726573735f6f75744f66426f756e64730000000000000000000000604482015290519081900360640190fd5b5001602001516c01000000000000000000000000900490565b60008182600301101561244a57604080517f08c379a000000000000000000000000000000000000000000000000000000000815260206004820152601160248201527f746f55696e7432345f6f766572666c6f77000000000000000000000000000000604482015290519081900360640190fd5b81600301835110156124bd57604080517f08c379a000000000000000000000000000000000000000000000000000000000815260206004820152601460248201527f746f55696e7432345f6f75744f66426f756e6473000000000000000000000000604482015290519081900360640190fd5b50016003015190565b6124ce612886565b8273ffffffffffffffffffffffffffffffffffffffff168473ffffffffffffffffffffffffffffffffffffffff161115612506579192915b506040805160608101825273ffffffffffffffffffffffffffffffffffffffff948516815292909316602083015262ffffff169181019190915290565b600061254f8383612750565b90503373ffffffffffffffffffffffffffffffffffffffff821614611aac57600080fd5b6040805173ffffffffffffffffffffffffffffffffffffffff85811660248301528481166044830152606480830185905283518084039091018152608490920183526020820180517bffffffffffffffffffffffffffffffffffffffffffffffffffffffff167f23b872dd00000000000000000000000000000000000000000000000000000000178152925182516000948594938a169392918291908083835b6020831061265057805182527fffffffffffffffffffffffffffffffffffffffffffffffffffffffffffffffe09092019160209182019101612613565b6001836020036101000a0380198251168184511680821785525050505050509050019150506000604051808303816000865af19150503d80600081146126b2576040519150601f19603f3d011682016040523d82523d6000602084013e6126b7565b606091505b50915091508180156126e55750805115806126e557508080602001905160208110156126e257600080fd5b50515b610a7857604080517f08c379a000000000000000000000000000000000000000000000000000000000815260206004820152600360248201527f5354460000000000000000000000000000000000000000000000000000000000604482015290519081900360640190fd5b6000816020015173ffffffffffffffffffffffffffffffffffffffff16826000015173ffffffffffffffffffffffffffffffffffffffff161061279257600080fd5b508051602080830151604093840151845173ffffffffffffffffffffffffffffffffffffffff94851681850152939091168385015262ffffff166060808401919091528351808403820181526080840185528051908301207fff0000000000000000000000000000000000000000000000000000000000000060a085015294901b7fffffffffffffffffffffffffffffffffffffffff0000000000000000000000001660a183015260b58201939093527fe34f199b19b2b4f47f68442619d555527d244f78a3297ea89325f843f87b8b5460d5808301919091528251808303909101815260f5909101909152805191012090565b604080516060810182526000808252602082018190529181019190915290565b8035611ab981613181565b600082601f8301126128c1578081fd5b81356128d46128cf82613115565b6130f1565b8181528460208386010111156128e8578283fd5b816020850160208301379081016020019190915292915050565b600061010082840312156104d6578081fd5b600060208284031215612925578081fd5b813561293081613181565b9392505050565b60008060408385031215612949578081fd5b823561295481613181565b9150602083013561296481613181565b809150509250929050565b600080600060608486031215612983578081fd5b833561298e81613181565b92506020840135915060408401356129a581613181565b809150509250925092565b600080600080600060a086880312156129c7578081fd5b85356129d281613181565b94506020860135935060408601356129e981613181565b9250606086013591506080860135612a0081613181565b809150509295509295909350565b60008060008060008060c08789031215612a26578081fd5b8635612a3181613181565b95506020870135945060408701359350606087013560ff81168114612a54578182fd5b9598949750929560808101359460a0909101359350915050565b60008060208385031215612a80578182fd5b823567ffffffffffffffff80821115612a97578384fd5b818501915085601f830112612aaa578384fd5b813581811115612ab8578485fd5b8660208083028501011115612acb578485fd5b60209290920196919550909350505050565b60008060408385031215612aef578182fd5b505080516020909101519092909150565b60008060008060608587031215612b15578182fd5b8435935060208501359250604085013567ffffffffffffffff80821115612b3a578384fd5b818701915087601f830112612b4d578384fd5b813581811115612b5b578485fd5b886020828501011115612b6c578485fd5b95989497505060200194505050565b600060208284031215612b8c578081fd5b815167ffffffffffffffff811115612ba2578182fd5b8201601f81018413612bb2578182fd5b8051612bc06128cf82613115565b818152856020838501011115612bd4578384fd5b611eda826020830160208601613155565b600060208284031215612bf6578081fd5b813567ffffffffffffffff80821115612c0d578283fd5b9083019060a08286031215612c20578283fd5b60405160a081018181108382111715612c3557fe5b604052823582811115612c46578485fd5b612c52878286016128b1565b825250612c61602084016128a6565b602082015260408301356040820152606083013560608201526080830135608082015280935050505092915050565b60006101008284031215612ca2578081fd5b6129308383612902565b600060208284031215612cbd578081fd5b813567ffffffffffffffff811115612cd3578182fd5b820160a08185031215612930578182fd5b600060208284031215612cf5578081fd5b813567ffffffffffffffff80821115612d0c578283fd5b9083019060408286031215612d1f578283fd5b604051604081018181108382111715612d3457fe5b604052823582811115612d45578485fd5b612d51878286016128b1565b82525060208301359250612d6483613181565b6020810192909252509392505050565b600060208284031215612d85578081fd5b813562ffffff81168114612930578182fd5b60008060408385031215612da9578182fd5b82359150602083013561296481613181565b60008060008060808587031215612dd0578182fd5b843593506020850135612de281613181565b9250604085013591506060850135612df981613181565b939692955090935050565b60008151808452612e1c816020860160208601613155565b601f017fffffffffffffffffffffffffffffffffffffffffffffffffffffffffffffffe0169290920160200192915050565b606093841b7fffffffffffffffffffffffffffffffffffffffff000000000000000000000000908116825260e89390931b7fffffff0000000000000000000000000000000000000000000000000000000000166014820152921b166017820152602b0190565b6000828483379101908152919050565b73ffffffffffffffffffffffffffffffffffffffff91909116815260200190565b600073ffffffffffffffffffffffffffffffffffffffff8088168352861515602084015285604084015280851660608401525060a06080830152612f2c60a0830184612e04565b979650505050505050565b6000602080830181845280855180835260408601915060408482028701019250838701855b82811015612fa8577fffffffffffffffffffffffffffffffffffffffffffffffffffffffffffffffc0888603018452612f96858351612e04565b94509285019290850190600101612f5c565b5092979650505050505050565b6000602082526129306020830184612e04565b60208082526012908201527f546f6f206d756368207265717565737465640000000000000000000000000000604082015260600190565b60208082526013908201527f546f6f206c6974746c6520726563656976656400000000000000000000000000604082015260600190565b6000602082528251604060208401526130526060840182612e04565b905073ffffffffffffffffffffffffffffffffffffffff60208501511660408401528091505092915050565b90815260200190565b60008083357fffffffffffffffffffffffffffffffffffffffffffffffffffffffffffffffe18436030181126130bb578283fd5b83018035915067ffffffffffffffff8211156130d5578283fd5b6020019150368190038213156130ea57600080fd5b9250929050565b60405181810167ffffffffffffffff8111828210171561310d57fe5b604052919050565b600067ffffffffffffffff82111561312957fe5b50601f017fffffffffffffffffffffffffffffffffffffffffffffffffffffffffffffffe01660200190565b60005b83811015613170578181015183820152602001613158565b8381111561118d5750506000910152565b73ffffffffffffffffffffffffffffffffffffffff811681146131a357600080fd5b5056fe496e697469616c697a61626c653a20636f6e747261637420697320616c726561647920696e697469616c697a6564a164736f6c6343000706000a",
  "linkReferences": {},
  "deployedLinkReferences": {}
}