{
  "_format": "hh-sol-artifact-1",
  "contractName": "UniswapV3Pool",
  "sourceName": "contracts/UniswapV3Pool.sol",
  "abi": [
    {
      "anonymous": false,
      "inputs": [
        {
          "indexed": true,
          "internalType": "address",
          "name": "owner",
          "type": "address"
        },
        {
          "indexed": true,
          "internalType": "int24",
          "name": "tickLower",
          "type": "int24"
        },
        {
          "indexed": true,
          "internalType": "int24",
          "name": "tickUpper",
          "type": "int24"
        },
        {
          "indexed": false,
          "internalType": "uint128",
          "name": "amount",
          "type": "uint128"
        },
        {
          "indexed": false,
          "internalType": "uint256",
          "name": "amount0",
          "type": "uint256"
        },
        {
          "indexed": false,
          "internalType": "uint256",
          "name": "amount1",
          "type": "uint256"
        }
      ],
      "name": "Burn",
      "type": "event"
    },
    {
      "anonymous": false,
      "inputs": [
        {
          "indexed": true,
          "internalType": "address",
          "name": "owner",
          "type": "address"
        },
        {
          "indexed": false,
          "internalType": "address",
          "name": "recipient",
          "type": "address"
        },
        {
          "indexed": true,
          "internalType": "int24",
          "name": "tickLower",
          "type": "int24"
        },
        {
          "indexed": true,
          "internalType": "int24",
          "name": "tickUpper",
          "type": "int24"
        },
        {
          "indexed": false,
          "internalType": "uint128",
          "name": "amount0",
          "type": "uint128"
        },
        {
          "indexed": false,
          "internalType": "uint128",
          "name": "amount1",
          "type": "uint128"
        }
      ],
      "name": "Collect",
      "type": "event"
    },
    {
      "anonymous": false,
      "inputs": [
        {
          "indexed": true,
          "internalType": "address",
          "name": "sender",
          "type": "address"
        },
        {
          "indexed": true,
          "internalType": "address",
          "name": "recipient",
          "type": "address"
        },
        {
          "indexed": false,
          "internalType": "uint128",
          "name": "amount0",
          "type": "uint128"
        },
        {
          "indexed": false,
          "internalType": "uint128",
          "name": "amount1",
          "type": "uint128"
        }
      ],
      "name": "CollectProtocol",
      "type": "event"
    },
    {
      "anonymous": false,
      "inputs": [
        {
          "indexed": true,
          "internalType": "address",
          "name": "sender",
          "type": "address"
        },
        {
          "indexed": true,
          "internalType": "address",
          "name": "recipient",
          "type": "address"
        },
        {
          "indexed": false,
          "internalType": "uint256",
          "name": "amount0",
          "type": "uint256"
        },
        {
          "indexed": false,
          "internalType": "uint256",
          "name": "amount1",
          "type": "uint256"
        },
        {
          "indexed": false,
          "internalType": "uint256",
          "name": "paid0",
          "type": "uint256"
        },
        {
          "indexed": false,
          "internalType": "uint256",
          "name": "paid1",
          "type": "uint256"
        }
      ],
      "name": "Flash",
      "type": "event"
    },
    {
      "anonymous": false,
      "inputs": [
        {
          "indexed": false,
          "internalType": "uint16",
          "name": "observationCardinalityNextOld",
          "type": "uint16"
        },
        {
          "indexed": false,
          "internalType": "uint16",
          "name": "observationCardinalityNextNew",
          "type": "uint16"
        }
      ],
      "name": "IncreaseObservationCardinalityNext",
      "type": "event"
    },
    {
      "anonymous": false,
      "inputs": [
        {
          "indexed": false,
          "internalType": "uint160",
          "name": "sqrtPriceX96",
          "type": "uint160"
        },
        {
          "indexed": false,
          "internalType": "int24",
          "name": "tick",
          "type": "int24"
        }
      ],
      "name": "Initialize",
      "type": "event"
    },
    {
      "anonymous": false,
      "inputs": [
        {
          "indexed": false,
          "internalType": "address",
          "name": "sender",
          "type": "address"
        },
        {
          "indexed": true,
          "internalType": "address",
          "name": "owner",
          "type": "address"
        },
        {
          "indexed": true,
          "internalType": "int24",
          "name": "tickLower",
          "type": "int24"
        },
        {
          "indexed": true,
          "internalType": "int24",
          "name": "tickUpper",
          "type": "int24"
        },
        {
          "indexed": false,
          "internalType": "uint128",
          "name": "amount",
          "type": "uint128"
        },
        {
          "indexed": false,
          "internalType": "uint256",
          "name": "amount0",
          "type": "uint256"
        },
        {
          "indexed": false,
          "internalType": "uint256",
          "name": "amount1",
          "type": "uint256"
        }
      ],
      "name": "Mint",
      "type": "event"
    },
    {
      "anonymous": false,
      "inputs": [
        {
          "indexed": false,
          "internalType": "uint8",
          "name": "feeProtocol0Old",
          "type": "uint8"
        },
        {
          "indexed": false,
          "internalType": "uint8",
          "name": "feeProtocol1Old",
          "type": "uint8"
        },
        {
          "indexed": false,
          "internalType": "uint8",
          "name": "feeProtocol0New",
          "type": "uint8"
        },
        {
          "indexed": false,
          "internalType": "uint8",
          "name": "feeProtocol1New",
          "type": "uint8"
        }
      ],
      "name": "SetFeeProtocol",
      "type": "event"
    },
    {
      "anonymous": false,
      "inputs": [
        {
          "indexed": true,
          "internalType": "address",
          "name": "sender",
          "type": "address"
        },
        {
          "indexed": true,
          "internalType": "address",
          "name": "recipient",
          "type": "address"
        },
        {
          "indexed": false,
          "internalType": "int256",
          "name": "amount0",
          "type": "int256"
        },
        {
          "indexed": false,
          "internalType": "int256",
          "name": "amount1",
          "type": "int256"
        },
        {
          "indexed": false,
          "internalType": "uint160",
          "name": "sqrtPriceX96",
          "type": "uint160"
        },
        {
          "indexed": false,
          "internalType": "uint128",
          "name": "liquidity",
          "type": "uint128"
        },
        {
          "indexed": false,
          "internalType": "int24",
          "name": "tick",
          "type": "int24"
        }
      ],
      "name": "Swap",
      "type": "event"
    },
    {
      "inputs": [
        {
          "internalType": "int24",
          "name": "tickLower",
          "type": "int24"
        },
        {
          "internalType": "int24",
          "name": "tickUpper",
          "type": "int24"
        },
        {
          "internalType": "uint128",
          "name": "amount",
          "type": "uint128"
        }
      ],
      "name": "burn",
      "outputs": [
        {
          "internalType": "uint256",
          "name": "amount0",
          "type": "uint256"
        },
        {
          "internalType": "uint256",
          "name": "amount1",
          "type": "uint256"
        }
      ],
      "stateMutability": "nonpayable",
      "type": "function"
    },
    {
      "inputs": [
        {
          "internalType": "address",
          "name": "recipient",
          "type": "address"
        },
        {
          "internalType": "int24",
          "name": "tickLower",
          "type": "int24"
        },
        {
          "internalType": "int24",
          "name": "tickUpper",
          "type": "int24"
        },
        {
          "internalType": "uint128",
          "name": "amount0Requested",
          "type": "uint128"
        },
        {
          "internalType": "uint128",
          "name": "amount1Requested",
          "type": "uint128"
        }
      ],
      "name": "collect",
      "outputs": [
        {
          "internalType": "uint128",
          "name": "amount0",
          "type": "uint128"
        },
        {
          "internalType": "uint128",
          "name": "amount1",
          "type": "uint128"
        }
      ],
      "stateMutability": "nonpayable",
      "type": "function"
    },
    {
      "inputs": [
        {
          "internalType": "address",
          "name": "recipient",
          "type": "address"
        },
        {
          "internalType": "uint128",
          "name": "amount0Requested",
          "type": "uint128"
        },
        {
          "internalType": "uint128",
          "name": "amount1Requested",
          "type": "uint128"
        }
      ],
      "name": "collectProtocol",
      "outputs": [
        {
          "internalType": "uint128",
          "name": "amount0",
          "type": "uint128"
        },
        {
          "internalType": "uint128",
          "name": "amount1",
          "type": "uint128"
        }
      ],
      "stateMutability": "nonpayable",
      "type": "function"
    },
    {
      "inputs": [],
      "name": "factory",
      "outputs": [
        {
          "internalType": "address",
          "name": "",
          "type": "address"
        }
      ],
      "stateMutability": "view",
      "type": "function"
    },
    {
      "inputs": [],
      "name": "fee",
      "outputs": [
        {
          "internalType": "uint24",
          "name": "",
          "type": "uint24"
        }
      ],
      "stateMutability": "view",
      "type": "function"
    },
    {
      "inputs": [],
      "name": "feeGrowthGlobal0X128",
      "outputs": [
        {
          "internalType": "uint256",
          "name": "",
          "type": "uint256"
        }
      ],
      "stateMutability": "view",
      "type": "function"
    },
    {
      "inputs": [],
      "name": "feeGrowthGlobal1X128",
      "outputs": [
        {
          "internalType": "uint256",
          "name": "",
          "type": "uint256"
        }
      ],
      "stateMutability": "view",
      "type": "function"
    },
    {
      "inputs": [
        {
          "internalType": "address",
          "name": "recipient",
          "type": "address"
        },
        {
          "internalType": "uint256",
          "name": "amount0",
          "type": "uint256"
        },
        {
          "internalType": "uint256",
          "name": "amount1",
          "type": "uint256"
        },
        {
          "internalType": "bytes",
          "name": "data",
          "type": "bytes"
        }
      ],
      "name": "flash",
      "outputs": [],
      "stateMutability": "nonpayable",
      "type": "function"
    },
    {
      "inputs": [
        {
          "internalType": "uint16",
          "name": "observationCardinalityNext",
          "type": "uint16"
        }
      ],
      "name": "increaseObservationCardinalityNext",
      "outputs": [],
      "stateMutability": "nonpayable",
      "type": "function"
    },
    {
      "inputs": [],
      "name": "initialize",
      "outputs": [],
      "stateMutability": "nonpayable",
      "type": "function"
    },
    {
      "inputs": [
        {
          "internalType": "uint160",
          "name": "sqrtPriceX96",
          "type": "uint160"
        }
      ],
      "name": "initialize",
      "outputs": [],
      "stateMutability": "nonpayable",
      "type": "function"
    },
    {
      "inputs": [],
      "name": "liquidity",
      "outputs": [
        {
          "internalType": "uint128",
          "name": "",
          "type": "uint128"
        }
      ],
      "stateMutability": "view",
      "type": "function"
    },
    {
      "inputs": [],
      "name": "maxLiquidityPerTick",
      "outputs": [
        {
          "internalType": "uint128",
          "name": "",
          "type": "uint128"
        }
      ],
      "stateMutability": "view",
      "type": "function"
    },
    {
      "inputs": [
        {
          "internalType": "address",
          "name": "recipient",
          "type": "address"
        },
        {
          "internalType": "int24",
          "name": "tickLower",
          "type": "int24"
        },
        {
          "internalType": "int24",
          "name": "tickUpper",
          "type": "int24"
        },
        {
          "internalType": "uint128",
          "name": "amount",
          "type": "uint128"
        },
        {
          "internalType": "bytes",
          "name": "data",
          "type": "bytes"
        }
      ],
      "name": "mint",
      "outputs": [
        {
          "internalType": "uint256",
          "name": "amount0",
          "type": "uint256"
        },
        {
          "internalType": "uint256",
          "name": "amount1",
          "type": "uint256"
        }
      ],
      "stateMutability": "nonpayable",
      "type": "function"
    },
    {
      "inputs": [
        {
          "internalType": "uint256",
          "name": "",
          "type": "uint256"
        }
      ],
      "name": "observations",
      "outputs": [
        {
          "internalType": "uint32",
          "name": "blockTimestamp",
          "type": "uint32"
        },
        {
          "internalType": "int56",
          "name": "tickCumulative",
          "type": "int56"
        },
        {
          "internalType": "uint160",
          "name": "secondsPerLiquidityCumulativeX128",
          "type": "uint160"
        },
        {
          "internalType": "bool",
          "name": "initialized",
          "type": "bool"
        }
      ],
      "stateMutability": "view",
      "type": "function"
    },
    {
      "inputs": [
        {
          "internalType": "uint32[]",
          "name": "secondsAgos",
          "type": "uint32[]"
        }
      ],
      "name": "observe",
      "outputs": [
        {
          "internalType": "int56[]",
          "name": "tickCumulatives",
          "type": "int56[]"
        },
        {
          "internalType": "uint160[]",
          "name": "secondsPerLiquidityCumulativeX128s",
          "type": "uint160[]"
        }
      ],
      "stateMutability": "view",
      "type": "function"
    },
    {
      "inputs": [
        {
          "internalType": "bytes32",
          "name": "",
          "type": "bytes32"
        }
      ],
      "name": "positions",
      "outputs": [
        {
          "internalType": "uint128",
          "name": "liquidity",
          "type": "uint128"
        },
        {
          "internalType": "uint256",
          "name": "feeGrowthInside0LastX128",
          "type": "uint256"
        },
        {
          "internalType": "uint256",
          "name": "feeGrowthInside1LastX128",
          "type": "uint256"
        },
        {
          "internalType": "uint128",
          "name": "tokensOwed0",
          "type": "uint128"
        },
        {
          "internalType": "uint128",
          "name": "tokensOwed1",
          "type": "uint128"
        }
      ],
      "stateMutability": "view",
      "type": "function"
    },
    {
      "inputs": [],
      "name": "protocolFees",
      "outputs": [
        {
          "internalType": "uint128",
          "name": "token0",
          "type": "uint128"
        },
        {
          "internalType": "uint128",
          "name": "token1",
          "type": "uint128"
        }
      ],
      "stateMutability": "view",
      "type": "function"
    },
    {
      "inputs": [
        {
          "internalType": "uint8",
          "name": "feeProtocol0",
          "type": "uint8"
        },
        {
          "internalType": "uint8",
          "name": "feeProtocol1",
          "type": "uint8"
        }
      ],
      "name": "setFeeProtocol",
      "outputs": [],
      "stateMutability": "nonpayable",
      "type": "function"
    },
    {
      "inputs": [],
      "name": "slot0",
      "outputs": [
        {
          "internalType": "uint160",
          "name": "sqrtPriceX96",
          "type": "uint160"
        },
        {
          "internalType": "int24",
          "name": "tick",
          "type": "int24"
        },
        {
          "internalType": "uint16",
          "name": "observationIndex",
          "type": "uint16"
        },
        {
          "internalType": "uint16",
          "name": "observationCardinality",
          "type": "uint16"
        },
        {
          "internalType": "uint16",
          "name": "observationCardinalityNext",
          "type": "uint16"
        },
        {
          "internalType": "uint8",
          "name": "feeProtocol",
          "type": "uint8"
        },
        {
          "internalType": "bool",
          "name": "unlocked",
          "type": "bool"
        }
      ],
      "stateMutability": "view",
      "type": "function"
    },
    {
      "inputs": [
        {
          "internalType": "int24",
          "name": "tickLower",
          "type": "int24"
        },
        {
          "internalType": "int24",
          "name": "tickUpper",
          "type": "int24"
        }
      ],
      "name": "snapshotCumulativesInside",
      "outputs": [
        {
          "internalType": "int56",
          "name": "tickCumulativeInside",
          "type": "int56"
        },
        {
          "internalType": "uint160",
          "name": "secondsPerLiquidityInsideX128",
          "type": "uint160"
        },
        {
          "internalType": "uint32",
          "name": "secondsInside",
          "type": "uint32"
        }
      ],
      "stateMutability": "view",
      "type": "function"
    },
    {
      "inputs": [
        {
          "internalType": "address",
          "name": "recipient",
          "type": "address"
        },
        {
          "internalType": "bool",
          "name": "zeroForOne",
          "type": "bool"
        },
        {
          "internalType": "int256",
          "name": "amountSpecified",
          "type": "int256"
        },
        {
          "internalType": "uint160",
          "name": "sqrtPriceLimitX96",
          "type": "uint160"
        },
        {
          "internalType": "bytes",
          "name": "data",
          "type": "bytes"
        }
      ],
      "name": "swap",
      "outputs": [
        {
          "internalType": "int256",
          "name": "amount0",
          "type": "int256"
        },
        {
          "internalType": "int256",
          "name": "amount1",
          "type": "int256"
        }
      ],
      "stateMutability": "nonpayable",
      "type": "function"
    },
    {
      "inputs": [
        {
          "internalType": "int16",
          "name": "",
          "type": "int16"
        }
      ],
      "name": "tickBitmap",
      "outputs": [
        {
          "internalType": "uint256",
          "name": "",
          "type": "uint256"
        }
      ],
      "stateMutability": "view",
      "type": "function"
    },
    {
      "inputs": [],
      "name": "tickSpacing",
      "outputs": [
        {
          "internalType": "int24",
          "name": "",
          "type": "int24"
        }
      ],
      "stateMutability": "view",
      "type": "function"
    },
    {
      "inputs": [
        {
          "internalType": "int24",
          "name": "",
          "type": "int24"
        }
      ],
      "name": "ticks",
      "outputs": [
        {
          "internalType": "uint128",
          "name": "liquidityGross",
          "type": "uint128"
        },
        {
          "internalType": "int128",
          "name": "liquidityNet",
          "type": "int128"
        },
        {
          "internalType": "uint256",
          "name": "feeGrowthOutside0X128",
          "type": "uint256"
        },
        {
          "internalType": "uint256",
          "name": "feeGrowthOutside1X128",
          "type": "uint256"
        },
        {
          "internalType": "int56",
          "name": "tickCumulativeOutside",
          "type": "int56"
        },
        {
          "internalType": "uint160",
          "name": "secondsPerLiquidityOutsideX128",
          "type": "uint160"
        },
        {
          "internalType": "uint32",
          "name": "secondsOutside",
          "type": "uint32"
        },
        {
          "internalType": "bool",
          "name": "initialized",
          "type": "bool"
        }
      ],
      "stateMutability": "view",
      "type": "function"
    },
    {
      "inputs": [],
      "name": "token0",
      "outputs": [
        {
          "internalType": "address",
          "name": "",
          "type": "address"
        }
      ],
      "stateMutability": "view",
      "type": "function"
    },
    {
      "inputs": [],
      "name": "token1",
      "outputs": [
        {
          "internalType": "address",
          "name": "",
          "type": "address"
        }
      ],
      "stateMutability": "view",
      "type": "function"
    }
  ],
  "bytecode": "0x60a060405234801561001057600080fd5b5030606081901b6080526156c26200003260003980612bfa52506156c26000f3fe608060405234801561001057600080fd5b50600436106101b95760003560e01c806370cf754a116100f9578063c45a015511610097578063ddca3f4311610071578063ddca3f4314610813578063f305839914610833578063f30dba931461083b578063f637731d146108bd576101b9565b8063c45a0155146107e4578063d0c93a7c146107ec578063d21220a71461080b576101b9565b806385b66729116100d357806385b6672914610609578063883bdbfd14610646578063a34123a71461074f578063a38807f214610789576101b9565b806370cf754a146105d15780638129fc1c146105d95780638206a4d1146105e1576101b9565b80633850c7bd11610166578063490e6cbc11610140578063490e6cbc1461047b5780634f1eb3d814610507578063514ea4bf146105585780635339c296146105b1576101b9565b80633850c7bd146103665780633c8a7d8d146103bf5780634614131914610461576101b9565b80631ad8b03b116101975780631ad8b03b146102b5578063252c09d7146102ec57806332148f6714610343576101b9565b80630dfe1681146101be578063128acb08146101e25780631a68650214610291575b600080fd5b6101c66108e3565b604080516001600160a01b039092168252519081900360200190f35b610278600480360360a08110156101f857600080fd5b6001600160a01b0382358116926020810135151592604082013592606083013516919081019060a08101608082013564010000000081111561023957600080fd5b82018360208201111561024b57600080fd5b8035906020019184600183028401116401000000008311171561026d57600080fd5b5090925090506108f2565b6040805192835260208301919091528051918290030190f35b61029961144a565b604080516001600160801b039092168252519081900360200190f35b6102bd611459565b60405180836001600160801b03168152602001826001600160801b031681526020019250505060405180910390f35b6103096004803603602081101561030257600080fd5b5035611473565b6040805163ffffffff909516855260069390930b60208501526001600160a01b039091168383015215156060830152519081900360800190f35b6103646004803603602081101561035957600080fd5b503561ffff166114b9565b005b61036e6115b3565b604080516001600160a01b03909816885260029690960b602088015261ffff9485168787015292841660608701529216608085015260ff90911660a0840152151560c0830152519081900360e00190f35b610278600480360360a08110156103d557600080fd5b6001600160a01b03823516916020810135600290810b92604083013590910b916001600160801b036060820135169181019060a08101608082013564010000000081111561042257600080fd5b82018360208201111561043457600080fd5b8035906020019184600183028401116401000000008311171561045657600080fd5b509092509050611603565b6104696118c1565b60408051918252519081900360200190f35b6103646004803603608081101561049157600080fd5b6001600160a01b0382351691602081013591604082013591908101906080810160608201356401000000008111156104c857600080fd5b8201836020820111156104da57600080fd5b803590602001918460018302840111640100000000831117156104fc57600080fd5b5090925090506118c7565b6102bd600480360360a081101561051d57600080fd5b506001600160a01b03813516906020810135600290810b91604081013590910b906001600160801b0360608201358116916080013516611cd3565b6105756004803603602081101561056e57600080fd5b5035611ecb565b604080516001600160801b0396871681526020810195909552848101939093529084166060840152909216608082015290519081900360a00190f35b610469600480360360208110156105c757600080fd5b503560010b611f08565b610299611f1a565b610364611f29565b610364600480360360408110156105f757600080fd5b5060ff81358116916020013516612126565b6102bd6004803603606081101561061f57600080fd5b506001600160a01b03813516906001600160801b0360208201358116916040013516612304565b6106b66004803603602081101561065c57600080fd5b81019060208101813564010000000081111561067757600080fd5b82018360208201111561068957600080fd5b803590602001918460208302840111640100000000831117156106ab57600080fd5b509092509050612593565b604051808060200180602001838103835285818151815260200191508051906020019060200280838360005b838110156106fa5781810151838201526020016106e2565b50505050905001838103825284818151815260200191508051906020019060200280838360005b83811015610739578181015183820152602001610721565b5050505090500194505050505060405180910390f35b6102786004803603606081101561076557600080fd5b508035600290810b91602081013590910b90604001356001600160801b0316612623565b6107b36004803603604081101561079f57600080fd5b508035600290810b9160200135900b61279f565b6040805160069490940b84526001600160a01b03909216602084015263ffffffff1682820152519081900360600190f35b6101c6612996565b6107f46129ab565b6040805160029290920b8252519081900360200190f35b6101c66129bb565b61081b6129ca565b6040805162ffffff9092168252519081900360200190f35b6104696129dc565b61085b6004803603602081101561085157600080fd5b503560020b6129e2565b604080516001600160801b039099168952600f9790970b602089015287870195909552606087019390935260069190910b60808601526001600160a01b031660a085015263ffffffff1660c0840152151560e083015251908190036101000190f35b610364600480360360208110156108d357600080fd5b50356001600160a01b0316612a50565b6001546001600160a01b031681565b6000806108fd612bef565b85610934576040805162461bcd60e51b8152602060048201526002602482015261415360f01b604482015290519081900360640190fd5b6040805160e0810182526004546001600160a01b0381168252600160a01b8104600290810b810b900b602083015261ffff600160b81b8204811693830193909352600160c81b810483166060830152600160d81b8104909216608082015260ff600160e81b8304811660a0830152600160f01b909204909116151560c082018190526109ed576040805162461bcd60e51b81526020600482015260036024820152624c4f4b60e81b604482015290519081900360640190fd5b87610a385780600001516001600160a01b0316866001600160a01b0316118015610a33575073fffd8963efd1fc6a506488495d951d5263988d266001600160a01b038716105b610a6a565b80600001516001600160a01b0316866001600160a01b0316108015610a6a57506401000276a36001600160a01b038716115b610aa1576040805162461bcd60e51b815260206004820152600360248201526214d41360ea1b604482015290519081900360640190fd5b6004805460ff60f01b191690556040805160c08101909152600090808a610ad35760048460a0015160ff16901c610ae6565b60108460a0015160ff1681610ae457fe5b065b60ff1681526008546001600160801b03166020820152604001610b07612c26565b63ffffffff168152602001600060060b815260200160006001600160a01b031681526020016000151581525090506000808913905060006040518060e001604052808b81526020016000815260200185600001516001600160a01b03168152602001856020015160020b81526020018c610b8357600654610b87565b6005545b815260200160006001600160801b0316815260200184602001516001600160801b031681525090505b805115801590610bd65750886001600160a01b031681604001516001600160a01b031614155b15610f7c57610be3615624565b60408201516001600160a01b03168152606082015160028054610c1492600a929091600160b81b9004900b8f612c2a565b15156040830152600290810b810b60208301819052620d89e719910b1215610c4557620d89e7196020820152610c64565b6020810151620d89e860029190910b1315610c6457620d89e860208201525b610c718160200151612d6c565b6001600160a01b031660608201526040820151610cf0908d610cab578b6001600160a01b031683606001516001600160a01b031611610cc5565b8b6001600160a01b031683606001516001600160a01b0316105b610cd3578260600151610cd5565b8b5b60c08501518551600254600160a01b900462ffffff1661309e565b60c085015260a084015260808301526001600160a01b031660408301528215610d5257610d268160c00151826080015101613290565b825103825260a0810151610d4890610d3d90613290565b6020840151906132a6565b6020830152610d8d565b610d5f8160a00151613290565b825101825260c08101516080820151610d8791610d7c9101613290565b6020840151906132c2565b60208301525b835160ff1615610dd3576000846000015160ff168260c0015181610dad57fe5b60c0840180519290910491829003905260a0840180519091016001600160801b03169052505b60c08201516001600160801b031615610e1257610e068160c00151600160801b8460c001516001600160801b03166132d8565b60808301805190910190525b80606001516001600160a01b031682604001516001600160a01b03161415610f3b57806040015115610f12578360a00151610e9c57610e7a846040015160008760200151886040015188602001518a60600151600c613388909695949392919063ffffffff16565b6001600160a01b03166080860152600690810b900b6060850152600160a08501525b6000610ee882602001518e610eb357600554610eb9565b84608001515b8f610ec8578560800151610ecc565b6006545b608089015160608a015160408b0151600995949392919061351b565b90508c15610ef4576000035b610f028360c00151826135ee565b6001600160801b031660c0840152505b8b610f21578060200151610f2a565b60018160200151035b600290810b900b6060830152610f76565b80600001516001600160a01b031682604001516001600160a01b031614610f7657610f6982604001516136a4565b600290810b900b60608301525b50610bb0565b836020015160020b816060015160020b1461104a57600080610fca86604001518660400151886020015188602001518a606001518b60800151600c6139d0909695949392919063ffffffff16565b604085015160608601516004805461ffff60c81b1916600160c81b61ffff958616021761ffff60b81b1916600160b81b95909416949094029290921762ffffff60a01b1916600160a01b62ffffff60029490940b9390931692909202919091176001600160a01b0319166001600160a01b039091161790555061106f9050565b6040810151600480546001600160a01b0319166001600160a01b039092169190911790555b8060c001516001600160801b031683602001516001600160801b0316146110b55760c0810151600880546001600160801b0319166001600160801b039092169190911790555b8a1561110557608081015160055560a08101516001600160801b0316156111005760a0810151600780546001600160801b031981166001600160801b03918216909301169190911790555b61114b565b608081015160065560a08101516001600160801b03161561114b5760a0810151600780546001600160801b03808216600160801b92839004821690940116029190911790555b8115158b15151461116457602081015181518b03611171565b80600001518a0381602001515b90965094508a156112975760008512156111a0576002546111a0906001600160a01b03168d6000889003613b85565b60006111aa613cd3565b9050336001600160a01b031663fa461e3388888c8c6040518563ffffffff1660e01b815260040180858152602001848152602001806020018281038252848482818152602001925080828437600081840152601f19601f82011690508083019250505095505050505050600060405180830381600087803b15801561122e57600080fd5b505af1158015611242573d6000803e3d6000fd5b5050505061124e613cd3565b6112588289613dee565b1115611291576040805162461bcd60e51b815260206004820152600360248201526249494160e81b604482015290519081900360640190fd5b506113ae565b60008612156112bb576001546112bb906001600160a01b03168d6000899003613b85565b60006112c5613dfe565b9050336001600160a01b031663fa461e3388888c8c6040518563ffffffff1660e01b815260040180858152602001848152602001806020018281038252848482818152602001925080828437600081840152601f19601f82011690508083019250505095505050505050600060405180830381600087803b15801561134957600080fd5b505af115801561135d573d6000803e3d6000fd5b50505050611369613dfe565b6113738288613dee565b11156113ac576040805162461bcd60e51b815260206004820152600360248201526249494160e81b604482015290519081900360640190fd5b505b60408082015160c083015160608085015184518b8152602081018b90526001600160a01b03948516818701526001600160801b039093169183019190915260020b60808201529151908e169133917fc42079f94a6350d7e6235f29174924f928cc2ac818eb64fed8004e115fbcca679181900360a00190a350506004805460ff60f01b1916600160f01b17905550919890975095505050505050565b6008546001600160801b031681565b6007546001600160801b0380821691600160801b90041682565b600c8161ffff811061148457600080fd5b015463ffffffff81169150640100000000810460060b90600160581b81046001600160a01b031690600160f81b900460ff1684565b600454600160f01b900460ff166114fd576040805162461bcd60e51b81526020600482015260036024820152624c4f4b60e81b604482015290519081900360640190fd5b6004805460ff60f01b19169055611512612bef565b600454600160d81b900461ffff16600061152e600c8385613e78565b6004805461ffff808416600160d81b810261ffff60d81b199093169290921790925591925083161461159b576040805161ffff80851682528316602082015281517fac49e518f90a358f652e4400164f05a5d8f7e35e7747279bc3a93dbf584e125a929181900390910190a15b50506004805460ff60f01b1916600160f01b17905550565b6004546001600160a01b03811690600160a01b810460020b9061ffff600160b81b8204811691600160c81b8104821691600160d81b8204169060ff600160e81b8204811691600160f01b90041687565b6004546000908190600160f01b900460ff1661164c576040805162461bcd60e51b81526020600482015260036024820152624c4f4b60e81b604482015290519081900360640190fd5b6004805460ff60f01b191690556001600160801b03851661166c57600080fd5b6000806116ba60405180608001604052808c6001600160a01b031681526020018b60020b81526020018a60020b81526020016116b08a6001600160801b0316613f1b565b600f0b9052613f31565b925092505081935080925060008060008611156116dc576116d9613cd3565b91505b84156116ed576116ea613dfe565b90505b336001600160a01b031663d348799787878b8b6040518563ffffffff1660e01b815260040180858152602001848152602001806020018281038252848482818152602001925080828437600081840152601f19601f82011690508083019250505095505050505050600060405180830381600087803b15801561176f57600080fd5b505af1158015611783573d6000803e3d6000fd5b5050505060008611156117da57611798613cd3565b6117a28388613dee565b11156117da576040805162461bcd60e51b815260206004820152600260248201526104d360f41b604482015290519081900360640190fd5b841561182a576117e8613dfe565b6117f28287613dee565b111561182a576040805162461bcd60e51b81526020600482015260026024820152614d3160f01b604482015290519081900360640190fd5b8960020b8b60020b8d6001600160a01b03167f7a53080ba414158be7ec69b987b5fb7d07dee101fe85488f0853ae16239d0bde338d8b8b60405180856001600160a01b03168152602001846001600160801b0316815260200183815260200182815260200194505050505060405180910390a450506004805460ff60f01b1916600160f01b17905550919890975095505050505050565b60065481565b600454600160f01b900460ff1661190b576040805162461bcd60e51b81526020600482015260036024820152624c4f4b60e81b604482015290519081900360640190fd5b6004805460ff60f01b19169055611920612bef565b6008546001600160801b031680611962576040805162461bcd60e51b81526020600482015260016024820152601360fa1b604482015290519081900360640190fd5b600254600090611983908790600160a01b900462ffffff16620f4240614171565b6002549091506000906119a7908790600160a01b900462ffffff16620f4240614171565b905060006119b3613cd3565b905060006119bf613dfe565b905088156119de576001546119de906001600160a01b03168b8b613b85565b87156119fb576002546119fb906001600160a01b03168b8a613b85565b336001600160a01b031663e9cbafb085858a8a6040518563ffffffff1660e01b815260040180858152602001848152602001806020018281038252848482818152602001925080828437600081840152601f19601f82011690508083019250505095505050505050600060405180830381600087803b158015611a7d57600080fd5b505af1158015611a91573d6000803e3d6000fd5b505050506000611a9f613cd3565b90506000611aab613dfe565b905081611ab88588613dee565b1115611af0576040805162461bcd60e51b8152602060048201526002602482015261046360f41b604482015290519081900360640190fd5b80611afb8487613dee565b1115611b33576040805162461bcd60e51b8152602060048201526002602482015261463160f01b604482015290519081900360640190fd5b8382038382038115611bc257600454600160e81b9004600f1660008115611b66578160ff168481611b6057fe5b04611b69565b60005b90506001600160801b03811615611b9c57600780546001600160801b038082168401166001600160801b03199091161790555b611bb6818503600160801b8d6001600160801b03166132d8565b60058054909101905550505b8015611c4d5760048054600160e81b9004901c600f1660008115611bf2578160ff168381611bec57fe5b04611bf5565b60005b90506001600160801b03811615611c2757600780546001600160801b03600160801b8083048216850182160291161790555b611c41818403600160801b8d6001600160801b03166132d8565b60068054909101905550505b8d6001600160a01b0316336001600160a01b03167fbdbdb71d7860376ba52b25a5028beea23581364a40522f6bcfb86bb1f2dca6338f8f86866040518085815260200184815260200183815260200182815260200194505050505060405180910390a350506004805460ff60f01b1916600160f01b179055505050505050505050505050565b6004546000908190600160f01b900460ff16611d1c576040805162461bcd60e51b81526020600482015260036024820152624c4f4b60e81b604482015290519081900360640190fd5b6004805460ff60f01b191690556000611d38600b3389896141ab565b60038101549091506001600160801b0390811690861611611d595784611d68565b60038101546001600160801b03165b60038201549093506001600160801b03600160801b909104811690851611611d905783611da6565b6003810154600160801b90046001600160801b03165b91506001600160801b03831615611df8576003810180546001600160801b031981166001600160801b03918216869003821617909155600154611df8916001600160a01b03909116908a908616613b85565b6001600160801b03821615611e4b576003810180546001600160801b03600160801b808304821686900382160291811691909117909155600254611e4b916001600160a01b03909116908a908516613b85565b604080516001600160a01b038a1681526001600160801b0380861660208301528416818301529051600288810b92908a900b9133917f70935338e69775456a85ddef226c395fb668b63fa0115f5f20610b388e6ca9c0919081900360600190a4506004805460ff60f01b1916600160f01b17905590969095509350505050565b600b6020526000908152604090208054600182015460028301546003909301546001600160801b0392831693919281811691600160801b90041685565b600a6020526000908152604090205481565b6003546001600160801b031681565b600054610100900460ff1680611f425750611f4261420f565b80611f50575060005460ff16155b611f8b5760405162461bcd60e51b815260040180806020018281038252602e815260200180615688602e913960400191505060405180910390fd5b600054610100900460ff16158015611fb6576000805460ff1961ff0019909116610100171660011790555b6000336001600160a01b031663890357306040518163ffffffff1660e01b815260040160a06040518083038186803b158015611ff157600080fd5b505afa158015612005573d6000803e3d6000fd5b505050506040513d60a081101561201b57600080fd5b50805160208201516040830151606084015160809094015160028054600180546001600160a01b039687166001600160a01b0319918216179091556000805497871662010000027fffffffffffffffffffff0000000000000000000000000000000000000000ffff9098169790971790965582820b62ffffff908116600160b81b027fffffffffffff000000ffffffffffffffffffffffffffffffffffffffffffffff969095169716600160a01b0262ffffff60a01b199091161794909416949094179190911617905590506120f081614220565b600380546001600160801b0319166001600160801b0392909216919091179055508015612123576000805461ff00191690555b50565b600454600160f01b900460ff1661216a576040805162461bcd60e51b81526020600482015260036024820152624c4f4b60e81b604482015290519081900360640190fd5b6004805460ff60f01b1916815560005460408051638da5cb5b60e01b81529051620100009092046001600160a01b031692638da5cb5b928282019260209290829003018186803b1580156121bd57600080fd5b505afa1580156121d1573d6000803e3d6000fd5b505050506040513d60208110156121e757600080fd5b50516001600160a01b031633146121fd57600080fd5b60ff82161580612220575060048260ff16101580156122205750600a8260ff1611155b801561224a575060ff8116158061224a575060048160ff161015801561224a5750600a8160ff1611155b61225357600080fd5b60048054610ff083831b16840160ff908116600160e81b9081027fffff00ffffffffffffffffffffffffffffffffffffffffffffffffffffffffff84161784556040805191909304600f81811683529481901c909416602082015285821681840152848216606082015291519216917f973d8d92bb299f4af6ce49b52a8adb85ae46b9f214c4c4fc06ac77401237b1339181900360800190a150506004805460ff60f01b1916600160f01b17905550565b6004546000908190600160f01b900460ff1661234d576040805162461bcd60e51b81526020600482015260036024820152624c4f4b60e81b604482015290519081900360640190fd5b6004805460ff60f01b1916815560005460408051638da5cb5b60e01b81529051620100009092046001600160a01b031692638da5cb5b928282019260209290829003018186803b1580156123a057600080fd5b505afa1580156123b4573d6000803e3d6000fd5b505050506040513d60208110156123ca57600080fd5b50516001600160a01b031633146123e057600080fd5b6007546001600160801b03908116908516116123fc5783612409565b6007546001600160801b03165b6007549092506001600160801b03600160801b90910481169084161161242f5782612443565b600754600160801b90046001600160801b03165b90506001600160801b038216156124b1576007546001600160801b038381169116141561247257600019909101905b600780546001600160801b031981166001600160801b039182168590038216179091556001546124b1916001600160a01b039091169087908516613b85565b6001600160801b03811615612524576007546001600160801b03828116600160801b9092041614156124e257600019015b600780546001600160801b03600160801b808304821685900382160291811691909117909155600254612524916001600160a01b039091169087908416613b85565b604080516001600160801b0380851682528316602082015281516001600160a01b0388169233927f596b573906218d3411850b26a6b437d6c4522fdb43d2d2386263f86d50b8b151929081900390910190a36004805460ff60f01b1916600160f01b1790559094909350915050565b60608061259e612bef565b6126186125a9612c26565b85858080602002602001604051908101604052809392919081815260200183836020028082843760009201919091525050600454600854600c95949350600160a01b820460020b925061ffff600160b81b83048116926001600160801b0390921691600160c81b90041661428a565b915091509250929050565b6004546000908190600160f01b900460ff1661266c576040805162461bcd60e51b81526020600482015260036024820152624c4f4b60e81b604482015290519081900360640190fd5b6004805460ff60f01b1916905560408051608081018252338152600287810b602083015286900b91810191909152600090819081906126c890606081016126bb6001600160801b038a16613f1b565b600003600f0b9052613f31565b92509250925081600003945080600003935060008511806126e95750600084115b15612728576003830180546001600160801b038082168089018216600160801b93849004831689019092169092029091176001600160801b0319161790555b604080516001600160801b0388168152602081018790528082018690529051600289810b92908b900b9133917f0c396cd989a39f4459b5fa1aed6a9a8dcdbc45908acfd67e028cd568da98982c919081900360600190a450506004805460ff60f01b1916600160f01b179055509094909350915050565b60008060006127ac612bef565b6127b685856143e4565b600285810b810b60009081526009602052604080822087840b90930b825281206003830154600681900b9367010000000000000082046001600160a01b0316928492600160d81b810463ffffffff169284929091600160f81b900460ff168061281e57600080fd5b6003820154600681900b985067010000000000000081046001600160a01b03169650600160d81b810463ffffffff169450600160f81b900460ff168061286357600080fd5b50506040805160e0810182526004546001600160a01b0381168252600160a01b8104600290810b810b810b6020840181905261ffff600160b81b8404811695850195909552600160c81b830485166060850152600160d81b8304909416608084015260ff600160e81b8304811660a0850152600160f01b909204909116151560c08301529093508e810b91900b1215905061290c5750939094039650900393509003905061298f565b8a60020b816020015160020b1215612980576000612928612c26565b602083015160408401516008546060860151939450600093849361295e93600c938893879392916001600160801b031690613388565b9a9003989098039b50509490960392909203965090910303925061298f915050565b50949093039650039350900390505b9250925092565b6000546201000090046001600160a01b031681565b60028054600160b81b9004900b81565b6002546001600160a01b031681565b600254600160a01b900462ffffff1681565b60055481565b60096020526000908152604090208054600182015460028301546003909301546001600160801b03831693600160801b909304600f0b9290600681900b9067010000000000000081046001600160a01b031690600160d81b810463ffffffff1690600160f81b900460ff1688565b6004546001600160a01b031615612a93576040805162461bcd60e51b8152602060048201526002602482015261414960f01b604482015290519081900360640190fd5b6000612a9e826136a4565b9050600080612ab6612aae612c26565b600c906144ad565b6040805160e0810182526001600160a01b038816808252600288810b6020808501829052600085870181905261ffff898116606088018190529089166080880181905260a0880192909252600160c09097019690965260048054600160f01b6001600160a01b0319909116871762ffffff60a01b1916600160a01b62ffffff9787900b9790971696909602959095177fffffffffff00000000ffffffffffffffffffffffffffffffffffffffffffffff16600160c81b9097029690961761ffff60d81b1916600160d81b909102177fff0000ffffffffffffffffffffffffffffffffffffffffffffffffffffffffff1692909217909355835191825281019190915281519395509193507f98636036cb66a9c19a37435efc1e90142190214e8abeb821bdba3f2990dd4c9592918290030190a150505050565b306001600160a01b037f00000000000000000000000000000000000000000000000000000000000000001614612c2457600080fd5b565b4290565b60008060008460020b8660020b81612c3e57fe5b05905060008660020b128015612c6557508460020b8660020b81612c5e57fe5b0760020b15155b15612c6f57600019015b8315612ce457600080612c81836144f9565b600182810b810b600090815260208d9052604090205460ff83169190911b80016000190190811680151597509294509092509085612cc657888360ff16860302612cd9565b88612cd08261450b565b840360ff168603025b965050505050612d62565b600080612cf3836001016144f9565b91509150600060018260ff166001901b031990506000818b60008660010b60010b8152602001908152602001600020541690508060001415955085612d4557888360ff0360ff16866001010102612d5b565b8883612d50836145ab565b0360ff168660010101025b9650505050505b5094509492505050565b60008060008360020b12612d83578260020b612d8b565b8260020b6000035b9050620d89e8811115612dc9576040805162461bcd60e51b81526020600482015260016024820152601560fa1b604482015290519081900360640190fd5b600060018216612ddd57600160801b612def565b6ffffcb933bd6fad37aa2d162d1a5940015b70ffffffffffffffffffffffffffffffffff1690506002821615612e23576ffff97272373d413259a46990580e213a0260801c5b6004821615612e42576ffff2e50f5f656932ef12357cf3c7fdcc0260801c5b6008821615612e61576fffe5caca7e10e4e61c3624eaa0941cd00260801c5b6010821615612e80576fffcb9843d60f6159c9db58835c9266440260801c5b6020821615612e9f576fff973b41fa98c081472e6896dfb254c00260801c5b6040821615612ebe576fff2ea16466c96a3843ec78b326b528610260801c5b6080821615612edd576ffe5dee046a99a2a811c461f1969c30530260801c5b610100821615612efd576ffcbe86c7900a88aedcffc83b479aa3a40260801c5b610200821615612f1d576ff987a7253ac413176f2b074cf7815e540260801c5b610400821615612f3d576ff3392b0822b70005940c7a398e4b70f30260801c5b610800821615612f5d576fe7159475a2c29b7443b29c7fa6e889d90260801c5b611000821615612f7d576fd097f3bdfd2022b8845ad8f792aa58250260801c5b612000821615612f9d576fa9f746462d870fdf8a65dc1f90e061e50260801c5b614000821615612fbd576f70d869a156d2a1b890bb3df62baf32f70260801c5b618000821615612fdd576f31be135f97d08fd981231505542fcfa60260801c5b62010000821615612ffe576f09aa508b5b7a84e1c677de54f3e99bc90260801c5b6202000082161561301e576e5d6af8dedb81196699c329225ee6040260801c5b6204000082161561303d576d2216e584f5fa1ea926041bedfe980260801c5b6208000082161561305a576b048a170391f7dc42444e8fa20260801c5b60008460020b131561307557806000198161307157fe5b0490505b64010000000081061561308957600161308c565b60005b60ff16602082901c0192505050919050565b60008080806001600160a01b03808916908a1610158187128015906131235760006130d78989620f42400362ffffff16620f42406132d8565b9050826130f0576130eb8c8c8c6001614695565b6130fd565b6130fd8b8d8c6001614710565b955085811061310e578a965061311d565b61311a8c8b83866147cd565b96505b5061316d565b8161313a576131358b8b8b6000614710565b613147565b6131478a8c8b6000614695565b935083886000031061315b5789955061316d565b61316a8b8a8a60000385614819565b95505b6001600160a01b038a81169087161482156131d05780801561318c5750815b6131a25761319d878d8c6001614710565b6131a4565b855b95508080156131b1575081155b6131c7576131c2878d8c6000614695565b6131c9565b845b945061321a565b8080156131da5750815b6131f0576131eb8c888c6001614695565b6131f2565b855b95508080156131ff575081155b613215576132108c888c6000614710565b613217565b845b94505b8115801561322a57508860000385115b15613236578860000394505b81801561325557508a6001600160a01b0316876001600160a01b031614155b15613264578589039350613281565b61327e868962ffffff168a620f42400362ffffff16614171565b93505b50505095509550955095915050565b6000600160ff1b82106132a257600080fd5b5090565b808203828113156000831215146132bc57600080fd5b92915050565b818101828112156000831215146132bc57600080fd5b600080806000198587098686029250828110908390030390508061330e576000841161330357600080fd5b508290049050613381565b80841161331a57600080fd5b6000848688096000868103871696879004966002600389028118808a02820302808a02820302808a02820302808a02820302808a02820302808a02909103029181900381900460010186841190950394909402919094039290920491909117919091029150505b9392505050565b60008063ffffffff871661342f576000898661ffff1661ffff81106133a957fe5b60408051608081018252919092015463ffffffff8082168084526401000000008304600690810b810b900b6020850152600160581b83046001600160a01b031694840194909452600160f81b90910460ff16151560608301529092508a161461341b57613418818a8988614865565b90505b80602001518160400151925092505061350f565b8688036000806134448c8c858c8c8c8c614915565b91509150816000015163ffffffff168363ffffffff16141561347657816020015182604001519450945050505061350f565b805163ffffffff8481169116141561349e57806020015181604001519450945050505061350f565b8151815160208085015190840151918390039286039163ffffffff80841692908516910360060b816134cc57fe5b05028460200151018263ffffffff168263ffffffff1686604001518660400151036001600160a01b031602816134fe57fe5b048560400151019650965050505050505b97509795505050505050565b600295860b860b60009081526020979097526040909620600181018054909503909455938301805490920390915560038201805463ffffffff600160d81b6001600160a01b036701000000000000008085048216909603169094027fffffffffff0000000000000000000000000000000000000000ffffffffffffff90921691909117600681810b90960390950b66ffffffffffffff1666ffffffffffffff199095169490941782810485169095039093160263ffffffff60d81b1990931692909217905554600160801b9004600f0b90565b60008082600f0b121561365357826001600160801b03168260000384039150816001600160801b03161061364e576040805162461bcd60e51b81526020600482015260026024820152614c5360f01b604482015290519081900360640190fd5b6132bc565b826001600160801b03168284019150816001600160801b031610156132bc576040805162461bcd60e51b81526020600482015260026024820152614c4160f01b604482015290519081900360640190fd5b60006401000276a36001600160a01b038316108015906136e0575073fffd8963efd1fc6a506488495d951d5263988d266001600160a01b038316105b613715576040805162461bcd60e51b81526020600482015260016024820152602960f91b604482015290519081900360640190fd5b77ffffffffffffffffffffffffffffffffffffffff00000000602083901b166001600160801b03811160071b81811c67ffffffffffffffff811160061b90811c63ffffffff811160051b90811c61ffff811160041b90811c60ff8111600390811b91821c600f811160021b90811c918211600190811b92831c979088119617909417909217179091171717608081106137b657607f810383901c91506137c0565b80607f0383901b91505b908002607f81811c60ff83811c9190911c800280831c81831c1c800280841c81841c1c800280851c81851c1c800280861c81861c1c800280871c81871c1c800280881c81881c1c800280891c81891c1c8002808a1c818a1c1c8002808b1c818b1c1c8002808c1c818c1c1c8002808d1c818d1c1c8002808e1c9c81901c9c909c1c80029c8d901c9e9d607f198f0160401b60c09190911c678000000000000000161760c19b909b1c674000000000000000169a909a1760c29990991c672000000000000000169890981760c39790971c671000000000000000169690961760c49590951c670800000000000000169490941760c59390931c670400000000000000169290921760c69190911c670200000000000000161760c79190911c670100000000000000161760c89190911c6680000000000000161760c99190911c6640000000000000161760ca9190911c6620000000000000161760cb9190911c6610000000000000161760cc9190911c6608000000000000161760cd9190911c66040000000000001617693627a301d71055774c8581026f028f6481ab7f045a5af012a19d003aa9198101608090811d906fdb2df09e81959a81455e260799a0632f8301901d600281810b9083900b146139c157886001600160a01b03166139a582612d6c565b6001600160a01b031611156139ba57816139bc565b805b6139c3565b815b9998505050505050505050565b6000806000898961ffff1661ffff81106139e657fe5b60408051608081018252919092015463ffffffff8082168084526401000000008304600690810b810b900b6020850152600160581b83046001600160a01b031694840194909452600160f81b90910460ff161515606083015290925089161415613a56578885925092505061350f565b8461ffff168461ffff16118015613a7757506001850361ffff168961ffff16145b15613a8457839150613a88565b8491505b8161ffff168960010161ffff1681613a9c57fe5b069250613aab81898989614865565b8a8461ffff1661ffff8110613abc57fe5b825191018054602084015160408501516060909501511515600160f81b027effffffffffffffffffffffffffffffffffffffffffffffffffffffffffffff6001600160a01b03909616600160581b027fff0000000000000000000000000000000000000000ffffffffffffffffffffff60069390930b66ffffffffffffff16640100000000026affffffffffffff000000001963ffffffff90971663ffffffff199095169490941795909516929092171692909217929092161790555097509795505050505050565b604080516001600160a01b038481166024830152604480830185905283518084039091018152606490920183526020820180516001600160e01b031663a9059cbb60e01b1781529251825160009485949389169392918291908083835b60208310613c015780518252601f199092019160209182019101613be2565b6001836020036101000a0380198251168184511680821785525050505050509050019150506000604051808303816000865af19150503d8060008114613c63576040519150601f19603f3d011682016040523d82523d6000602084013e613c68565b606091505b5091509150818015613c96575080511580613c965750808060200190516020811015613c9357600080fd5b50515b613ccc576040805162461bcd60e51b81526020600482015260026024820152612a2360f11b604482015290519081900360640190fd5b5050505050565b600154604080513060248083019190915282518083039091018152604490910182526020810180516001600160e01b03166370a0823160e01b17815291518151600094859485946001600160a01b039092169391928291908083835b60208310613d4e5780518252601f199092019160209182019101613d2f565b6001836020036101000a038019825116818451168082178552505050505050905001915050600060405180830381855afa9150503d8060008114613dae576040519150601f19603f3d011682016040523d82523d6000602084013e613db3565b606091505b5091509150818015613dc757506020815110155b613dd057600080fd5b808060200190516020811015613de557600080fd5b50519250505090565b808201828110156132bc57600080fd5b600254604080513060248083019190915282518083039091018152604490910182526020810180516001600160e01b03166370a0823160e01b17815291518151600094859485946001600160a01b0390921693919282919080838360208310613d4e5780518252601f199092019160209182019101613d2f565b6000808361ffff1611613eb6576040805162461bcd60e51b81526020600482015260016024820152604960f81b604482015290519081900360640190fd5b8261ffff168261ffff1611613ecc575081613381565b825b8261ffff168161ffff161015613f12576001858261ffff1661ffff8110613ef157fe5b01805463ffffffff191663ffffffff92909216919091179055600101613ece565b50909392505050565b80600f81900b8114613f2c57600080fd5b919050565b6000806000613f3e612bef565b613f50846020015185604001516143e4565b6040805160e0810182526004546001600160a01b0381168252600160a01b8104600290810b810b900b602080840182905261ffff600160b81b8404811685870152600160c81b84048116606080870191909152600160d81b8504909116608086015260ff600160e81b8504811660a0870152600160f01b909404909316151560c085015288519089015194890151928901519394613ff49491939092909190614b12565b93508460600151600f0b60001461416957846020015160020b816020015160020b12156140495761404261402b8660200151612d6c565b6140388760400151612d6c565b8760600151614c94565b9250614169565b846040015160020b816020015160020b121561413f5760085460408201516001600160801b039091169061409b9061407f612c26565b602085015160608601516080870151600c9493929187916139d0565b6004805461ffff60c81b1916600160c81b61ffff938416021761ffff60b81b1916600160b81b9390921692909202179055815160408701516140eb91906140e190612d6c565b8860600151614c94565b93506141096140fd8760200151612d6c565b83516060890151614cd8565b92506141198187606001516135ee565b600880546001600160801b0319166001600160801b039290921691909117905550614169565b61416661414f8660200151612d6c565b61415c8760400151612d6c565b8760600151614cd8565b91505b509193909250565b600061417e8484846132d8565b90506000828061418a57fe5b84860911156133815760001981106141a157600080fd5b6001019392505050565b6040805160609490941b6bffffffffffffffffffffffff1916602080860191909152600293840b60e890811b60348701529290930b90911b60378401528051808403601a018152603a90930181528251928201929092206000908152929052902090565b600061421a30614d07565b15905090565b60008082600281900b620d89e7198161423557fe5b05029050600083600281900b620d89e88161424c57fe5b0502905060008460020b83830360020b8161426357fe5b0560010190508062ffffff166001600160801b0380168161428057fe5b0495945050505050565b60608060008361ffff16116142ca576040805162461bcd60e51b81526020600482015260016024820152604960f81b604482015290519081900360640190fd5b865167ffffffffffffffff811180156142e257600080fd5b5060405190808252806020026020018201604052801561430c578160200160208202803683370190505b509150865167ffffffffffffffff8111801561432757600080fd5b50604051908082528060200260200182016040528015614351578160200160208202803683370190505b50905060005b87518110156143d7576143828a8a8a848151811061437157fe5b60200260200101518a8a8a8a613388565b84838151811061438e57fe5b602002602001018484815181106143a157fe5b60200260200101826001600160a01b03166001600160a01b03168152508260060b60060b81525050508080600101915050614357565b5097509795505050505050565b8060020b8260020b12614424576040805162461bcd60e51b8152602060048201526003602482015262544c5560e81b604482015290519081900360640190fd5b620d89e719600283900b1215614467576040805162461bcd60e51b8152602060048201526003602482015262544c4d60e81b604482015290519081900360640190fd5b620d89e8600282900b13156144a9576040805162461bcd60e51b815260206004820152600360248201526254554d60e81b604482015290519081900360640190fd5b5050565b6040805160808101825263ffffffff9283168082526000602083018190529282019290925260016060909101819052835463ffffffff1916909117909116600160f81b17909155908190565b60020b600881901d9161010090910790565b600080821161451957600080fd5b600160801b821061452c57608091821c91015b68010000000000000000821061454457604091821c91015b640100000000821061455857602091821c91015b62010000821061456a57601091821c91015b610100821061457b57600891821c91015b6010821061458b57600491821c91015b6004821061459b57600291821c91015b60028210613f2c57600101919050565b60008082116145b957600080fd5b5060ff6001600160801b038216156145d457607f19016145dc565b608082901c91505b67ffffffffffffffff8216156145f557603f19016145fd565b604082901c91505b63ffffffff82161561461257601f190161461a565b602082901c91505b61ffff82161561462d57600f1901614635565b601082901c91505b60ff821615614647576007190161464f565b600882901c91505b600f8216156146615760031901614669565b600482901c91505b600382161561467b5760011901614683565b600282901c91505b6001821615613f2c5760001901919050565b6000836001600160a01b0316856001600160a01b031611156146b5579293925b816146e2576146dd836001600160801b03168686036001600160a01b0316600160601b6132d8565b614705565b614705836001600160801b03168686036001600160a01b0316600160601b614171565b90505b949350505050565b6000836001600160a01b0316856001600160a01b03161115614730579293925b7bffffffffffffffffffffffffffffffff000000000000000000000000606084901b166001600160a01b03868603811690871661476c57600080fd5b8361479c57866001600160a01b031661478f8383896001600160a01b03166132d8565b8161479657fe5b046147c2565b6147c26147b38383896001600160a01b0316614171565b886001600160a01b0316614d0d565b979650505050505050565b600080856001600160a01b0316116147e457600080fd5b6000846001600160801b0316116147fa57600080fd5b8161480c576146dd8585856001614d18565b6147058585856001614df9565b600080856001600160a01b03161161483057600080fd5b6000846001600160801b03161161484657600080fd5b81614858576146dd8585856000614df9565b6147058585856000614d18565b61486d615660565b600085600001518503905060405180608001604052808663ffffffff1681526020018263ffffffff168660020b0288602001510160060b81526020016000856001600160801b0316116148c15760016148c3565b845b6001600160801b031673ffffffff00000000000000000000000000000000608085901b16816148ee57fe5b048860400151016001600160a01b0316815260200160011515815250915050949350505050565b61491d615660565b614925615660565b888561ffff1661ffff811061493657fe5b60408051608081018252919092015463ffffffff81168083526401000000008204600690810b810b900b6020840152600160581b82046001600160a01b031693830193909352600160f81b900460ff1615156060820152925061499b90899089614eee565b156149d3578663ffffffff16826000015163ffffffff1614156149bd5761350f565b816149ca83898988614865565b9150915061350f565b888361ffff168660010161ffff16816149e857fe5b0661ffff1661ffff81106149f857fe5b60408051608081018252929091015463ffffffff811683526401000000008104600690810b810b900b60208401526001600160a01b03600160581b8204169183019190915260ff600160f81b90910416151560608201819052909250614aaf57604080516080810182528a5463ffffffff811682526401000000008104600690810b810b900b6020830152600160581b81046001600160a01b031692820192909252600160f81b90910460ff161515606082015291505b614abe88836000015189614eee565b614af5576040805162461bcd60e51b815260206004820152600360248201526213d31160ea1b604482015290519081900360640190fd5b614b028989898887614fb1565b9150915097509795505050505050565b6000614b21600b8787876141ab565b60055460065491925090600080600f87900b15614c34576000614b42612c26565b6004546008549192506000918291614b8c91600c9186918591600160a01b810460020b9161ffff600160b81b83048116926001600160801b0390921691600160c81b900416613388565b6003549193509150614bbc906009908e908c908e908c908c9088908a908c906000906001600160801b0316615151565b600354909550614bea906009908d908c908e908c908c9088908a908c906001906001600160801b0316615151565b93508415614c0e5760028054614c0e91600a918f91600160b81b909104900b61533b565b8315614c305760028054614c3091600a918e91600160b81b909104900b61533b565b5050505b600080614c4660098c8c8b8a8a6153a1565b9092509050614c57878a848461544d565b600089600f0b1215614c85578315614c7457614c7460098c6155e2565b8215614c8557614c8560098b6155e2565b50505050505095945050505050565b60008082600f0b12614cba57614cb5614cb08585856001614710565b613290565b614708565b614ccd614cb08585856000036000614710565b600003949350505050565b60008082600f0b12614cf457614cb5614cb08585856001614695565b614ccd614cb08585856000036000614695565b3b151590565b808204910615150190565b60008115614d8b5760006001600160a01b03841115614d4e57614d4984600160601b876001600160801b03166132d8565b614d66565b6001600160801b038516606085901b81614d6457fe5b045b9050614d83614d7e6001600160a01b03881683613dee565b61560e565b915050614708565b60006001600160a01b03841115614db957614db484600160601b876001600160801b0316614171565b614dd0565b614dd0606085901b6001600160801b038716614d0d565b905080866001600160a01b031611614de757600080fd5b6001600160a01b038616039050614708565b600082614e07575083614708565b7bffffffffffffffffffffffffffffffff000000000000000000000000606085901b168215614ea7576001600160a01b03861684810290858281614e4757fe5b041415614e7857818101828110614e7657614e6c83896001600160a01b031683614171565b9350505050614708565b505b614e9e82614e99878a6001600160a01b03168681614e9257fe5b0490613dee565b614d0d565b92505050614708565b6001600160a01b03861684810290858281614ebe57fe5b04148015614ecb57508082115b614ed457600080fd5b808203614e6c614d7e846001600160a01b038b1684614171565b60008363ffffffff168363ffffffff1611158015614f1857508363ffffffff168263ffffffff1611155b15614f34578163ffffffff168363ffffffff1611159050613381565b60008463ffffffff168463ffffffff1611614f5c578363ffffffff1664010000000001614f64565b8363ffffffff165b64ffffffffff16905060008563ffffffff168463ffffffff1611614f95578363ffffffff1664010000000001614f9d565b8363ffffffff165b64ffffffffff169091111595945050505050565b614fb9615660565b614fc1615660565b60008361ffff168560010161ffff1681614fd757fe5b0661ffff169050600060018561ffff16830103905060005b506002818301048961ffff8716828161500457fe5b0661ffff811061501057fe5b60408051608081018252929091015463ffffffff811683526401000000008104600690810b810b900b60208401526001600160a01b03600160581b8204169183019190915260ff600160f81b9091041615156060820181905290955061507b57806001019250614fef565b898661ffff16826001018161508c57fe5b0661ffff811061509857fe5b60408051608081018252929091015463ffffffff811683526401000000008104600690810b810b900b60208401526001600160a01b03600160581b8204169183019190915260ff600160f81b90910416151560608201528551909450600090615103908b908b614eee565b905080801561511c575061511c8a8a8760000151614eee565b156151275750615144565b806151375760018203925061513e565b8160010193505b50614fef565b5050509550959350505050565b60028a810b900b600090815260208c90526040812080546001600160801b03168261517c828d6135ee565b9050846001600160801b0316816001600160801b031611156151ca576040805162461bcd60e51b81526020600482015260026024820152614c4f60f01b604482015290519081900360640190fd5b6001600160801b0382811615908216158114159450156152a0578c60020b8e60020b1361527057600183018b9055600283018a90556003830180547fffffffffff0000000000000000000000000000000000000000ffffffffffffff166701000000000000006001600160a01b038c16021766ffffffffffffff191666ffffffffffffff60068b900b161763ffffffff60d81b1916600160d81b63ffffffff8a16021790555b6003830180547effffffffffffffffffffffffffffffffffffffffffffffffffffffffffffff16600160f81b1790555b82546001600160801b0319166001600160801b038216178355856152e95782546152e4906152df90600160801b9004600f90810b810b908f900b6132c2565b613f1b565b61530a565b825461530a906152df90600160801b9004600f90810b810b908f900b6132a6565b8354600f9190910b6001600160801b03908116600160801b0291161790925550909c9b505050505050505050505050565b8060020b8260020b8161534a57fe5b0760020b1561535857600080fd5b6000806153738360020b8560020b8161536d57fe5b056144f9565b600191820b820b60009081526020979097526040909620805460ff9097169190911b90951890945550505050565b600285810b80820b60009081526020899052604080822088850b850b83529082209193849391929184918291908a900b126153e7575050600182015460028301546153fa565b8360010154880391508360020154870390505b6000808b60020b8b60020b121561541c5750506001830154600284015461542f565b84600101548a0391508460020154890390505b92909803979097039b96909503949094039850939650505050505050565b6040805160a08101825285546001600160801b0390811682526001870154602083015260028701549282019290925260038601548083166060830152600160801b900490911660808201526000600f85900b6154ec5781516001600160801b03166154e4576040805162461bcd60e51b815260206004820152600260248201526104e560f41b604482015290519081900360640190fd5b5080516154fb565b81516154f890866135ee565b90505b600061551f8360200151860384600001516001600160801b0316600160801b6132d8565b905060006155458460400151860385600001516001600160801b0316600160801b6132d8565b905086600f0b60001461556c5787546001600160801b0319166001600160801b0384161788555b60018801869055600288018590556001600160801b03821615158061559a57506000816001600160801b0316115b156155d8576003880180546001600160801b031981166001600160801b039182168501821617808216600160801b9182900483168501909216021790555b5050505050505050565b600290810b810b6000908152602092909252604082208281556001810183905590810182905560030155565b806001600160a01b0381168114613f2c57600080fd5b6040805160e081018252600080825260208201819052918101829052606081018290526080810182905260a0810182905260c081019190915290565b6040805160808101825260008082526020820181905291810182905260608101919091529056fe496e697469616c697a61626c653a20636f6e747261637420697320616c726561647920696e697469616c697a6564a164736f6c6343000706000a",
  "linkReferences": {},
  "deployedLinkReferences": {}
}