{
  "_format": "hh-sol-artifact-1",
  "contractName": "V3Migrator",
  "sourceName": "contracts/V3Migrator.sol",
  "abi": [
    {
      "inputs": [],
      "name": "WETH9",
      "outputs": [
        {
          "internalType": "address",
          "name": "",
          "type": "address"
        }
      ],
      "stateMutability": "view",
      "type": "function"
    },
    {
      "inputs": [
        {
          "internalType": "address",
          "name": "token0",
          "type": "address"
        },
        {
          "internalType": "address",
          "name": "token1",
          "type": "address"
        },
        {
          "internalType": "uint24",
          "name": "fee",
          "type": "uint24"
        },
        {
          "internalType": "uint160",
          "name": "sqrtPriceX96",
          "type": "uint160"
        }
      ],
      "name": "createAndInitializePoolIfNecessary",
      "outputs": [
        {
          "internalType": "address",
          "name": "pool",
          "type": "address"
        }
      ],
      "stateMutability": "payable",
      "type": "function"
    },
    {
      "inputs": [],
      "name": "factory",
      "outputs": [
        {
          "internalType": "address",
          "name": "",
          "type": "address"
        }
      ],
      "stateMutability": "view",
      "type": "function"
    },
    {
      "inputs": [
        {
          "internalType": "address",
          "name": "_factory",
          "type": "address"
        },
        {
          "internalType": "address",
          "name": "_WETH9",
          "type": "address"
        },
        {
          "internalType": "address",
          "name": "_nonfungiblePositionManager",
          "type": "address"
        }
      ],
      "name": "initialize",
      "outputs": [],
      "stateMutability": "nonpayable",
      "type": "function"
    },
    {
      "inputs": [
        {
          "components": [
            {
              "internalType": "address",
              "name": "pair",
              "type": "address"
            },
            {
              "internalType": "uint256",
              "name": "liquidityToMigrate",
              "type": "uint256"
            },
            {
              "internalType": "uint8",
              "name": "percentageToMigrate",
              "type": "uint8"
            },
            {
              "internalType": "address",
              "name": "token0",
              "type": "address"
            },
            {
              "internalType": "address",
              "name": "token1",
              "type": "address"
            },
            {
              "internalType": "uint24",
              "name": "fee",
              "type": "uint24"
            },
            {
              "internalType": "int24",
              "name": "tickLower",
              "type": "int24"
            },
            {
              "internalType": "int24",
              "name": "tickUpper",
              "type": "int24"
            },
            {
              "internalType": "uint256",
              "name": "amount0Min",
              "type": "uint256"
            },
            {
              "internalType": "uint256",
              "name": "amount1Min",
              "type": "uint256"
            },
            {
              "internalType": "address",
              "name": "recipient",
              "type": "address"
            },
            {
              "internalType": "uint256",
              "name": "deadline",
              "type": "uint256"
            },
            {
              "internalType": "bool",
              "name": "refundAsETH",
              "type": "bool"
            }
          ],
          "internalType": "struct IV3Migrator.MigrateParams",
          "name": "params",
          "type": "tuple"
        }
      ],
      "name": "migrate",
      "outputs": [],
      "stateMutability": "nonpayable",
      "type": "function"
    },
    {
      "inputs": [
        {
          "internalType": "bytes[]",
          "name": "data",
          "type": "bytes[]"
        }
      ],
      "name": "multicall",
      "outputs": [
        {
          "internalType": "bytes[]",
          "name": "results",
          "type": "bytes[]"
        }
      ],
      "stateMutability": "payable",
      "type": "function"
    },
    {
      "inputs": [],
      "name": "nonfungiblePositionManager",
      "outputs": [
        {
          "internalType": "address",
          "name": "",
          "type": "address"
        }
      ],
      "stateMutability": "view",
      "type": "function"
    },
    {
      "inputs": [
        {
          "internalType": "address",
          "name": "token",
          "type": "address"
        },
        {
          "internalType": "uint256",
          "name": "value",
          "type": "uint256"
        },
        {
          "internalType": "uint256",
          "name": "deadline",
          "type": "uint256"
        },
        {
          "internalType": "uint8",
          "name": "v",
          "type": "uint8"
        },
        {
          "internalType": "bytes32",
          "name": "r",
          "type": "bytes32"
        },
        {
          "internalType": "bytes32",
          "name": "s",
          "type": "bytes32"
        }
      ],
      "name": "selfPermit",
      "outputs": [],
      "stateMutability": "payable",
      "type": "function"
    },
    {
      "inputs": [
        {
          "internalType": "address",
          "name": "token",
          "type": "address"
        },
        {
          "internalType": "uint256",
          "name": "nonce",
          "type": "uint256"
        },
        {
          "internalType": "uint256",
          "name": "expiry",
          "type": "uint256"
        },
        {
          "internalType": "uint8",
          "name": "v",
          "type": "uint8"
        },
        {
          "internalType": "bytes32",
          "name": "r",
          "type": "bytes32"
        },
        {
          "internalType": "bytes32",
          "name": "s",
          "type": "bytes32"
        }
      ],
      "name": "selfPermitAllowed",
      "outputs": [],
      "stateMutability": "payable",
      "type": "function"
    },
    {
      "inputs": [
        {
          "internalType": "address",
          "name": "token",
          "type": "address"
        },
        {
          "internalType": "uint256",
          "name": "nonce",
          "type": "uint256"
        },
        {
          "internalType": "uint256",
          "name": "expiry",
          "type": "uint256"
        },
        {
          "internalType": "uint8",
          "name": "v",
          "type": "uint8"
        },
        {
          "internalType": "bytes32",
          "name": "r",
          "type": "bytes32"
        },
        {
          "internalType": "bytes32",
          "name": "s",
          "type": "bytes32"
        }
      ],
      "name": "selfPermitAllowedIfNecessary",
      "outputs": [],
      "stateMutability": "payable",
      "type": "function"
    },
    {
      "inputs": [
        {
          "internalType": "address",
          "name": "token",
          "type": "address"
        },
        {
          "internalType": "uint256",
          "name": "value",
          "type": "uint256"
        },
        {
          "internalType": "uint256",
          "name": "deadline",
          "type": "uint256"
        },
        {
          "internalType": "uint8",
          "name": "v",
          "type": "uint8"
        },
        {
          "internalType": "bytes32",
          "name": "r",
          "type": "bytes32"
        },
        {
          "internalType": "bytes32",
          "name": "s",
          "type": "bytes32"
        }
      ],
      "name": "selfPermitIfNecessary",
      "outputs": [],
      "stateMutability": "payable",
      "type": "function"
    },
    {
      "stateMutability": "payable",
      "type": "receive"
    }
  ],
  "bytecode": "0x608060405234801561001057600080fd5b50612098806100206000396000f3fe6080604052600436106100c05760003560e01c8063b44a272211610074578063c45a01551161004e578063c45a0155146101f2578063d44f2bf214610207578063f3995c671461022757610121565b8063b44a2722146101aa578063c0c53b8b146101bf578063c2e3140a146101df57610121565b80634aa4a4fc116100a55780634aa4a4fc14610162578063a4a78f0c14610177578063ac9650d81461018a57610121565b806313ead562146101265780634659a4941461014f57610121565b366101215760015473ffffffffffffffffffffffffffffffffffffffff16331461011f576040517f08c379a000000000000000000000000000000000000000000000000000000000815260040161011690611e6f565b60405180910390fd5b005b600080fd5b6101396101343660046119e2565b61023a565b6040516101469190611d55565b60405180910390f35b61011f61015d366004611a3b565b6105b4565b34801561016e57600080fd5b50610139610674565b61011f610185366004611a3b565b610690565b61019d610198366004611a94565b61076d565b6040516101469190611da7565b3480156101b657600080fd5b506101396108c7565b3480156101cb57600080fd5b5061011f6101da366004611998565b6108e3565b61011f6101ed366004611a3b565b610a44565b3480156101fe57600080fd5b50610139610af9565b34801561021357600080fd5b5061011f610222366004611c11565b610b1b565b61011f610235366004611a3b565b6111e3565b60008373ffffffffffffffffffffffffffffffffffffffff168573ffffffffffffffffffffffffffffffffffffffff161061027457600080fd5b600054604080517f1698ee8200000000000000000000000000000000000000000000000000000000815273ffffffffffffffffffffffffffffffffffffffff8881166004830152878116602483015262ffffff8716604483015291516201000090930490911691631698ee8291606480820192602092909190829003018186803b15801561030157600080fd5b505afa158015610315573d6000803e3d6000fd5b505050506040513d602081101561032b57600080fd5b5051905073ffffffffffffffffffffffffffffffffffffffff81166104975760008054604080517fa167129500000000000000000000000000000000000000000000000000000000815273ffffffffffffffffffffffffffffffffffffffff8981166004830152888116602483015262ffffff881660448301529151620100009093049091169263a1671295926064808401936020939083900390910190829087803b1580156103da57600080fd5b505af11580156103ee573d6000803e3d6000fd5b505050506040513d602081101561040457600080fd5b5051604080517ff637731d00000000000000000000000000000000000000000000000000000000815273ffffffffffffffffffffffffffffffffffffffff858116600483015291519293509083169163f637731d9160248082019260009290919082900301818387803b15801561047a57600080fd5b505af115801561048e573d6000803e3d6000fd5b505050506105ac565b60008173ffffffffffffffffffffffffffffffffffffffff16633850c7bd6040518163ffffffff1660e01b815260040160e06040518083038186803b1580156104df57600080fd5b505afa1580156104f3573d6000803e3d6000fd5b505050506040513d60e081101561050957600080fd5b5051905073ffffffffffffffffffffffffffffffffffffffff81166105aa578173ffffffffffffffffffffffffffffffffffffffff1663f637731d846040518263ffffffff1660e01b8152600401808273ffffffffffffffffffffffffffffffffffffffff168152602001915050600060405180830381600087803b15801561059157600080fd5b505af11580156105a5573d6000803e3d6000fd5b505050505b505b949350505050565b604080517f8fcbaf0c00000000000000000000000000000000000000000000000000000000815233600482015230602482015260448101879052606481018690526001608482015260ff851660a482015260c4810184905260e48101839052905173ffffffffffffffffffffffffffffffffffffffff881691638fcbaf0c9161010480830192600092919082900301818387803b15801561065457600080fd5b505af1158015610668573d6000803e3d6000fd5b50505050505050505050565b60015473ffffffffffffffffffffffffffffffffffffffff1681565b604080517fdd62ed3e00000000000000000000000000000000000000000000000000000000815233600482015230602482015290517fffffffffffffffffffffffffffffffffffffffffffffffffffffffffffffffff9173ffffffffffffffffffffffffffffffffffffffff89169163dd62ed3e91604480820192602092909190829003018186803b15801561072557600080fd5b505afa158015610739573d6000803e3d6000fd5b505050506040513d602081101561074f57600080fd5b50511015610765576107658686868686866105b4565b505050505050565b60608167ffffffffffffffff8111801561078657600080fd5b506040519080825280602002602001820160405280156107ba57816020015b60608152602001906001900390816107a55790505b50905060005b828110156108c057600080308686858181106107d857fe5b90506020028101906107ea9190611f94565b6040516107f8929190611d45565b600060405180830381855af49150503d8060008114610833576040519150601f19603f3d011682016040523d82523d6000602084013e610838565b606091505b50915091508161089e5760448151101561085157600080fd5b6004810190508080602001905181019061086b9190611b5c565b6040517f08c379a00000000000000000000000000000000000000000000000000000000081526004016101169190611e25565b808484815181106108ab57fe5b602090810291909101015250506001016107c0565b5092915050565b60025473ffffffffffffffffffffffffffffffffffffffff1681565b600054610100900460ff16806108fc57506108fc61127b565b8061090a575060005460ff16155b61095f576040517f08c379a000000000000000000000000000000000000000000000000000000000815260040180806020018281038252602e81526020018061205e602e913960400191505060405180910390fd5b600054610100900460ff161580156109c557600080547fffffffffffffffffffffffffffffffffffffffffffffffffffffffffffffff007fffffffffffffffffffffffffffffffffffffffffffffffffffffffffffff00ff909116610100171660011790555b600280547fffffffffffffffffffffffff00000000000000000000000000000000000000001673ffffffffffffffffffffffffffffffffffffffff8416179055610a0f848461128c565b8015610a3e57600080547fffffffffffffffffffffffffffffffffffffffffffffffffffffffffffff00ff1690555b50505050565b604080517fdd62ed3e0000000000000000000000000000000000000000000000000000000081523360048201523060248201529051869173ffffffffffffffffffffffffffffffffffffffff89169163dd62ed3e91604480820192602092909190829003018186803b158015610ab957600080fd5b505afa158015610acd573d6000803e3d6000fd5b505050506040513d6020811015610ae357600080fd5b50511015610765576107658686868686866111e3565b60005462010000900473ffffffffffffffffffffffffffffffffffffffff1681565b6000610b2d6060830160408401611cb7565b60ff1611610b67576040517f08c379a000000000000000000000000000000000000000000000000000000000815260040161011690611e38565b6064610b796060830160408401611cb7565b60ff161115610bb4576040517f08c379a000000000000000000000000000000000000000000000000000000000815260040161011690611ea6565b610bc16020820182611975565b73ffffffffffffffffffffffffffffffffffffffff166323b872dd33610bea6020850185611975565b84602001356040518463ffffffff1660e01b8152600401610c0d93929190611d76565b602060405180830381600087803b158015610c2757600080fd5b505af1158015610c3b573d6000803e3d6000fd5b505050506040513d601f19601f82011682018060405250810190610c5f9190611b1f565b50600080610c706020840184611975565b73ffffffffffffffffffffffffffffffffffffffff166389afcb44306040518263ffffffff1660e01b8152600401610ca89190611d55565b6040805180830381600087803b158015610cc157600080fd5b505af1158015610cd5573d6000803e3d6000fd5b505050506040513d601f19601f82011682018060405250810190610cf99190611c94565b909250905060006064610d1f610d156060870160408801611cb7565b859060ff1661141e565b81610d2657fe5b04905060006064610d40610d156060880160408901611cb7565b81610d4757fe5b049050610d7c610d5d6080870160608801611975565b60025473ffffffffffffffffffffffffffffffffffffffff1684611448565b610dae610d8f60a0870160808801611975565b60025473ffffffffffffffffffffffffffffffffffffffff1683611448565b600254604080516101608101909152600091829173ffffffffffffffffffffffffffffffffffffffff9091169063883164569080610df260808c0160608d01611975565b73ffffffffffffffffffffffffffffffffffffffff168152602001610e1d60a08c0160808d01611975565b73ffffffffffffffffffffffffffffffffffffffff168152602001610e4860c08c0160a08d01611c29565b62ffffff168152602001610e6260e08c0160c08d01611b3b565b60020b8152602001610e7b6101008c0160e08d01611b3b565b60020b815260208101889052604081018790526101008b013560608201526101208b0135608082015260a001610eb96101608c016101408d01611975565b73ffffffffffffffffffffffffffffffffffffffff1681526020018a61016001358152506040518263ffffffff1660e01b8152600401610ef99190611edd565b608060405180830381600087803b158015610f1357600080fd5b505af1158015610f27573d6000803e3d6000fd5b505050506040513d601f19601f82011682018060405250810190610f4b9190611c43565b935093505050858210156110a95783821015610f9457610f94610f746080890160608a01611975565b60025473ffffffffffffffffffffffffffffffffffffffff166000611448565b818603610fa96101a089016101808a01611b03565b8015610ff1575060015473ffffffffffffffffffffffffffffffffffffffff16610fd960808a0160608b01611975565b73ffffffffffffffffffffffffffffffffffffffff16145b1561108d576001546040517f2e1a7d4d00000000000000000000000000000000000000000000000000000000815273ffffffffffffffffffffffffffffffffffffffff90911690632e1a7d4d9061104c908490600401611f8b565b600060405180830381600087803b15801561106657600080fd5b505af115801561107a573d6000803e3d6000fd5b505050506110883382611624565b6110a7565b6110a76110a060808a0160608b01611975565b3383611772565b505b848110156111da57828110156110cc576110cc610f7460a0890160808a01611975565b8085036110e16101a089016101808a01611b03565b8015611129575060015473ffffffffffffffffffffffffffffffffffffffff1661111160a08a0160808b01611975565b73ffffffffffffffffffffffffffffffffffffffff16145b156111c5576001546040517f2e1a7d4d00000000000000000000000000000000000000000000000000000000815273ffffffffffffffffffffffffffffffffffffffff90911690632e1a7d4d90611184908490600401611f8b565b600060405180830381600087803b15801561119e57600080fd5b505af11580156111b2573d6000803e3d6000fd5b505050506111c03382611624565b6111d8565b6111d86110a060a08a0160808b01611975565b505b50505050505050565b604080517fd505accf000000000000000000000000000000000000000000000000000000008152336004820152306024820152604481018790526064810186905260ff8516608482015260a4810184905260c48101839052905173ffffffffffffffffffffffffffffffffffffffff88169163d505accf9160e480830192600092919082900301818387803b15801561065457600080fd5b600061128630611947565b15905090565b600054610100900460ff16806112a557506112a561127b565b806112b3575060005460ff16155b611308576040517f08c379a000000000000000000000000000000000000000000000000000000000815260040180806020018281038252602e81526020018061205e602e913960400191505060405180910390fd5b600054610100900460ff1615801561136e57600080547fffffffffffffffffffffffffffffffffffffffffffffffffffffffffffffff007fffffffffffffffffffffffffffffffffffffffffffffffffffffffffffff00ff909116610100171660011790555b600080547fffffffffffffffffffff0000000000000000000000000000000000000000ffff166201000073ffffffffffffffffffffffffffffffffffffffff8681169190910291909117909155600180547fffffffffffffffffffffffff000000000000000000000000000000000000000016918416919091179055801561141957600080547fffffffffffffffffffffffffffffffffffffffffffffffffffffffffffff00ff1690555b505050565b60008215806114395750508181028183828161143657fe5b04145b61144257600080fd5b92915050565b6040805173ffffffffffffffffffffffffffffffffffffffff8481166024830152604480830185905283518084039091018152606490920183526020820180517bffffffffffffffffffffffffffffffffffffffffffffffffffffffff167f095ea7b3000000000000000000000000000000000000000000000000000000001781529251825160009485949389169392918291908083835b6020831061151d57805182527fffffffffffffffffffffffffffffffffffffffffffffffffffffffffffffffe090920191602091820191016114e0565b6001836020036101000a0380198251168184511680821785525050505050509050019150506000604051808303816000865af19150503d806000811461157f576040519150601f19603f3d011682016040523d82523d6000602084013e611584565b606091505b50915091508180156115b25750805115806115b257508080602001905160208110156115af57600080fd5b50515b61161d57604080517f08c379a000000000000000000000000000000000000000000000000000000000815260206004820152600260248201527f5341000000000000000000000000000000000000000000000000000000000000604482015290519081900360640190fd5b5050505050565b6040805160008082526020820190925273ffffffffffffffffffffffffffffffffffffffff84169083906040518082805190602001908083835b6020831061169b57805182527fffffffffffffffffffffffffffffffffffffffffffffffffffffffffffffffe0909201916020918201910161165e565b6001836020036101000a03801982511681845116808217855250505050505090500191505060006040518083038185875af1925050503d80600081146116fd576040519150601f19603f3d011682016040523d82523d6000602084013e611702565b606091505b505090508061141957604080517f08c379a000000000000000000000000000000000000000000000000000000000815260206004820152600360248201527f5354450000000000000000000000000000000000000000000000000000000000604482015290519081900360640190fd5b6040805173ffffffffffffffffffffffffffffffffffffffff8481166024830152604480830185905283518084039091018152606490920183526020820180517bffffffffffffffffffffffffffffffffffffffffffffffffffffffff167fa9059cbb000000000000000000000000000000000000000000000000000000001781529251825160009485949389169392918291908083835b6020831061184757805182527fffffffffffffffffffffffffffffffffffffffffffffffffffffffffffffffe0909201916020918201910161180a565b6001836020036101000a0380198251168184511680821785525050505050509050019150506000604051808303816000865af19150503d80600081146118a9576040519150601f19603f3d011682016040523d82523d6000602084013e6118ae565b606091505b50915091508180156118dc5750805115806118dc57508080602001905160208110156118d957600080fd5b50515b61161d57604080517f08c379a000000000000000000000000000000000000000000000000000000000815260206004820152600260248201527f5354000000000000000000000000000000000000000000000000000000000000604482015290519081900360640190fd5b803b15155b919050565b803562ffffff8116811461194c57600080fd5b803560ff8116811461194c57600080fd5b600060208284031215611986578081fd5b81356119918161202a565b9392505050565b6000806000606084860312156119ac578182fd5b83356119b78161202a565b925060208401356119c78161202a565b915060408401356119d78161202a565b809150509250925092565b600080600080608085870312156119f7578081fd5b8435611a028161202a565b93506020850135611a128161202a565b9250611a2060408601611951565b91506060850135611a308161202a565b939692955090935050565b60008060008060008060c08789031215611a53578182fd5b8635611a5e8161202a565b95506020870135945060408701359350611a7a60608801611964565b92506080870135915060a087013590509295509295509295565b60008060208385031215611aa6578182fd5b823567ffffffffffffffff80821115611abd578384fd5b818501915085601f830112611ad0578384fd5b813581811115611ade578485fd5b8660208083028501011115611af1578485fd5b60209290920196919550909350505050565b600060208284031215611b14578081fd5b81356119918161204f565b600060208284031215611b30578081fd5b81516119918161204f565b600060208284031215611b4c578081fd5b81358060020b8114611991578182fd5b600060208284031215611b6d578081fd5b815167ffffffffffffffff80821115611b84578283fd5b818401915084601f830112611b97578283fd5b815181811115611ba357fe5b60405160207fffffffffffffffffffffffffffffffffffffffffffffffffffffffffffffffe0601f8401168201018181108482111715611bdf57fe5b604052818152838201602001871015611bf6578485fd5b611c07826020830160208701611ffe565b9695505050505050565b60006101a08284031215611c23578081fd5b50919050565b600060208284031215611c3a578081fd5b61199182611951565b60008060008060808587031215611c58578182fd5b8451935060208501516fffffffffffffffffffffffffffffffff81168114611c7e578283fd5b6040860151606090960151949790965092505050565b60008060408385031215611ca6578182fd5b505080516020909101519092909150565b600060208284031215611cc8578081fd5b61199182611964565b73ffffffffffffffffffffffffffffffffffffffff169052565b60008151808452611d03816020860160208601611ffe565b601f017fffffffffffffffffffffffffffffffffffffffffffffffffffffffffffffffe0169290920160200192915050565b60020b9052565b62ffffff169052565b6000828483379101908152919050565b73ffffffffffffffffffffffffffffffffffffffff91909116815260200190565b73ffffffffffffffffffffffffffffffffffffffff9384168152919092166020820152604081019190915260600190565b6000602080830181845280855180835260408601915060408482028701019250838701855b82811015611e18577fffffffffffffffffffffffffffffffffffffffffffffffffffffffffffffffc0888603018452611e06858351611ceb565b94509285019290850190600101611dcc565b5092979650505050505050565b6000602082526119916020830184611ceb565b60208082526014908201527f50657263656e7461676520746f6f20736d616c6c000000000000000000000000604082015260600190565b60208082526009908201527f4e6f742057455448390000000000000000000000000000000000000000000000604082015260600190565b60208082526014908201527f50657263656e7461676520746f6f206c61726765000000000000000000000000604082015260600190565b600061016082019050611ef1828451611cd1565b6020830151611f036020840182611cd1565b506040830151611f166040840182611d3c565b506060830151611f296060840182611d35565b506080830151611f3c6080840182611d35565b5060a083015160a083015260c083015160c083015260e083015160e083015261010080840151818401525061012080840151611f7a82850182611cd1565b505061014092830151919092015290565b90815260200190565b60008083357fffffffffffffffffffffffffffffffffffffffffffffffffffffffffffffffe1843603018112611fc8578283fd5b83018035915067ffffffffffffffff821115611fe2578283fd5b602001915036819003821315611ff757600080fd5b9250929050565b60005b83811015612019578181015183820152602001612001565b83811115610a3e5750506000910152565b73ffffffffffffffffffffffffffffffffffffffff8116811461204c57600080fd5b50565b801515811461204c57600080fdfe496e697469616c697a61626c653a20636f6e747261637420697320616c726561647920696e697469616c697a6564a164736f6c6343000706000a",
  "linkReferences": {},
  "deployedLinkReferences": {}
}